{
  "address": "0x6C70BAcb256560502a9e35506535c9dEDdb9Be45",
  "abi": [
    {
      "anonymous": false,
      "inputs": [
        {
          "indexed": true,
          "internalType": "address",
          "name": "owner",
          "type": "address"
        },
        {
          "indexed": true,
          "internalType": "address",
          "name": "approved",
          "type": "address"
        },
        {
          "indexed": true,
          "internalType": "uint256",
          "name": "tokenId",
          "type": "uint256"
        }
      ],
      "name": "Approval",
      "type": "event"
    },
    {
      "anonymous": false,
      "inputs": [
        {
          "indexed": true,
          "internalType": "address",
          "name": "owner",
          "type": "address"
        },
        {
          "indexed": true,
          "internalType": "address",
          "name": "operator",
          "type": "address"
        },
        {
          "indexed": false,
          "internalType": "bool",
          "name": "approved",
          "type": "bool"
        }
      ],
      "name": "ApprovalForAll",
      "type": "event"
    },
    {
      "anonymous": false,
      "inputs": [
        {
          "indexed": true,
          "internalType": "address",
          "name": "previousOwner",
          "type": "address"
        },
        {
          "indexed": true,
          "internalType": "address",
          "name": "newOwner",
          "type": "address"
        }
      ],
      "name": "OwnershipTransferred",
      "type": "event"
    },
    {
      "anonymous": false,
      "inputs": [
        {
          "indexed": true,
          "internalType": "address",
          "name": "from",
          "type": "address"
        },
        {
          "indexed": true,
          "internalType": "address",
          "name": "to",
          "type": "address"
        },
        {
          "indexed": true,
          "internalType": "uint256",
          "name": "tokenId",
          "type": "uint256"
        }
      ],
      "name": "Transfer",
      "type": "event"
    },
    {
      "inputs": [
        {
          "internalType": "address",
          "name": "to",
          "type": "address"
        },
        {
          "internalType": "uint256",
          "name": "tokenId",
          "type": "uint256"
        }
      ],
      "name": "approve",
      "outputs": [],
      "stateMutability": "nonpayable",
      "type": "function"
    },
    {
      "inputs": [
        {
          "internalType": "address",
          "name": "owner",
          "type": "address"
        }
      ],
      "name": "balanceOf",
      "outputs": [
        {
          "internalType": "uint256",
          "name": "",
          "type": "uint256"
        }
      ],
      "stateMutability": "view",
      "type": "function"
    },
    {
      "inputs": [],
      "name": "contractName",
      "outputs": [
        {
          "internalType": "string",
          "name": "",
          "type": "string"
        }
      ],
      "stateMutability": "view",
      "type": "function"
    },
    {
      "inputs": [
        {
          "internalType": "uint256",
          "name": "tokenId",
          "type": "uint256"
        }
      ],
      "name": "dataURI",
      "outputs": [
        {
          "internalType": "string",
          "name": "",
          "type": "string"
        }
      ],
      "stateMutability": "view",
      "type": "function"
    },
    {
      "inputs": [
        {
          "internalType": "string",
          "name": "name",
          "type": "string"
        },
        {
          "internalType": "string",
          "name": "description",
          "type": "string"
        },
        {
          "internalType": "uint256",
          "name": "tokenId",
          "type": "uint256"
        }
      ],
      "name": "genericDataURI",
      "outputs": [
        {
          "internalType": "string",
          "name": "",
          "type": "string"
        }
      ],
      "stateMutability": "view",
      "type": "function"
    },
    {
      "inputs": [
        {
          "internalType": "uint256",
          "name": "tokenId",
          "type": "uint256"
        }
      ],
      "name": "getApproved",
      "outputs": [
        {
          "internalType": "address",
          "name": "",
          "type": "address"
        }
      ],
      "stateMutability": "view",
      "type": "function"
    },
    {
      "inputs": [
        {
          "internalType": "address",
          "name": "_owner",
          "type": "address"
        },
        {
          "internalType": "string",
          "name": "_name",
          "type": "string"
        },
        {
          "internalType": "string",
          "name": "_symbol",
          "type": "string"
        }
      ],
      "name": "initialize",
      "outputs": [],
      "stateMutability": "nonpayable",
      "type": "function"
    },
    {
      "inputs": [
        {
          "internalType": "address",
          "name": "owner",
          "type": "address"
        },
        {
          "internalType": "address",
          "name": "operator",
          "type": "address"
        }
      ],
      "name": "isApprovedForAll",
      "outputs": [
        {
          "internalType": "bool",
          "name": "",
          "type": "bool"
        }
      ],
      "stateMutability": "view",
      "type": "function"
    },
    {
      "inputs": [
        {
          "internalType": "string",
          "name": "name",
          "type": "string"
        },
        {
          "internalType": "bytes",
          "name": "seed",
          "type": "bytes"
        },
        {
          "internalType": "string[]",
          "name": "colors",
          "type": "string[]"
        },
        {
          "internalType": "address",
          "name": "toAddress",
          "type": "address"
        }
      ],
      "name": "mintNFT",
      "outputs": [],
      "stateMutability": "nonpayable",
      "type": "function"
    },
    {
      "inputs": [],
      "name": "name",
      "outputs": [
        {
          "internalType": "string",
          "name": "",
          "type": "string"
        }
      ],
      "stateMutability": "view",
      "type": "function"
    },
    {
      "inputs": [
        {
          "internalType": "uint256",
          "name": "",
          "type": "uint256"
        }
      ],
      "name": "names",
      "outputs": [
        {
          "internalType": "string",
          "name": "",
          "type": "string"
        }
      ],
      "stateMutability": "view",
      "type": "function"
    },
    {
      "inputs": [],
      "name": "owner",
      "outputs": [
        {
          "internalType": "address",
          "name": "",
          "type": "address"
        }
      ],
      "stateMutability": "view",
      "type": "function"
    },
    {
      "inputs": [
        {
          "internalType": "uint256",
          "name": "tokenId",
          "type": "uint256"
        }
      ],
      "name": "ownerOf",
      "outputs": [
        {
          "internalType": "address",
          "name": "",
          "type": "address"
        }
      ],
      "stateMutability": "view",
      "type": "function"
    },
    {
      "inputs": [
        {
          "internalType": "uint256",
          "name": "",
          "type": "uint256"
        },
        {
          "internalType": "uint256",
          "name": "",
          "type": "uint256"
        }
      ],
      "name": "palettes",
      "outputs": [
        {
          "internalType": "string",
          "name": "",
          "type": "string"
        }
      ],
      "stateMutability": "view",
      "type": "function"
    },
    {
      "inputs": [],
      "name": "renounceOwnership",
      "outputs": [],
      "stateMutability": "nonpayable",
      "type": "function"
    },
    {
      "inputs": [
        {
          "internalType": "address",
          "name": "from",
          "type": "address"
        },
        {
          "internalType": "address",
          "name": "to",
          "type": "address"
        },
        {
          "internalType": "uint256",
          "name": "tokenId",
          "type": "uint256"
        }
      ],
      "name": "safeTransferFrom",
      "outputs": [],
      "stateMutability": "nonpayable",
      "type": "function"
    },
    {
      "inputs": [
        {
          "internalType": "address",
          "name": "from",
          "type": "address"
        },
        {
          "internalType": "address",
          "name": "to",
          "type": "address"
        },
        {
          "internalType": "uint256",
          "name": "tokenId",
          "type": "uint256"
        },
        {
          "internalType": "bytes",
          "name": "_data",
          "type": "bytes"
        }
      ],
      "name": "safeTransferFrom",
      "outputs": [],
      "stateMutability": "nonpayable",
      "type": "function"
    },
    {
      "inputs": [
        {
          "internalType": "uint256",
          "name": "",
          "type": "uint256"
        }
      ],
      "name": "seeds",
      "outputs": [
        {
          "internalType": "bytes",
          "name": "",
          "type": "bytes"
        }
      ],
      "stateMutability": "view",
      "type": "function"
    },
    {
      "inputs": [
        {
          "internalType": "address",
          "name": "operator",
          "type": "address"
        },
        {
          "internalType": "bool",
          "name": "approved",
          "type": "bool"
        }
      ],
      "name": "setApprovalForAll",
      "outputs": [],
      "stateMutability": "nonpayable",
      "type": "function"
    },
    {
      "inputs": [
        {
          "internalType": "bytes4",
          "name": "interfaceId",
          "type": "bytes4"
        }
      ],
      "name": "supportsInterface",
      "outputs": [
        {
          "internalType": "bool",
          "name": "",
          "type": "bool"
        }
      ],
      "stateMutability": "view",
      "type": "function"
    },
    {
      "inputs": [],
      "name": "symbol",
      "outputs": [
        {
          "internalType": "string",
          "name": "",
          "type": "string"
        }
      ],
      "stateMutability": "view",
      "type": "function"
    },
    {
      "inputs": [
        {
          "internalType": "uint256",
          "name": "tokenId",
          "type": "uint256"
        }
      ],
      "name": "tokenURI",
      "outputs": [
        {
          "internalType": "string",
          "name": "",
          "type": "string"
        }
      ],
      "stateMutability": "view",
      "type": "function"
    },
    {
      "inputs": [],
      "name": "totalSupply",
      "outputs": [
        {
          "internalType": "uint256",
          "name": "",
          "type": "uint256"
        }
      ],
      "stateMutability": "view",
      "type": "function"
    },
    {
      "inputs": [
        {
          "internalType": "address",
          "name": "from",
          "type": "address"
        },
        {
          "internalType": "address",
          "name": "to",
          "type": "address"
        },
        {
          "internalType": "uint256",
          "name": "tokenId",
          "type": "uint256"
        }
      ],
      "name": "transferFrom",
      "outputs": [],
      "stateMutability": "nonpayable",
      "type": "function"
    },
    {
      "inputs": [
        {
          "internalType": "address",
          "name": "newOwner",
          "type": "address"
        }
      ],
      "name": "transferOwnership",
      "outputs": [],
      "stateMutability": "nonpayable",
      "type": "function"
    }
  ],
  "transactionHash": "0x4c62ad54c618478ae51012ad981afe0238d48c51a751da227d0beb25d391df4a",
  "args": [],
  "numDeployments": 1,
  "solcInputHash": "856cff810fceaa9035f3fb127e806169",
  "bytecode": "0x608060405234801561001057600080fd5b50613f79806100206000396000f3fe608060405234801561001057600080fd5b50600436106101735760003560e01c8063715018a6116100de578063a22cb46511610097578063e985e9c511610071578063e985e9c51461045c578063f0503e801461048c578063f1dc193a146104bc578063f2fde38b146104ec57610173565b8063a22cb465146103f4578063b88d4fde14610410578063c87b56dd1461042c57610173565b8063715018a61461035857806375d0c0dc146103625780638a704d75146103805780638da5cb5b1461039c57806390657147146103ba57806395d89b41146103d657610173565b806323b872dd1161013057806323b872dd1461026057806342842e0e1461027c5780634622ab03146102985780635ac1e3bb146102c85780636352211e146102f857806370a082311461032857610173565b806301ffc9a71461017857806306fdde03146101a8578063081812fc146101c6578063095ea7b3146101f657806318160ddd146102125780631958634814610230575b600080fd5b610192600480360381019061018d91906129e4565b610508565b60405161019f91906131ba565b60405180910390f35b6101b06105ea565b6040516101bd91906131f7565b60405180910390f35b6101e060048036038101906101db9190612bd5565b61067c565b6040516101ed9190613153565b60405180910390f35b610210600480360381019061020b91906129a4565b610701565b005b61021a610819565b60405161022791906134a9565b60405180910390f35b61024a60048036038101906102459190612b4a565b610823565b60405161025791906131f7565b60405180910390f35b61027a60048036038101906102759190612803565b610989565b005b61029660048036038101906102919190612803565b6109e9565b005b6102b260048036038101906102ad9190612bd5565b610a09565b6040516102bf91906131f7565b60405180910390f35b6102e260048036038101906102dd9190612bd5565b610aa9565b6040516102ef91906131f7565b60405180910390f35b610312600480360381019061030d9190612bd5565b610b8e565b60405161031f9190613153565b60405180910390f35b610342600480360381019061033d9190612796565b610c40565b60405161034f91906134a9565b60405180910390f35b610360610cf8565b005b61036a610d80565b60405161037791906131f7565b60405180910390f35b61039a60048036038101906103959190612a3e565b610e0e565b005b6103a4610fcc565b6040516103b19190613153565b60405180910390f35b6103d460048036038101906103cf9190612919565b610ff6565b005b6103de61110f565b6040516103eb91906131f7565b60405180910390f35b61040e600480360381019061040991906128d9565b6111a1565b005b61042a60048036038101906104259190612856565b6111b7565b005b61044660048036038101906104419190612bd5565b611219565b60405161045391906131f7565b60405180910390f35b610476600480360381019061047191906127c3565b611273565b60405161048391906131ba565b60405180910390f35b6104a660048036038101906104a19190612bd5565b611307565b6040516104b391906131d5565b60405180910390f35b6104d660048036038101906104d19190612c02565b6113a7565b6040516104e391906131f7565b60405180910390f35b61050660048036038101906105019190612796565b611460565b005b60007f80ac58cd000000000000000000000000000000000000000000000000000000007bffffffffffffffffffffffffffffffffffffffffffffffffffffffff1916827bffffffffffffffffffffffffffffffffffffffffffffffffffffffff191614806105d357507f5b5e139f000000000000000000000000000000000000000000000000000000007bffffffffffffffffffffffffffffffffffffffffffffffffffffffff1916827bffffffffffffffffffffffffffffffffffffffffffffffffffffffff1916145b806105e357506105e282611558565b5b9050919050565b6060606580546105f990613799565b80601f016020809104026020016040519081016040528092919081815260200182805461062590613799565b80156106725780601f1061064757610100808354040283529160200191610672565b820191906000526020600020905b81548152906001019060200180831161065557829003601f168201915b5050505050905090565b6000610687826115c2565b6106c6576040517f08c379a00000000000000000000000000000000000000000000000000000000081526004016106bd906133b9565b60405180910390fd5b6069600083815260200190815260200160002060009054906101000a900473ffffffffffffffffffffffffffffffffffffffff169050919050565b600061070c82610b8e565b90508073ffffffffffffffffffffffffffffffffffffffff168373ffffffffffffffffffffffffffffffffffffffff16141561077d576040517f08c379a000000000000000000000000000000000000000000000000000000000815260040161077490613419565b60405180910390fd5b8073ffffffffffffffffffffffffffffffffffffffff1661079c61162e565b73ffffffffffffffffffffffffffffffffffffffff1614806107cb57506107ca816107c561162e565b611273565b5b61080a576040517f08c379a000000000000000000000000000000000000000000000000000000000815260040161080190613319565b60405180910390fd5b6108148383611636565b505050565b600060cc54905090565b60606000604051806060016040528086815260200185815260200160ca6000868152602001908152602001600020805461085c90613799565b80601f016020809104026020016040519081016040528092919081815260200182805461088890613799565b80156108d55780601f106108aa576101008083540402835291602001916108d5565b820191906000526020600020905b8154815290600101906020018083116108b857829003601f168201915b50505050508152509050734F9D47bA2c7117bfdda70F54CEE6a44DE569EF6D636c2a0e3c8260c960008781526020019081526020016000206040518363ffffffff1660e01b815260040161092a929190613479565b60006040518083038186803b15801561094257600080fd5b505af4158015610956573d6000803e3d6000fd5b505050506040513d6000823e3d601f19601f8201168201806040525081019061097f9190612b01565b9150509392505050565b61099a61099461162e565b826116ef565b6109d9576040517f08c379a00000000000000000000000000000000000000000000000000000000081526004016109d090613439565b60405180910390fd5b6109e48383836117cd565b505050565b610a04838383604051806020016040528060008152506111b7565b505050565b60cb6020528060005260406000206000915090508054610a2890613799565b80601f0160208091040260200160405190810160405280929190818152602001828054610a5490613799565b8015610aa15780601f10610a7657610100808354040283529160200191610aa1565b820191906000526020600020905b815481529060010190602001808311610a8457829003601f168201915b505050505081565b6060600060cb60008481526020019081526020016000208054610acb90613799565b80601f0160208091040260200160405190810160405280929190818152602001828054610af790613799565b8015610b445780601f10610b1957610100808354040283529160200191610b44565b820191906000526020600020905b815481529060010190602001808311610b2757829003601f168201915b50505050509050600060cd610b5885611a34565b604051602001610b69929190613124565b6040516020818303038152906040529050610b85828286610823565b92505050919050565b6000806067600084815260200190815260200160002060009054906101000a900473ffffffffffffffffffffffffffffffffffffffff169050600073ffffffffffffffffffffffffffffffffffffffff168173ffffffffffffffffffffffffffffffffffffffff161415610c37576040517f08c379a0000000000000000000000000000000000000000000000000000000008152600401610c2e90613359565b60405180910390fd5b80915050919050565b60008073ffffffffffffffffffffffffffffffffffffffff168273ffffffffffffffffffffffffffffffffffffffff161415610cb1576040517f08c379a0000000000000000000000000000000000000000000000000000000008152600401610ca890613339565b60405180910390fd5b606860008373ffffffffffffffffffffffffffffffffffffffff1673ffffffffffffffffffffffffffffffffffffffff168152602001908152602001600020549050919050565b610d0061162e565b73ffffffffffffffffffffffffffffffffffffffff16610d1e610fcc565b73ffffffffffffffffffffffffffffffffffffffff1614610d74576040517f08c379a0000000000000000000000000000000000000000000000000000000008152600401610d6b906133d9565b60405180910390fd5b610d7e6000611b95565b565b60cd8054610d8d90613799565b80601f0160208091040260200160405190810160405280929190818152602001828054610db990613799565b8015610e065780601f10610ddb57610100808354040283529160200191610e06565b820191906000526020600020905b815481529060010190602001808311610de957829003601f168201915b505050505081565b610e1661162e565b73ffffffffffffffffffffffffffffffffffffffff16610e34610fcc565b73ffffffffffffffffffffffffffffffffffffffff1614610e8a576040517f08c379a0000000000000000000000000000000000000000000000000000000008152600401610e81906133d9565b60405180910390fd5b6000600160cc54610e9b9190613628565b90506101008484905060c9600084815260200190815260200160002080549050610ec59190613628565b1115610f06576040517f08c379a0000000000000000000000000000000000000000000000000000000008152600401610efd906133f9565b60405180910390fd5b60005b84849050811015610f5557610f4282868684818110610f2b57610f2a613903565b5b9050602002810190610f3d91906134c4565b611c5b565b8080610f4d906137fc565b915050610f09565b50868660cb60008481526020019081526020016000209190610f78929190612382565b508460ca60008381526020019081526020016000209080519060200190610fa0929190612408565b5060cc6000815480929190610fb4906137fc565b9190505550610fc38282611caf565b50505050505050565b6000609760009054906101000a900473ffffffffffffffffffffffffffffffffffffffff16905090565b600060019054906101000a900460ff1661101e5760008054906101000a900460ff1615611027565b611026611ccd565b5b611066576040517f08c379a000000000000000000000000000000000000000000000000000000000815260040161105d90613379565b60405180910390fd5b60008060019054906101000a900460ff1615905080156110b6576001600060016101000a81548160ff02191690831515021790555060016000806101000a81548160ff0219169083151502179055505b6110be611cde565b6110c784611460565b6110d18383611d3f565b8260cd90805190602001906110e792919061248e565b5080156111095760008060016101000a81548160ff0219169083151502179055505b50505050565b60606066805461111e90613799565b80601f016020809104026020016040519081016040528092919081815260200182805461114a90613799565b80156111975780601f1061116c57610100808354040283529160200191611197565b820191906000526020600020905b81548152906001019060200180831161117a57829003601f168201915b5050505050905090565b6111b36111ac61162e565b8383611dc0565b5050565b6111c86111c261162e565b836116ef565b611207576040517f08c379a00000000000000000000000000000000000000000000000000000000081526004016111fe90613439565b60405180910390fd5b61121384848484611f2d565b50505050565b6060611224826115c2565b611263576040517f08c379a000000000000000000000000000000000000000000000000000000000815260040161125a90613219565b60405180910390fd5b61126c82610aa9565b9050919050565b6000606a60008473ffffffffffffffffffffffffffffffffffffffff1673ffffffffffffffffffffffffffffffffffffffff16815260200190815260200160002060008373ffffffffffffffffffffffffffffffffffffffff1673ffffffffffffffffffffffffffffffffffffffff16815260200190815260200160002060009054906101000a900460ff16905092915050565b60ca602052806000526040600020600091509050805461132690613799565b80601f016020809104026020016040519081016040528092919081815260200182805461135290613799565b801561139f5780601f106113745761010080835404028352916020019161139f565b820191906000526020600020905b81548152906001019060200180831161138257829003601f168201915b505050505081565b60c960205281600052604060002081815481106113c357600080fd5b906000526020600020016000915091505080546113df90613799565b80601f016020809104026020016040519081016040528092919081815260200182805461140b90613799565b80156114585780601f1061142d57610100808354040283529160200191611458565b820191906000526020600020905b81548152906001019060200180831161143b57829003601f168201915b505050505081565b61146861162e565b73ffffffffffffffffffffffffffffffffffffffff16611486610fcc565b73ffffffffffffffffffffffffffffffffffffffff16146114dc576040517f08c379a00000000000000000000000000000000000000000000000000000000081526004016114d3906133d9565b60405180910390fd5b600073ffffffffffffffffffffffffffffffffffffffff168173ffffffffffffffffffffffffffffffffffffffff16141561154c576040517f08c379a000000000000000000000000000000000000000000000000000000000815260040161154390613259565b60405180910390fd5b61155581611b95565b50565b60007f01ffc9a7000000000000000000000000000000000000000000000000000000007bffffffffffffffffffffffffffffffffffffffffffffffffffffffff1916827bffffffffffffffffffffffffffffffffffffffffffffffffffffffff1916149050919050565b60008073ffffffffffffffffffffffffffffffffffffffff166067600084815260200190815260200160002060009054906101000a900473ffffffffffffffffffffffffffffffffffffffff1673ffffffffffffffffffffffffffffffffffffffff1614159050919050565b600033905090565b816069600083815260200190815260200160002060006101000a81548173ffffffffffffffffffffffffffffffffffffffff021916908373ffffffffffffffffffffffffffffffffffffffff160217905550808273ffffffffffffffffffffffffffffffffffffffff166116a983610b8e565b73ffffffffffffffffffffffffffffffffffffffff167f8c5be1e5ebec7d5bd14f71427d1e84f3dd0314c0f7b2291e5b200ac8c7c3b92560405160405180910390a45050565b60006116fa826115c2565b611739576040517f08c379a0000000000000000000000000000000000000000000000000000000008152600401611730906132f9565b60405180910390fd5b600061174483610b8e565b90508073ffffffffffffffffffffffffffffffffffffffff168473ffffffffffffffffffffffffffffffffffffffff1614806117b357508373ffffffffffffffffffffffffffffffffffffffff1661179b8461067c565b73ffffffffffffffffffffffffffffffffffffffff16145b806117c457506117c38185611273565b5b91505092915050565b8273ffffffffffffffffffffffffffffffffffffffff166117ed82610b8e565b73ffffffffffffffffffffffffffffffffffffffff1614611843576040517f08c379a000000000000000000000000000000000000000000000000000000000815260040161183a90613279565b60405180910390fd5b600073ffffffffffffffffffffffffffffffffffffffff168273ffffffffffffffffffffffffffffffffffffffff1614156118b3576040517f08c379a00000000000000000000000000000000000000000000000000000000081526004016118aa906132b9565b60405180910390fd5b6118be838383611f89565b6118c9600082611636565b6001606860008573ffffffffffffffffffffffffffffffffffffffff1673ffffffffffffffffffffffffffffffffffffffff168152602001908152602001600020600082825461191991906136af565b925050819055506001606860008473ffffffffffffffffffffffffffffffffffffffff1673ffffffffffffffffffffffffffffffffffffffff16815260200190815260200160002060008282546119709190613628565b92505081905550816067600083815260200190815260200160002060006101000a81548173ffffffffffffffffffffffffffffffffffffffff021916908373ffffffffffffffffffffffffffffffffffffffff160217905550808273ffffffffffffffffffffffffffffffffffffffff168473ffffffffffffffffffffffffffffffffffffffff167fddf252ad1be2c89b69c2b068fc378daa952ba7f163c4a11628f55a4df523b3ef60405160405180910390a4611a2f838383611f8e565b505050565b60606000821415611a7c576040518060400160405280600181526020017f30000000000000000000000000000000000000000000000000000000000000008152509050611b90565b600082905060005b60008214611aae578080611a97906137fc565b915050600a82611aa7919061367e565b9150611a84565b60008167ffffffffffffffff811115611aca57611ac9613932565b5b6040519080825280601f01601f191660200182016040528015611afc5781602001600182028036833780820191505090505b5090505b60008514611b8957600182611b1591906136af565b9150600a85611b249190613845565b6030611b309190613628565b60f81b818381518110611b4657611b45613903565b5b60200101907effffffffffffffffffffffffffffffffffffffffffffffffffffffffffffff1916908160001a905350600a85611b82919061367e565b9450611b00565b8093505050505b919050565b6000609760009054906101000a900473ffffffffffffffffffffffffffffffffffffffff16905081609760006101000a81548173ffffffffffffffffffffffffffffffffffffffff021916908373ffffffffffffffffffffffffffffffffffffffff1602179055508173ffffffffffffffffffffffffffffffffffffffff168173ffffffffffffffffffffffffffffffffffffffff167f8be0079c531659141344cd1fd0a4f28419497f9722a3daafe3b4186f6b6457e060405160405180910390a35050565b60c96000848152602001908152602001600020828290918060018154018082558091505060019003906000526020600020016000909192909192909192909192509190611ca9929190612382565b50505050565b611cc9828260405180602001604052806000815250611f93565b5050565b6000611cd830611fee565b15905090565b600060019054906101000a900460ff16611d2d576040517f08c379a0000000000000000000000000000000000000000000000000000000008152600401611d2490613459565b60405180910390fd5b611d3d611d3861162e565b611b95565b565b600060019054906101000a900460ff16611d8e576040517f08c379a0000000000000000000000000000000000000000000000000000000008152600401611d8590613459565b60405180910390fd5b8160659080519060200190611da492919061248e565b508060669080519060200190611dbb92919061248e565b505050565b8173ffffffffffffffffffffffffffffffffffffffff168373ffffffffffffffffffffffffffffffffffffffff161415611e2f576040517f08c379a0000000000000000000000000000000000000000000000000000000008152600401611e26906132d9565b60405180910390fd5b80606a60008573ffffffffffffffffffffffffffffffffffffffff1673ffffffffffffffffffffffffffffffffffffffff16815260200190815260200160002060008473ffffffffffffffffffffffffffffffffffffffff1673ffffffffffffffffffffffffffffffffffffffff16815260200190815260200160002060006101000a81548160ff0219169083151502179055508173ffffffffffffffffffffffffffffffffffffffff168373ffffffffffffffffffffffffffffffffffffffff167f17307eab39ab6107e8899845ad3d59bd9653f200f220920489ca2b5937696c3183604051611f2091906131ba565b60405180910390a3505050565b611f388484846117cd565b611f4484848484612011565b611f83576040517f08c379a0000000000000000000000000000000000000000000000000000000008152600401611f7a90613239565b60405180910390fd5b50505050565b505050565b505050565b611f9d83836121a8565b611faa6000848484612011565b611fe9576040517f08c379a0000000000000000000000000000000000000000000000000000000008152600401611fe090613239565b60405180910390fd5b505050565b6000808273ffffffffffffffffffffffffffffffffffffffff163b119050919050565b60006120328473ffffffffffffffffffffffffffffffffffffffff16611fee565b1561219b578373ffffffffffffffffffffffffffffffffffffffff1663150b7a0261205b61162e565b8786866040518563ffffffff1660e01b815260040161207d949392919061316e565b602060405180830381600087803b15801561209757600080fd5b505af19250505080156120c857506040513d601f19601f820116820180604052508101906120c59190612a11565b60015b61214b573d80600081146120f8576040519150601f19603f3d011682016040523d82523d6000602084013e6120fd565b606091505b50600081511415612143576040517f08c379a000000000000000000000000000000000000000000000000000000000815260040161213a90613239565b60405180910390fd5b805181602001fd5b63150b7a0260e01b7bffffffffffffffffffffffffffffffffffffffffffffffffffffffff1916817bffffffffffffffffffffffffffffffffffffffffffffffffffffffff1916149150506121a0565b600190505b949350505050565b600073ffffffffffffffffffffffffffffffffffffffff168273ffffffffffffffffffffffffffffffffffffffff161415612218576040517f08c379a000000000000000000000000000000000000000000000000000000000815260040161220f90613399565b60405180910390fd5b612221816115c2565b15612261576040517f08c379a000000000000000000000000000000000000000000000000000000000815260040161225890613299565b60405180910390fd5b61226d60008383611f89565b6001606860008473ffffffffffffffffffffffffffffffffffffffff1673ffffffffffffffffffffffffffffffffffffffff16815260200190815260200160002060008282546122bd9190613628565b92505081905550816067600083815260200190815260200160002060006101000a81548173ffffffffffffffffffffffffffffffffffffffff021916908373ffffffffffffffffffffffffffffffffffffffff160217905550808273ffffffffffffffffffffffffffffffffffffffff16600073ffffffffffffffffffffffffffffffffffffffff167fddf252ad1be2c89b69c2b068fc378daa952ba7f163c4a11628f55a4df523b3ef60405160405180910390a461237e60008383611f8e565b5050565b82805461238e90613799565b90600052602060002090601f0160209004810192826123b057600085556123f7565b82601f106123c957803560ff19168380011785556123f7565b828001600101855582156123f7579182015b828111156123f65782358255916020019190600101906123db565b5b5090506124049190612514565b5090565b82805461241490613799565b90600052602060002090601f016020900481019282612436576000855561247d565b82601f1061244f57805160ff191683800117855561247d565b8280016001018555821561247d579182015b8281111561247c578251825591602001919060010190612461565b5b50905061248a9190612514565b5090565b82805461249a90613799565b90600052602060002090601f0160209004810192826124bc5760008555612503565b82601f106124d557805160ff1916838001178555612503565b82800160010185558215612503579182015b828111156125025782518255916020019190600101906124e7565b5b5090506125109190612514565b5090565b5b8082111561252d576000816000905550600101612515565b5090565b600061254461253f8461354c565b613527565b9050828152602081018484840111156125605761255f61397f565b5b61256b848285613757565b509392505050565b60006125866125818461357d565b613527565b9050828152602081018484840111156125a2576125a161397f565b5b6125ad848285613757565b509392505050565b60006125c86125c38461357d565b613527565b9050828152602081018484840111156125e4576125e361397f565b5b6125ef848285613766565b509392505050565b60008135905061260681613ee7565b92915050565b60008083601f84011261262257612621613966565b5b8235905067ffffffffffffffff81111561263f5761263e613961565b5b60208301915083602082028301111561265b5761265a613975565b5b9250929050565b60008135905061267181613efe565b92915050565b60008135905061268681613f15565b92915050565b60008151905061269b81613f15565b92915050565b600082601f8301126126b6576126b5613966565b5b81356126c6848260208601612531565b91505092915050565b60008083601f8401126126e5576126e4613966565b5b8235905067ffffffffffffffff81111561270257612701613961565b5b60208301915083600182028301111561271e5761271d613975565b5b9250929050565b600082601f83011261273a57612739613966565b5b813561274a848260208601612573565b91505092915050565b600082601f83011261276857612767613966565b5b81516127788482602086016125b5565b91505092915050565b60008135905061279081613f2c565b92915050565b6000602082840312156127ac576127ab613989565b5b60006127ba848285016125f7565b91505092915050565b600080604083850312156127da576127d9613989565b5b60006127e8858286016125f7565b92505060206127f9858286016125f7565b9150509250929050565b60008060006060848603121561281c5761281b613989565b5b600061282a868287016125f7565b935050602061283b868287016125f7565b925050604061284c86828701612781565b9150509250925092565b600080600080608085870312156128705761286f613989565b5b600061287e878288016125f7565b945050602061288f878288016125f7565b93505060406128a087828801612781565b925050606085013567ffffffffffffffff8111156128c1576128c0613984565b5b6128cd878288016126a1565b91505092959194509250565b600080604083850312156128f0576128ef613989565b5b60006128fe858286016125f7565b925050602061290f85828601612662565b9150509250929050565b60008060006060848603121561293257612931613989565b5b6000612940868287016125f7565b935050602084013567ffffffffffffffff81111561296157612960613984565b5b61296d86828701612725565b925050604084013567ffffffffffffffff81111561298e5761298d613984565b5b61299a86828701612725565b9150509250925092565b600080604083850312156129bb576129ba613989565b5b60006129c9858286016125f7565b92505060206129da85828601612781565b9150509250929050565b6000602082840312156129fa576129f9613989565b5b6000612a0884828501612677565b91505092915050565b600060208284031215612a2757612a26613989565b5b6000612a358482850161268c565b91505092915050565b60008060008060008060808789031215612a5b57612a5a613989565b5b600087013567ffffffffffffffff811115612a7957612a78613984565b5b612a8589828a016126cf565b9650965050602087013567ffffffffffffffff811115612aa857612aa7613984565b5b612ab489828a016126a1565b945050604087013567ffffffffffffffff811115612ad557612ad4613984565b5b612ae189828a0161260c565b93509350506060612af489828a016125f7565b9150509295509295509295565b600060208284031215612b1757612b16613989565b5b600082015167ffffffffffffffff811115612b3557612b34613984565b5b612b4184828501612753565b91505092915050565b600080600060608486031215612b6357612b62613989565b5b600084013567ffffffffffffffff811115612b8157612b80613984565b5b612b8d86828701612725565b935050602084013567ffffffffffffffff811115612bae57612bad613984565b5b612bba86828701612725565b9250506040612bcb86828701612781565b9150509250925092565b600060208284031215612beb57612bea613989565b5b6000612bf984828501612781565b91505092915050565b60008060408385031215612c1957612c18613989565b5b6000612c2785828601612781565b9250506020612c3885828601612781565b9150509250929050565b612c4b816136e3565b82525050565b8082525050565b612c61816136f5565b82525050565b6000612c72826135c3565b612c7c81856135d9565b9350612c8c818560208601613766565b612c958161398e565b840191505092915050565b6000612cab826135c3565b612cb581856135ea565b9350612cc5818560208601613766565b612cce8161398e565b840191505092915050565b6000612ce4826135ce565b612cee81856135fb565b9350612cfe818560208601613766565b612d078161398e565b840191505092915050565b6000612d1d826135ce565b612d27818561360c565b9350612d37818560208601613766565b612d408161398e565b840191505092915050565b6000612d56826135ce565b612d60818561361d565b9350612d70818560208601613766565b80840191505092915050565b60008154612d8981613799565b612d93818661361d565b94506001821660008114612dae5760018114612dbf57612df2565b60ff19831686528186019350612df2565b612dc8856135ae565b60005b83811015612dea57815481890152600182019150602081019050612dcb565b838801955050505b50505092915050565b6000612e08601f836135fb565b9150612e138261399f565b602082019050919050565b6000612e2b6032836135fb565b9150612e36826139c8565b604082019050919050565b6000612e4e60028361361d565b9150612e5982613a17565b600282019050919050565b6000612e716026836135fb565b9150612e7c82613a40565b604082019050919050565b6000612e946025836135fb565b9150612e9f82613a8f565b604082019050919050565b6000612eb7601c836135fb565b9150612ec282613ade565b602082019050919050565b6000612eda6024836135fb565b9150612ee582613b07565b604082019050919050565b6000612efd6019836135fb565b9150612f0882613b56565b602082019050919050565b6000612f20602c836135fb565b9150612f2b82613b7f565b604082019050919050565b6000612f436038836135fb565b9150612f4e82613bce565b604082019050919050565b6000612f66602a836135fb565b9150612f7182613c1d565b604082019050919050565b6000612f896029836135fb565b9150612f9482613c6c565b604082019050919050565b6000612fac602e836135fb565b9150612fb782613cbb565b604082019050919050565b6000612fcf6020836135fb565b9150612fda82613d0a565b602082019050919050565b6000612ff2602c836135fb565b9150612ffd82613d33565b604082019050919050565b60006130156020836135fb565b915061302082613d82565b602082019050919050565b60006130386021836135fb565b915061304382613dab565b604082019050919050565b600061305b6021836135fb565b915061306682613dfa565b604082019050919050565b600061307e6031836135fb565b915061308982613e49565b604082019050919050565b60006130a1602b836135fb565b91506130ac82613e98565b604082019050919050565b600060608301600083015184820360008601526130d48282612d12565b915050602083015184820360208601526130ee8282612d12565b915050604083015184820360408601526131088282612ca0565b9150508091505092915050565b61311e8161374d565b82525050565b60006131308285612d7c565b915061313b82612e41565b91506131478284612d4b565b91508190509392505050565b60006020820190506131686000830184612c42565b92915050565b60006080820190506131836000830187612c42565b6131906020830186612c42565b61319d6040830185613115565b81810360608301526131af8184612c67565b905095945050505050565b60006020820190506131cf6000830184612c58565b92915050565b600060208201905081810360008301526131ef8184612c67565b905092915050565b600060208201905081810360008301526132118184612cd9565b905092915050565b6000602082019050818103600083015261323281612dfb565b9050919050565b6000602082019050818103600083015261325281612e1e565b9050919050565b6000602082019050818103600083015261327281612e64565b9050919050565b6000602082019050818103600083015261329281612e87565b9050919050565b600060208201905081810360008301526132b281612eaa565b9050919050565b600060208201905081810360008301526132d281612ecd565b9050919050565b600060208201905081810360008301526132f281612ef0565b9050919050565b6000602082019050818103600083015261331281612f13565b9050919050565b6000602082019050818103600083015261333281612f36565b9050919050565b6000602082019050818103600083015261335281612f59565b9050919050565b6000602082019050818103600083015261337281612f7c565b9050919050565b6000602082019050818103600083015261339281612f9f565b9050919050565b600060208201905081810360008301526133b281612fc2565b9050919050565b600060208201905081810360008301526133d281612fe5565b9050919050565b600060208201905081810360008301526133f281613008565b9050919050565b600060208201905081810360008301526134128161302b565b9050919050565b600060208201905081810360008301526134328161304e565b9050919050565b6000602082019050818103600083015261345281613071565b9050919050565b6000602082019050818103600083015261347281613094565b9050919050565b6000604082019050818103600083015261349381856130b7565b90506134a26020830184612c51565b9392505050565b60006020820190506134be6000830184613115565b92915050565b600080833560016020038436030381126134e1576134e0613970565b5b80840192508235915067ffffffffffffffff8211156135035761350261396b565b5b60208301925060018202360383131561351f5761351e61397a565b5b509250929050565b6000613531613542565b905061353d82826137cb565b919050565b6000604051905090565b600067ffffffffffffffff82111561356757613566613932565b5b6135708261398e565b9050602081019050919050565b600067ffffffffffffffff82111561359857613597613932565b5b6135a18261398e565b9050602081019050919050565b60008190508160005260206000209050919050565b600081519050919050565b600081519050919050565b600082825260208201905092915050565b600082825260208201905092915050565b600082825260208201905092915050565b600082825260208201905092915050565b600081905092915050565b60006136338261374d565b915061363e8361374d565b9250827fffffffffffffffffffffffffffffffffffffffffffffffffffffffffffffffff0382111561367357613672613876565b5b828201905092915050565b60006136898261374d565b91506136948361374d565b9250826136a4576136a36138a5565b5b828204905092915050565b60006136ba8261374d565b91506136c58361374d565b9250828210156136d8576136d7613876565b5b828203905092915050565b60006136ee8261372d565b9050919050565b60008115159050919050565b60007fffffffff0000000000000000000000000000000000000000000000000000000082169050919050565b600073ffffffffffffffffffffffffffffffffffffffff82169050919050565b6000819050919050565b82818337600083830152505050565b60005b83811015613784578082015181840152602081019050613769565b83811115613793576000848401525b50505050565b600060028204905060018216806137b157607f821691505b602082108114156137c5576137c46138d4565b5b50919050565b6137d48261398e565b810181811067ffffffffffffffff821117156137f3576137f2613932565b5b80604052505050565b60006138078261374d565b91507fffffffffffffffffffffffffffffffffffffffffffffffffffffffffffffffff82141561383a57613839613876565b5b600182019050919050565b60006138508261374d565b915061385b8361374d565b92508261386b5761386a6138a5565b5b828206905092915050565b7f4e487b7100000000000000000000000000000000000000000000000000000000600052601160045260246000fd5b7f4e487b7100000000000000000000000000000000000000000000000000000000600052601260045260246000fd5b7f4e487b7100000000000000000000000000000000000000000000000000000000600052602260045260246000fd5b7f4e487b7100000000000000000000000000000000000000000000000000000000600052603260045260246000fd5b7f4e487b7100000000000000000000000000000000000000000000000000000000600052604160045260246000fd5b600080fd5b600080fd5b600080fd5b600080fd5b600080fd5b600080fd5b600080fd5b600080fd5b600080fd5b6000601f19601f8301169050919050565b7f55524920717565727920666f72206e6f6e6578697374656e7420746f6b656e00600082015250565b7f4552433732313a207472616e7366657220746f206e6f6e20455243373231526560008201527f63656976657220696d706c656d656e7465720000000000000000000000000000602082015250565b7f2023000000000000000000000000000000000000000000000000000000000000600082015250565b7f4f776e61626c653a206e6577206f776e657220697320746865207a65726f206160008201527f6464726573730000000000000000000000000000000000000000000000000000602082015250565b7f4552433732313a207472616e736665722066726f6d20696e636f72726563742060008201527f6f776e6572000000000000000000000000000000000000000000000000000000602082015250565b7f4552433732313a20746f6b656e20616c7265616479206d696e74656400000000600082015250565b7f4552433732313a207472616e7366657220746f20746865207a65726f2061646460008201527f7265737300000000000000000000000000000000000000000000000000000000602082015250565b7f4552433732313a20617070726f766520746f2063616c6c657200000000000000600082015250565b7f4552433732313a206f70657261746f7220717565727920666f72206e6f6e657860008201527f697374656e7420746f6b656e0000000000000000000000000000000000000000602082015250565b7f4552433732313a20617070726f76652063616c6c6572206973206e6f74206f7760008201527f6e6572206e6f7220617070726f76656420666f7220616c6c0000000000000000602082015250565b7f4552433732313a2062616c616e636520717565727920666f7220746865207a6560008201527f726f206164647265737300000000000000000000000000000000000000000000602082015250565b7f4552433732313a206f776e657220717565727920666f72206e6f6e657869737460008201527f656e7420746f6b656e0000000000000000000000000000000000000000000000602082015250565b7f496e697469616c697a61626c653a20636f6e747261637420697320616c72656160008201527f647920696e697469616c697a6564000000000000000000000000000000000000602082015250565b7f4552433732313a206d696e7420746f20746865207a65726f2061646472657373600082015250565b7f4552433732313a20617070726f76656420717565727920666f72206e6f6e657860008201527f697374656e7420746f6b656e0000000000000000000000000000000000000000602082015250565b7f4f776e61626c653a2063616c6c6572206973206e6f7420746865206f776e6572600082015250565b7f50616c65747465732063616e206f6e6c7920686f6c642032353620636f6c6f7260008201527f7300000000000000000000000000000000000000000000000000000000000000602082015250565b7f4552433732313a20617070726f76616c20746f2063757272656e74206f776e6560008201527f7200000000000000000000000000000000000000000000000000000000000000602082015250565b7f4552433732313a207472616e736665722063616c6c6572206973206e6f74206f60008201527f776e6572206e6f7220617070726f766564000000000000000000000000000000602082015250565b7f496e697469616c697a61626c653a20636f6e7472616374206973206e6f74206960008201527f6e697469616c697a696e67000000000000000000000000000000000000000000602082015250565b613ef0816136e3565b8114613efb57600080fd5b50565b613f07816136f5565b8114613f1257600080fd5b50565b613f1e81613701565b8114613f2957600080fd5b50565b613f358161374d565b8114613f4057600080fd5b5056fea2646970667358221220add4ee092375c0b7278027adee36227f0aa2ab74e2f295f2356586c8a1dcab3464736f6c63430008060033",
  "deployedBytecode": "0x608060405234801561001057600080fd5b50600436106101735760003560e01c8063715018a6116100de578063a22cb46511610097578063e985e9c511610071578063e985e9c51461045c578063f0503e801461048c578063f1dc193a146104bc578063f2fde38b146104ec57610173565b8063a22cb465146103f4578063b88d4fde14610410578063c87b56dd1461042c57610173565b8063715018a61461035857806375d0c0dc146103625780638a704d75146103805780638da5cb5b1461039c57806390657147146103ba57806395d89b41146103d657610173565b806323b872dd1161013057806323b872dd1461026057806342842e0e1461027c5780634622ab03146102985780635ac1e3bb146102c85780636352211e146102f857806370a082311461032857610173565b806301ffc9a71461017857806306fdde03146101a8578063081812fc146101c6578063095ea7b3146101f657806318160ddd146102125780631958634814610230575b600080fd5b610192600480360381019061018d91906129e4565b610508565b60405161019f91906131ba565b60405180910390f35b6101b06105ea565b6040516101bd91906131f7565b60405180910390f35b6101e060048036038101906101db9190612bd5565b61067c565b6040516101ed9190613153565b60405180910390f35b610210600480360381019061020b91906129a4565b610701565b005b61021a610819565b60405161022791906134a9565b60405180910390f35b61024a60048036038101906102459190612b4a565b610823565b60405161025791906131f7565b60405180910390f35b61027a60048036038101906102759190612803565b610989565b005b61029660048036038101906102919190612803565b6109e9565b005b6102b260048036038101906102ad9190612bd5565b610a09565b6040516102bf91906131f7565b60405180910390f35b6102e260048036038101906102dd9190612bd5565b610aa9565b6040516102ef91906131f7565b60405180910390f35b610312600480360381019061030d9190612bd5565b610b8e565b60405161031f9190613153565b60405180910390f35b610342600480360381019061033d9190612796565b610c40565b60405161034f91906134a9565b60405180910390f35b610360610cf8565b005b61036a610d80565b60405161037791906131f7565b60405180910390f35b61039a60048036038101906103959190612a3e565b610e0e565b005b6103a4610fcc565b6040516103b19190613153565b60405180910390f35b6103d460048036038101906103cf9190612919565b610ff6565b005b6103de61110f565b6040516103eb91906131f7565b60405180910390f35b61040e600480360381019061040991906128d9565b6111a1565b005b61042a60048036038101906104259190612856565b6111b7565b005b61044660048036038101906104419190612bd5565b611219565b60405161045391906131f7565b60405180910390f35b610476600480360381019061047191906127c3565b611273565b60405161048391906131ba565b60405180910390f35b6104a660048036038101906104a19190612bd5565b611307565b6040516104b391906131d5565b60405180910390f35b6104d660048036038101906104d19190612c02565b6113a7565b6040516104e391906131f7565b60405180910390f35b61050660048036038101906105019190612796565b611460565b005b60007f80ac58cd000000000000000000000000000000000000000000000000000000007bffffffffffffffffffffffffffffffffffffffffffffffffffffffff1916827bffffffffffffffffffffffffffffffffffffffffffffffffffffffff191614806105d357507f5b5e139f000000000000000000000000000000000000000000000000000000007bffffffffffffffffffffffffffffffffffffffffffffffffffffffff1916827bffffffffffffffffffffffffffffffffffffffffffffffffffffffff1916145b806105e357506105e282611558565b5b9050919050565b6060606580546105f990613799565b80601f016020809104026020016040519081016040528092919081815260200182805461062590613799565b80156106725780601f1061064757610100808354040283529160200191610672565b820191906000526020600020905b81548152906001019060200180831161065557829003601f168201915b5050505050905090565b6000610687826115c2565b6106c6576040517f08c379a00000000000000000000000000000000000000000000000000000000081526004016106bd906133b9565b60405180910390fd5b6069600083815260200190815260200160002060009054906101000a900473ffffffffffffffffffffffffffffffffffffffff169050919050565b600061070c82610b8e565b90508073ffffffffffffffffffffffffffffffffffffffff168373ffffffffffffffffffffffffffffffffffffffff16141561077d576040517f08c379a000000000000000000000000000000000000000000000000000000000815260040161077490613419565b60405180910390fd5b8073ffffffffffffffffffffffffffffffffffffffff1661079c61162e565b73ffffffffffffffffffffffffffffffffffffffff1614806107cb57506107ca816107c561162e565b611273565b5b61080a576040517f08c379a000000000000000000000000000000000000000000000000000000000815260040161080190613319565b60405180910390fd5b6108148383611636565b505050565b600060cc54905090565b60606000604051806060016040528086815260200185815260200160ca6000868152602001908152602001600020805461085c90613799565b80601f016020809104026020016040519081016040528092919081815260200182805461088890613799565b80156108d55780601f106108aa576101008083540402835291602001916108d5565b820191906000526020600020905b8154815290600101906020018083116108b857829003601f168201915b5050505050815250905073__$388d9648e60900c4fa1f8dd42cac8ac1fe$__636c2a0e3c8260c960008781526020019081526020016000206040518363ffffffff1660e01b815260040161092a929190613479565b60006040518083038186803b15801561094257600080fd5b505af4158015610956573d6000803e3d6000fd5b505050506040513d6000823e3d601f19601f8201168201806040525081019061097f9190612b01565b9150509392505050565b61099a61099461162e565b826116ef565b6109d9576040517f08c379a00000000000000000000000000000000000000000000000000000000081526004016109d090613439565b60405180910390fd5b6109e48383836117cd565b505050565b610a04838383604051806020016040528060008152506111b7565b505050565b60cb6020528060005260406000206000915090508054610a2890613799565b80601f0160208091040260200160405190810160405280929190818152602001828054610a5490613799565b8015610aa15780601f10610a7657610100808354040283529160200191610aa1565b820191906000526020600020905b815481529060010190602001808311610a8457829003601f168201915b505050505081565b6060600060cb60008481526020019081526020016000208054610acb90613799565b80601f0160208091040260200160405190810160405280929190818152602001828054610af790613799565b8015610b445780601f10610b1957610100808354040283529160200191610b44565b820191906000526020600020905b815481529060010190602001808311610b2757829003601f168201915b50505050509050600060cd610b5885611a34565b604051602001610b69929190613124565b6040516020818303038152906040529050610b85828286610823565b92505050919050565b6000806067600084815260200190815260200160002060009054906101000a900473ffffffffffffffffffffffffffffffffffffffff169050600073ffffffffffffffffffffffffffffffffffffffff168173ffffffffffffffffffffffffffffffffffffffff161415610c37576040517f08c379a0000000000000000000000000000000000000000000000000000000008152600401610c2e90613359565b60405180910390fd5b80915050919050565b60008073ffffffffffffffffffffffffffffffffffffffff168273ffffffffffffffffffffffffffffffffffffffff161415610cb1576040517f08c379a0000000000000000000000000000000000000000000000000000000008152600401610ca890613339565b60405180910390fd5b606860008373ffffffffffffffffffffffffffffffffffffffff1673ffffffffffffffffffffffffffffffffffffffff168152602001908152602001600020549050919050565b610d0061162e565b73ffffffffffffffffffffffffffffffffffffffff16610d1e610fcc565b73ffffffffffffffffffffffffffffffffffffffff1614610d74576040517f08c379a0000000000000000000000000000000000000000000000000000000008152600401610d6b906133d9565b60405180910390fd5b610d7e6000611b95565b565b60cd8054610d8d90613799565b80601f0160208091040260200160405190810160405280929190818152602001828054610db990613799565b8015610e065780601f10610ddb57610100808354040283529160200191610e06565b820191906000526020600020905b815481529060010190602001808311610de957829003601f168201915b505050505081565b610e1661162e565b73ffffffffffffffffffffffffffffffffffffffff16610e34610fcc565b73ffffffffffffffffffffffffffffffffffffffff1614610e8a576040517f08c379a0000000000000000000000000000000000000000000000000000000008152600401610e81906133d9565b60405180910390fd5b6000600160cc54610e9b9190613628565b90506101008484905060c9600084815260200190815260200160002080549050610ec59190613628565b1115610f06576040517f08c379a0000000000000000000000000000000000000000000000000000000008152600401610efd906133f9565b60405180910390fd5b60005b84849050811015610f5557610f4282868684818110610f2b57610f2a613903565b5b9050602002810190610f3d91906134c4565b611c5b565b8080610f4d906137fc565b915050610f09565b50868660cb60008481526020019081526020016000209190610f78929190612382565b508460ca60008381526020019081526020016000209080519060200190610fa0929190612408565b5060cc6000815480929190610fb4906137fc565b9190505550610fc38282611caf565b50505050505050565b6000609760009054906101000a900473ffffffffffffffffffffffffffffffffffffffff16905090565b600060019054906101000a900460ff1661101e5760008054906101000a900460ff1615611027565b611026611ccd565b5b611066576040517f08c379a000000000000000000000000000000000000000000000000000000000815260040161105d90613379565b60405180910390fd5b60008060019054906101000a900460ff1615905080156110b6576001600060016101000a81548160ff02191690831515021790555060016000806101000a81548160ff0219169083151502179055505b6110be611cde565b6110c784611460565b6110d18383611d3f565b8260cd90805190602001906110e792919061248e565b5080156111095760008060016101000a81548160ff0219169083151502179055505b50505050565b60606066805461111e90613799565b80601f016020809104026020016040519081016040528092919081815260200182805461114a90613799565b80156111975780601f1061116c57610100808354040283529160200191611197565b820191906000526020600020905b81548152906001019060200180831161117a57829003601f168201915b5050505050905090565b6111b36111ac61162e565b8383611dc0565b5050565b6111c86111c261162e565b836116ef565b611207576040517f08c379a00000000000000000000000000000000000000000000000000000000081526004016111fe90613439565b60405180910390fd5b61121384848484611f2d565b50505050565b6060611224826115c2565b611263576040517f08c379a000000000000000000000000000000000000000000000000000000000815260040161125a90613219565b60405180910390fd5b61126c82610aa9565b9050919050565b6000606a60008473ffffffffffffffffffffffffffffffffffffffff1673ffffffffffffffffffffffffffffffffffffffff16815260200190815260200160002060008373ffffffffffffffffffffffffffffffffffffffff1673ffffffffffffffffffffffffffffffffffffffff16815260200190815260200160002060009054906101000a900460ff16905092915050565b60ca602052806000526040600020600091509050805461132690613799565b80601f016020809104026020016040519081016040528092919081815260200182805461135290613799565b801561139f5780601f106113745761010080835404028352916020019161139f565b820191906000526020600020905b81548152906001019060200180831161138257829003601f168201915b505050505081565b60c960205281600052604060002081815481106113c357600080fd5b906000526020600020016000915091505080546113df90613799565b80601f016020809104026020016040519081016040528092919081815260200182805461140b90613799565b80156114585780601f1061142d57610100808354040283529160200191611458565b820191906000526020600020905b81548152906001019060200180831161143b57829003601f168201915b505050505081565b61146861162e565b73ffffffffffffffffffffffffffffffffffffffff16611486610fcc565b73ffffffffffffffffffffffffffffffffffffffff16146114dc576040517f08c379a00000000000000000000000000000000000000000000000000000000081526004016114d3906133d9565b60405180910390fd5b600073ffffffffffffffffffffffffffffffffffffffff168173ffffffffffffffffffffffffffffffffffffffff16141561154c576040517f08c379a000000000000000000000000000000000000000000000000000000000815260040161154390613259565b60405180910390fd5b61155581611b95565b50565b60007f01ffc9a7000000000000000000000000000000000000000000000000000000007bffffffffffffffffffffffffffffffffffffffffffffffffffffffff1916827bffffffffffffffffffffffffffffffffffffffffffffffffffffffff1916149050919050565b60008073ffffffffffffffffffffffffffffffffffffffff166067600084815260200190815260200160002060009054906101000a900473ffffffffffffffffffffffffffffffffffffffff1673ffffffffffffffffffffffffffffffffffffffff1614159050919050565b600033905090565b816069600083815260200190815260200160002060006101000a81548173ffffffffffffffffffffffffffffffffffffffff021916908373ffffffffffffffffffffffffffffffffffffffff160217905550808273ffffffffffffffffffffffffffffffffffffffff166116a983610b8e565b73ffffffffffffffffffffffffffffffffffffffff167f8c5be1e5ebec7d5bd14f71427d1e84f3dd0314c0f7b2291e5b200ac8c7c3b92560405160405180910390a45050565b60006116fa826115c2565b611739576040517f08c379a0000000000000000000000000000000000000000000000000000000008152600401611730906132f9565b60405180910390fd5b600061174483610b8e565b90508073ffffffffffffffffffffffffffffffffffffffff168473ffffffffffffffffffffffffffffffffffffffff1614806117b357508373ffffffffffffffffffffffffffffffffffffffff1661179b8461067c565b73ffffffffffffffffffffffffffffffffffffffff16145b806117c457506117c38185611273565b5b91505092915050565b8273ffffffffffffffffffffffffffffffffffffffff166117ed82610b8e565b73ffffffffffffffffffffffffffffffffffffffff1614611843576040517f08c379a000000000000000000000000000000000000000000000000000000000815260040161183a90613279565b60405180910390fd5b600073ffffffffffffffffffffffffffffffffffffffff168273ffffffffffffffffffffffffffffffffffffffff1614156118b3576040517f08c379a00000000000000000000000000000000000000000000000000000000081526004016118aa906132b9565b60405180910390fd5b6118be838383611f89565b6118c9600082611636565b6001606860008573ffffffffffffffffffffffffffffffffffffffff1673ffffffffffffffffffffffffffffffffffffffff168152602001908152602001600020600082825461191991906136af565b925050819055506001606860008473ffffffffffffffffffffffffffffffffffffffff1673ffffffffffffffffffffffffffffffffffffffff16815260200190815260200160002060008282546119709190613628565b92505081905550816067600083815260200190815260200160002060006101000a81548173ffffffffffffffffffffffffffffffffffffffff021916908373ffffffffffffffffffffffffffffffffffffffff160217905550808273ffffffffffffffffffffffffffffffffffffffff168473ffffffffffffffffffffffffffffffffffffffff167fddf252ad1be2c89b69c2b068fc378daa952ba7f163c4a11628f55a4df523b3ef60405160405180910390a4611a2f838383611f8e565b505050565b60606000821415611a7c576040518060400160405280600181526020017f30000000000000000000000000000000000000000000000000000000000000008152509050611b90565b600082905060005b60008214611aae578080611a97906137fc565b915050600a82611aa7919061367e565b9150611a84565b60008167ffffffffffffffff811115611aca57611ac9613932565b5b6040519080825280601f01601f191660200182016040528015611afc5781602001600182028036833780820191505090505b5090505b60008514611b8957600182611b1591906136af565b9150600a85611b249190613845565b6030611b309190613628565b60f81b818381518110611b4657611b45613903565b5b60200101907effffffffffffffffffffffffffffffffffffffffffffffffffffffffffffff1916908160001a905350600a85611b82919061367e565b9450611b00565b8093505050505b919050565b6000609760009054906101000a900473ffffffffffffffffffffffffffffffffffffffff16905081609760006101000a81548173ffffffffffffffffffffffffffffffffffffffff021916908373ffffffffffffffffffffffffffffffffffffffff1602179055508173ffffffffffffffffffffffffffffffffffffffff168173ffffffffffffffffffffffffffffffffffffffff167f8be0079c531659141344cd1fd0a4f28419497f9722a3daafe3b4186f6b6457e060405160405180910390a35050565b60c96000848152602001908152602001600020828290918060018154018082558091505060019003906000526020600020016000909192909192909192909192509190611ca9929190612382565b50505050565b611cc9828260405180602001604052806000815250611f93565b5050565b6000611cd830611fee565b15905090565b600060019054906101000a900460ff16611d2d576040517f08c379a0000000000000000000000000000000000000000000000000000000008152600401611d2490613459565b60405180910390fd5b611d3d611d3861162e565b611b95565b565b600060019054906101000a900460ff16611d8e576040517f08c379a0000000000000000000000000000000000000000000000000000000008152600401611d8590613459565b60405180910390fd5b8160659080519060200190611da492919061248e565b508060669080519060200190611dbb92919061248e565b505050565b8173ffffffffffffffffffffffffffffffffffffffff168373ffffffffffffffffffffffffffffffffffffffff161415611e2f576040517f08c379a0000000000000000000000000000000000000000000000000000000008152600401611e26906132d9565b60405180910390fd5b80606a60008573ffffffffffffffffffffffffffffffffffffffff1673ffffffffffffffffffffffffffffffffffffffff16815260200190815260200160002060008473ffffffffffffffffffffffffffffffffffffffff1673ffffffffffffffffffffffffffffffffffffffff16815260200190815260200160002060006101000a81548160ff0219169083151502179055508173ffffffffffffffffffffffffffffffffffffffff168373ffffffffffffffffffffffffffffffffffffffff167f17307eab39ab6107e8899845ad3d59bd9653f200f220920489ca2b5937696c3183604051611f2091906131ba565b60405180910390a3505050565b611f388484846117cd565b611f4484848484612011565b611f83576040517f08c379a0000000000000000000000000000000000000000000000000000000008152600401611f7a90613239565b60405180910390fd5b50505050565b505050565b505050565b611f9d83836121a8565b611faa6000848484612011565b611fe9576040517f08c379a0000000000000000000000000000000000000000000000000000000008152600401611fe090613239565b60405180910390fd5b505050565b6000808273ffffffffffffffffffffffffffffffffffffffff163b119050919050565b60006120328473ffffffffffffffffffffffffffffffffffffffff16611fee565b1561219b578373ffffffffffffffffffffffffffffffffffffffff1663150b7a0261205b61162e565b8786866040518563ffffffff1660e01b815260040161207d949392919061316e565b602060405180830381600087803b15801561209757600080fd5b505af19250505080156120c857506040513d601f19601f820116820180604052508101906120c59190612a11565b60015b61214b573d80600081146120f8576040519150601f19603f3d011682016040523d82523d6000602084013e6120fd565b606091505b50600081511415612143576040517f08c379a000000000000000000000000000000000000000000000000000000000815260040161213a90613239565b60405180910390fd5b805181602001fd5b63150b7a0260e01b7bffffffffffffffffffffffffffffffffffffffffffffffffffffffff1916817bffffffffffffffffffffffffffffffffffffffffffffffffffffffff1916149150506121a0565b600190505b949350505050565b600073ffffffffffffffffffffffffffffffffffffffff168273ffffffffffffffffffffffffffffffffffffffff161415612218576040517f08c379a000000000000000000000000000000000000000000000000000000000815260040161220f90613399565b60405180910390fd5b612221816115c2565b15612261576040517f08c379a000000000000000000000000000000000000000000000000000000000815260040161225890613299565b60405180910390fd5b61226d60008383611f89565b6001606860008473ffffffffffffffffffffffffffffffffffffffff1673ffffffffffffffffffffffffffffffffffffffff16815260200190815260200160002060008282546122bd9190613628565b92505081905550816067600083815260200190815260200160002060006101000a81548173ffffffffffffffffffffffffffffffffffffffff021916908373ffffffffffffffffffffffffffffffffffffffff160217905550808273ffffffffffffffffffffffffffffffffffffffff16600073ffffffffffffffffffffffffffffffffffffffff167fddf252ad1be2c89b69c2b068fc378daa952ba7f163c4a11628f55a4df523b3ef60405160405180910390a461237e60008383611f8e565b5050565b82805461238e90613799565b90600052602060002090601f0160209004810192826123b057600085556123f7565b82601f106123c957803560ff19168380011785556123f7565b828001600101855582156123f7579182015b828111156123f65782358255916020019190600101906123db565b5b5090506124049190612514565b5090565b82805461241490613799565b90600052602060002090601f016020900481019282612436576000855561247d565b82601f1061244f57805160ff191683800117855561247d565b8280016001018555821561247d579182015b8281111561247c578251825591602001919060010190612461565b5b50905061248a9190612514565b5090565b82805461249a90613799565b90600052602060002090601f0160209004810192826124bc5760008555612503565b82601f106124d557805160ff1916838001178555612503565b82800160010185558215612503579182015b828111156125025782518255916020019190600101906124e7565b5b5090506125109190612514565b5090565b5b8082111561252d576000816000905550600101612515565b5090565b600061254461253f8461354c565b613527565b9050828152602081018484840111156125605761255f61397f565b5b61256b848285613757565b509392505050565b60006125866125818461357d565b613527565b9050828152602081018484840111156125a2576125a161397f565b5b6125ad848285613757565b509392505050565b60006125c86125c38461357d565b613527565b9050828152602081018484840111156125e4576125e361397f565b5b6125ef848285613766565b509392505050565b60008135905061260681613ee7565b92915050565b60008083601f84011261262257612621613966565b5b8235905067ffffffffffffffff81111561263f5761263e613961565b5b60208301915083602082028301111561265b5761265a613975565b5b9250929050565b60008135905061267181613efe565b92915050565b60008135905061268681613f15565b92915050565b60008151905061269b81613f15565b92915050565b600082601f8301126126b6576126b5613966565b5b81356126c6848260208601612531565b91505092915050565b60008083601f8401126126e5576126e4613966565b5b8235905067ffffffffffffffff81111561270257612701613961565b5b60208301915083600182028301111561271e5761271d613975565b5b9250929050565b600082601f83011261273a57612739613966565b5b813561274a848260208601612573565b91505092915050565b600082601f83011261276857612767613966565b5b81516127788482602086016125b5565b91505092915050565b60008135905061279081613f2c565b92915050565b6000602082840312156127ac576127ab613989565b5b60006127ba848285016125f7565b91505092915050565b600080604083850312156127da576127d9613989565b5b60006127e8858286016125f7565b92505060206127f9858286016125f7565b9150509250929050565b60008060006060848603121561281c5761281b613989565b5b600061282a868287016125f7565b935050602061283b868287016125f7565b925050604061284c86828701612781565b9150509250925092565b600080600080608085870312156128705761286f613989565b5b600061287e878288016125f7565b945050602061288f878288016125f7565b93505060406128a087828801612781565b925050606085013567ffffffffffffffff8111156128c1576128c0613984565b5b6128cd878288016126a1565b91505092959194509250565b600080604083850312156128f0576128ef613989565b5b60006128fe858286016125f7565b925050602061290f85828601612662565b9150509250929050565b60008060006060848603121561293257612931613989565b5b6000612940868287016125f7565b935050602084013567ffffffffffffffff81111561296157612960613984565b5b61296d86828701612725565b925050604084013567ffffffffffffffff81111561298e5761298d613984565b5b61299a86828701612725565b9150509250925092565b600080604083850312156129bb576129ba613989565b5b60006129c9858286016125f7565b92505060206129da85828601612781565b9150509250929050565b6000602082840312156129fa576129f9613989565b5b6000612a0884828501612677565b91505092915050565b600060208284031215612a2757612a26613989565b5b6000612a358482850161268c565b91505092915050565b60008060008060008060808789031215612a5b57612a5a613989565b5b600087013567ffffffffffffffff811115612a7957612a78613984565b5b612a8589828a016126cf565b9650965050602087013567ffffffffffffffff811115612aa857612aa7613984565b5b612ab489828a016126a1565b945050604087013567ffffffffffffffff811115612ad557612ad4613984565b5b612ae189828a0161260c565b93509350506060612af489828a016125f7565b9150509295509295509295565b600060208284031215612b1757612b16613989565b5b600082015167ffffffffffffffff811115612b3557612b34613984565b5b612b4184828501612753565b91505092915050565b600080600060608486031215612b6357612b62613989565b5b600084013567ffffffffffffffff811115612b8157612b80613984565b5b612b8d86828701612725565b935050602084013567ffffffffffffffff811115612bae57612bad613984565b5b612bba86828701612725565b9250506040612bcb86828701612781565b9150509250925092565b600060208284031215612beb57612bea613989565b5b6000612bf984828501612781565b91505092915050565b60008060408385031215612c1957612c18613989565b5b6000612c2785828601612781565b9250506020612c3885828601612781565b9150509250929050565b612c4b816136e3565b82525050565b8082525050565b612c61816136f5565b82525050565b6000612c72826135c3565b612c7c81856135d9565b9350612c8c818560208601613766565b612c958161398e565b840191505092915050565b6000612cab826135c3565b612cb581856135ea565b9350612cc5818560208601613766565b612cce8161398e565b840191505092915050565b6000612ce4826135ce565b612cee81856135fb565b9350612cfe818560208601613766565b612d078161398e565b840191505092915050565b6000612d1d826135ce565b612d27818561360c565b9350612d37818560208601613766565b612d408161398e565b840191505092915050565b6000612d56826135ce565b612d60818561361d565b9350612d70818560208601613766565b80840191505092915050565b60008154612d8981613799565b612d93818661361d565b94506001821660008114612dae5760018114612dbf57612df2565b60ff19831686528186019350612df2565b612dc8856135ae565b60005b83811015612dea57815481890152600182019150602081019050612dcb565b838801955050505b50505092915050565b6000612e08601f836135fb565b9150612e138261399f565b602082019050919050565b6000612e2b6032836135fb565b9150612e36826139c8565b604082019050919050565b6000612e4e60028361361d565b9150612e5982613a17565b600282019050919050565b6000612e716026836135fb565b9150612e7c82613a40565b604082019050919050565b6000612e946025836135fb565b9150612e9f82613a8f565b604082019050919050565b6000612eb7601c836135fb565b9150612ec282613ade565b602082019050919050565b6000612eda6024836135fb565b9150612ee582613b07565b604082019050919050565b6000612efd6019836135fb565b9150612f0882613b56565b602082019050919050565b6000612f20602c836135fb565b9150612f2b82613b7f565b604082019050919050565b6000612f436038836135fb565b9150612f4e82613bce565b604082019050919050565b6000612f66602a836135fb565b9150612f7182613c1d565b604082019050919050565b6000612f896029836135fb565b9150612f9482613c6c565b604082019050919050565b6000612fac602e836135fb565b9150612fb782613cbb565b604082019050919050565b6000612fcf6020836135fb565b9150612fda82613d0a565b602082019050919050565b6000612ff2602c836135fb565b9150612ffd82613d33565b604082019050919050565b60006130156020836135fb565b915061302082613d82565b602082019050919050565b60006130386021836135fb565b915061304382613dab565b604082019050919050565b600061305b6021836135fb565b915061306682613dfa565b604082019050919050565b600061307e6031836135fb565b915061308982613e49565b604082019050919050565b60006130a1602b836135fb565b91506130ac82613e98565b604082019050919050565b600060608301600083015184820360008601526130d48282612d12565b915050602083015184820360208601526130ee8282612d12565b915050604083015184820360408601526131088282612ca0565b9150508091505092915050565b61311e8161374d565b82525050565b60006131308285612d7c565b915061313b82612e41565b91506131478284612d4b565b91508190509392505050565b60006020820190506131686000830184612c42565b92915050565b60006080820190506131836000830187612c42565b6131906020830186612c42565b61319d6040830185613115565b81810360608301526131af8184612c67565b905095945050505050565b60006020820190506131cf6000830184612c58565b92915050565b600060208201905081810360008301526131ef8184612c67565b905092915050565b600060208201905081810360008301526132118184612cd9565b905092915050565b6000602082019050818103600083015261323281612dfb565b9050919050565b6000602082019050818103600083015261325281612e1e565b9050919050565b6000602082019050818103600083015261327281612e64565b9050919050565b6000602082019050818103600083015261329281612e87565b9050919050565b600060208201905081810360008301526132b281612eaa565b9050919050565b600060208201905081810360008301526132d281612ecd565b9050919050565b600060208201905081810360008301526132f281612ef0565b9050919050565b6000602082019050818103600083015261331281612f13565b9050919050565b6000602082019050818103600083015261333281612f36565b9050919050565b6000602082019050818103600083015261335281612f59565b9050919050565b6000602082019050818103600083015261337281612f7c565b9050919050565b6000602082019050818103600083015261339281612f9f565b9050919050565b600060208201905081810360008301526133b281612fc2565b9050919050565b600060208201905081810360008301526133d281612fe5565b9050919050565b600060208201905081810360008301526133f281613008565b9050919050565b600060208201905081810360008301526134128161302b565b9050919050565b600060208201905081810360008301526134328161304e565b9050919050565b6000602082019050818103600083015261345281613071565b9050919050565b6000602082019050818103600083015261347281613094565b9050919050565b6000604082019050818103600083015261349381856130b7565b90506134a26020830184612c51565b9392505050565b60006020820190506134be6000830184613115565b92915050565b600080833560016020038436030381126134e1576134e0613970565b5b80840192508235915067ffffffffffffffff8211156135035761350261396b565b5b60208301925060018202360383131561351f5761351e61397a565b5b509250929050565b6000613531613542565b905061353d82826137cb565b919050565b6000604051905090565b600067ffffffffffffffff82111561356757613566613932565b5b6135708261398e565b9050602081019050919050565b600067ffffffffffffffff82111561359857613597613932565b5b6135a18261398e565b9050602081019050919050565b60008190508160005260206000209050919050565b600081519050919050565b600081519050919050565b600082825260208201905092915050565b600082825260208201905092915050565b600082825260208201905092915050565b600082825260208201905092915050565b600081905092915050565b60006136338261374d565b915061363e8361374d565b9250827fffffffffffffffffffffffffffffffffffffffffffffffffffffffffffffffff0382111561367357613672613876565b5b828201905092915050565b60006136898261374d565b91506136948361374d565b9250826136a4576136a36138a5565b5b828204905092915050565b60006136ba8261374d565b91506136c58361374d565b9250828210156136d8576136d7613876565b5b828203905092915050565b60006136ee8261372d565b9050919050565b60008115159050919050565b60007fffffffff0000000000000000000000000000000000000000000000000000000082169050919050565b600073ffffffffffffffffffffffffffffffffffffffff82169050919050565b6000819050919050565b82818337600083830152505050565b60005b83811015613784578082015181840152602081019050613769565b83811115613793576000848401525b50505050565b600060028204905060018216806137b157607f821691505b602082108114156137c5576137c46138d4565b5b50919050565b6137d48261398e565b810181811067ffffffffffffffff821117156137f3576137f2613932565b5b80604052505050565b60006138078261374d565b91507fffffffffffffffffffffffffffffffffffffffffffffffffffffffffffffffff82141561383a57613839613876565b5b600182019050919050565b60006138508261374d565b915061385b8361374d565b92508261386b5761386a6138a5565b5b828206905092915050565b7f4e487b7100000000000000000000000000000000000000000000000000000000600052601160045260246000fd5b7f4e487b7100000000000000000000000000000000000000000000000000000000600052601260045260246000fd5b7f4e487b7100000000000000000000000000000000000000000000000000000000600052602260045260246000fd5b7f4e487b7100000000000000000000000000000000000000000000000000000000600052603260045260246000fd5b7f4e487b7100000000000000000000000000000000000000000000000000000000600052604160045260246000fd5b600080fd5b600080fd5b600080fd5b600080fd5b600080fd5b600080fd5b600080fd5b600080fd5b600080fd5b6000601f19601f8301169050919050565b7f55524920717565727920666f72206e6f6e6578697374656e7420746f6b656e00600082015250565b7f4552433732313a207472616e7366657220746f206e6f6e20455243373231526560008201527f63656976657220696d706c656d656e7465720000000000000000000000000000602082015250565b7f2023000000000000000000000000000000000000000000000000000000000000600082015250565b7f4f776e61626c653a206e6577206f776e657220697320746865207a65726f206160008201527f6464726573730000000000000000000000000000000000000000000000000000602082015250565b7f4552433732313a207472616e736665722066726f6d20696e636f72726563742060008201527f6f776e6572000000000000000000000000000000000000000000000000000000602082015250565b7f4552433732313a20746f6b656e20616c7265616479206d696e74656400000000600082015250565b7f4552433732313a207472616e7366657220746f20746865207a65726f2061646460008201527f7265737300000000000000000000000000000000000000000000000000000000602082015250565b7f4552433732313a20617070726f766520746f2063616c6c657200000000000000600082015250565b7f4552433732313a206f70657261746f7220717565727920666f72206e6f6e657860008201527f697374656e7420746f6b656e0000000000000000000000000000000000000000602082015250565b7f4552433732313a20617070726f76652063616c6c6572206973206e6f74206f7760008201527f6e6572206e6f7220617070726f76656420666f7220616c6c0000000000000000602082015250565b7f4552433732313a2062616c616e636520717565727920666f7220746865207a6560008201527f726f206164647265737300000000000000000000000000000000000000000000602082015250565b7f4552433732313a206f776e657220717565727920666f72206e6f6e657869737460008201527f656e7420746f6b656e0000000000000000000000000000000000000000000000602082015250565b7f496e697469616c697a61626c653a20636f6e747261637420697320616c72656160008201527f647920696e697469616c697a6564000000000000000000000000000000000000602082015250565b7f4552433732313a206d696e7420746f20746865207a65726f2061646472657373600082015250565b7f4552433732313a20617070726f76656420717565727920666f72206e6f6e657860008201527f697374656e7420746f6b656e0000000000000000000000000000000000000000602082015250565b7f4f776e61626c653a2063616c6c6572206973206e6f7420746865206f776e6572600082015250565b7f50616c65747465732063616e206f6e6c7920686f6c642032353620636f6c6f7260008201527f7300000000000000000000000000000000000000000000000000000000000000602082015250565b7f4552433732313a20617070726f76616c20746f2063757272656e74206f776e6560008201527f7200000000000000000000000000000000000000000000000000000000000000602082015250565b7f4552433732313a207472616e736665722063616c6c6572206973206e6f74206f60008201527f776e6572206e6f7220617070726f766564000000000000000000000000000000602082015250565b7f496e697469616c697a61626c653a20636f6e7472616374206973206e6f74206960008201527f6e697469616c697a696e67000000000000000000000000000000000000000000602082015250565b613ef0816136e3565b8114613efb57600080fd5b50565b613f07816136f5565b8114613f1257600080fd5b50565b613f1e81613701565b8114613f2957600080fd5b50565b613f358161374d565b8114613f4057600080fd5b5056fea2646970667358221220add4ee092375c0b7278027adee36227f0aa2ab74e2f295f2356586c8a1dcab3464736f6c63430008060033",
  "libraries": {
    "NFTDescriptor": "0x4F9D47bA2c7117bfdda70F54CEE6a44DE569EF6D"
  },
  "devdoc": {
    "kind": "dev",
    "methods": {
      "approve(address,uint256)": {
        "details": "See {IERC721-approve}."
      },
      "balanceOf(address)": {
        "details": "See {IERC721-balanceOf}."
      },
      "getApproved(uint256)": {
        "details": "See {IERC721-getApproved}."
      },
      "isApprovedForAll(address,address)": {
        "details": "See {IERC721-isApprovedForAll}."
      },
      "name()": {
        "details": "See {IERC721Metadata-name}."
      },
      "owner()": {
        "details": "Returns the address of the current owner."
      },
      "ownerOf(uint256)": {
        "details": "See {IERC721-ownerOf}."
      },
      "renounceOwnership()": {
        "details": "Leaves the contract without owner. It will not be possible to call `onlyOwner` functions anymore. Can only be called by the current owner. NOTE: Renouncing ownership will leave the contract without an owner, thereby removing any functionality that is only available to the owner."
      },
      "safeTransferFrom(address,address,uint256)": {
        "details": "See {IERC721-safeTransferFrom}."
      },
      "safeTransferFrom(address,address,uint256,bytes)": {
        "details": "See {IERC721-safeTransferFrom}."
      },
      "setApprovalForAll(address,bool)": {
        "details": "See {IERC721-setApprovalForAll}."
      },
      "supportsInterface(bytes4)": {
        "details": "See {IERC165-supportsInterface}."
      },
      "symbol()": {
        "details": "See {IERC721Metadata-symbol}."
      },
      "tokenURI(uint256)": {
        "details": "See {IERC721Metadata-tokenURI}."
      },
      "transferFrom(address,address,uint256)": {
        "details": "See {IERC721-transferFrom}."
      },
      "transferOwnership(address)": {
        "details": "Transfers ownership of the contract to a new account (`newOwner`). Can only be called by the current owner."
      }
    },
    "version": 1
  },
  "userdoc": {
    "kind": "user",
    "methods": {
      "dataURI(uint256)": {
        "notice": "Given a token ID and seed, construct a base64 encoded data URI for an official Nouns DAO noun."
      },
      "genericDataURI(string,string,uint256)": {
        "notice": "Given a name, description, and seed, construct a base64 encoded data URI."
      }
    },
    "version": 1
  },
  "storageLayout": {
    "storage": [
      {
        "astId": 130,
        "contract": "contracts/FllnchnMold.sol:FllnchnMold",
        "label": "_initialized",
        "offset": 0,
        "slot": "0",
        "type": "t_bool"
      },
      {
        "astId": 133,
        "contract": "contracts/FllnchnMold.sol:FllnchnMold",
        "label": "_initializing",
        "offset": 1,
        "slot": "0",
        "type": "t_bool"
      },
      {
        "astId": 1533,
        "contract": "contracts/FllnchnMold.sol:FllnchnMold",
        "label": "__gap",
        "offset": 0,
        "slot": "1",
        "type": "t_array(t_uint256)50_storage"
      },
      {
        "astId": 1780,
        "contract": "contracts/FllnchnMold.sol:FllnchnMold",
        "label": "__gap",
        "offset": 0,
        "slot": "51",
        "type": "t_array(t_uint256)50_storage"
      },
      {
        "astId": 226,
        "contract": "contracts/FllnchnMold.sol:FllnchnMold",
        "label": "_name",
        "offset": 0,
        "slot": "101",
        "type": "t_string_storage"
      },
      {
        "astId": 228,
        "contract": "contracts/FllnchnMold.sol:FllnchnMold",
        "label": "_symbol",
        "offset": 0,
        "slot": "102",
        "type": "t_string_storage"
      },
      {
        "astId": 232,
        "contract": "contracts/FllnchnMold.sol:FllnchnMold",
        "label": "_owners",
        "offset": 0,
        "slot": "103",
        "type": "t_mapping(t_uint256,t_address)"
      },
      {
        "astId": 236,
        "contract": "contracts/FllnchnMold.sol:FllnchnMold",
        "label": "_balances",
        "offset": 0,
        "slot": "104",
        "type": "t_mapping(t_address,t_uint256)"
      },
      {
        "astId": 240,
        "contract": "contracts/FllnchnMold.sol:FllnchnMold",
        "label": "_tokenApprovals",
        "offset": 0,
        "slot": "105",
        "type": "t_mapping(t_uint256,t_address)"
      },
      {
        "astId": 246,
        "contract": "contracts/FllnchnMold.sol:FllnchnMold",
        "label": "_operatorApprovals",
        "offset": 0,
        "slot": "106",
        "type": "t_mapping(t_address,t_mapping(t_address,t_bool))"
      },
      {
        "astId": 1087,
        "contract": "contracts/FllnchnMold.sol:FllnchnMold",
        "label": "__gap",
        "offset": 0,
        "slot": "107",
        "type": "t_array(t_uint256)44_storage"
      },
      {
        "astId": 10,
        "contract": "contracts/FllnchnMold.sol:FllnchnMold",
        "label": "_owner",
        "offset": 0,
        "slot": "151",
        "type": "t_address"
      },
      {
        "astId": 122,
        "contract": "contracts/FllnchnMold.sol:FllnchnMold",
        "label": "__gap",
        "offset": 0,
        "slot": "152",
        "type": "t_array(t_uint256)49_storage"
      },
      {
        "astId": 2385,
        "contract": "contracts/FllnchnMold.sol:FllnchnMold",
        "label": "palettes",
        "offset": 0,
        "slot": "201",
        "type": "t_mapping(t_uint256,t_array(t_string_storage)dyn_storage)"
      },
      {
        "astId": 2389,
        "contract": "contracts/FllnchnMold.sol:FllnchnMold",
        "label": "seeds",
        "offset": 0,
        "slot": "202",
        "type": "t_mapping(t_uint256,t_bytes_storage)"
      },
      {
        "astId": 2393,
        "contract": "contracts/FllnchnMold.sol:FllnchnMold",
        "label": "names",
        "offset": 0,
        "slot": "203",
        "type": "t_mapping(t_uint256,t_string_storage)"
      },
      {
        "astId": 2395,
        "contract": "contracts/FllnchnMold.sol:FllnchnMold",
        "label": "_totalSupply",
        "offset": 0,
        "slot": "204",
        "type": "t_uint256"
      },
      {
        "astId": 2397,
        "contract": "contracts/FllnchnMold.sol:FllnchnMold",
        "label": "contractName",
        "offset": 0,
        "slot": "205",
        "type": "t_string_storage"
      }
    ],
    "types": {
      "t_address": {
        "encoding": "inplace",
        "label": "address",
        "numberOfBytes": "20"
      },
      "t_array(t_string_storage)dyn_storage": {
        "base": "t_string_storage",
        "encoding": "dynamic_array",
        "label": "string[]",
        "numberOfBytes": "32"
      },
      "t_array(t_uint256)44_storage": {
        "base": "t_uint256",
        "encoding": "inplace",
        "label": "uint256[44]",
        "numberOfBytes": "1408"
      },
      "t_array(t_uint256)49_storage": {
        "base": "t_uint256",
        "encoding": "inplace",
        "label": "uint256[49]",
        "numberOfBytes": "1568"
      },
      "t_array(t_uint256)50_storage": {
        "base": "t_uint256",
        "encoding": "inplace",
        "label": "uint256[50]",
        "numberOfBytes": "1600"
      },
      "t_bool": {
        "encoding": "inplace",
        "label": "bool",
        "numberOfBytes": "1"
      },
      "t_bytes_storage": {
        "encoding": "bytes",
        "label": "bytes",
        "numberOfBytes": "32"
      },
      "t_mapping(t_address,t_bool)": {
        "encoding": "mapping",
        "key": "t_address",
        "label": "mapping(address => bool)",
        "numberOfBytes": "32",
        "value": "t_bool"
      },
      "t_mapping(t_address,t_mapping(t_address,t_bool))": {
        "encoding": "mapping",
        "key": "t_address",
        "label": "mapping(address => mapping(address => bool))",
        "numberOfBytes": "32",
        "value": "t_mapping(t_address,t_bool)"
      },
      "t_mapping(t_address,t_uint256)": {
        "encoding": "mapping",
        "key": "t_address",
        "label": "mapping(address => uint256)",
        "numberOfBytes": "32",
        "value": "t_uint256"
      },
      "t_mapping(t_uint256,t_address)": {
        "encoding": "mapping",
        "key": "t_uint256",
        "label": "mapping(uint256 => address)",
        "numberOfBytes": "32",
        "value": "t_address"
      },
      "t_mapping(t_uint256,t_array(t_string_storage)dyn_storage)": {
        "encoding": "mapping",
        "key": "t_uint256",
        "label": "mapping(uint256 => string[])",
        "numberOfBytes": "32",
        "value": "t_array(t_string_storage)dyn_storage"
      },
      "t_mapping(t_uint256,t_bytes_storage)": {
        "encoding": "mapping",
        "key": "t_uint256",
        "label": "mapping(uint256 => bytes)",
        "numberOfBytes": "32",
        "value": "t_bytes_storage"
      },
      "t_mapping(t_uint256,t_string_storage)": {
        "encoding": "mapping",
        "key": "t_uint256",
        "label": "mapping(uint256 => string)",
        "numberOfBytes": "32",
        "value": "t_string_storage"
      },
      "t_string_storage": {
        "encoding": "bytes",
        "label": "string",
        "numberOfBytes": "32"
      },
      "t_uint256": {
        "encoding": "inplace",
        "label": "uint256",
        "numberOfBytes": "32"
      }
    }
  }
}