{
  "address": "0x7554b6ff91C4cB93d4FD47Ac7A67fa0932A3635E",
  "abi": [
    {
      "inputs": [
        {
          "internalType": "string",
          "name": "name",
          "type": "string"
        },
        {
          "internalType": "string",
          "name": "symbol",
          "type": "string"
        }
      ],
      "stateMutability": "nonpayable",
      "type": "constructor"
    },
    {
      "anonymous": false,
      "inputs": [
        {
          "indexed": true,
          "internalType": "address",
          "name": "owner",
          "type": "address"
        },
        {
          "indexed": true,
          "internalType": "address",
          "name": "approved",
          "type": "address"
        },
        {
          "indexed": true,
          "internalType": "uint256",
          "name": "tokenId",
          "type": "uint256"
        }
      ],
      "name": "Approval",
      "type": "event"
    },
    {
      "anonymous": false,
      "inputs": [
        {
          "indexed": true,
          "internalType": "address",
          "name": "owner",
          "type": "address"
        },
        {
          "indexed": true,
          "internalType": "address",
          "name": "operator",
          "type": "address"
        },
        {
          "indexed": false,
          "internalType": "bool",
          "name": "approved",
          "type": "bool"
        }
      ],
      "name": "ApprovalForAll",
      "type": "event"
    },
    {
      "anonymous": false,
      "inputs": [
        {
          "indexed": true,
          "internalType": "address",
          "name": "previousOwner",
          "type": "address"
        },
        {
          "indexed": true,
          "internalType": "address",
          "name": "newOwner",
          "type": "address"
        }
      ],
      "name": "OwnershipTransferred",
      "type": "event"
    },
    {
      "anonymous": false,
      "inputs": [
        {
          "indexed": true,
          "internalType": "address",
          "name": "from",
          "type": "address"
        },
        {
          "indexed": true,
          "internalType": "address",
          "name": "to",
          "type": "address"
        },
        {
          "indexed": true,
          "internalType": "uint256",
          "name": "tokenId",
          "type": "uint256"
        }
      ],
      "name": "Transfer",
      "type": "event"
    },
    {
      "inputs": [
        {
          "internalType": "address",
          "name": "to",
          "type": "address"
        },
        {
          "internalType": "uint256",
          "name": "tokenId",
          "type": "uint256"
        }
      ],
      "name": "approve",
      "outputs": [],
      "stateMutability": "nonpayable",
      "type": "function"
    },
    {
      "inputs": [
        {
          "internalType": "address",
          "name": "owner",
          "type": "address"
        }
      ],
      "name": "balanceOf",
      "outputs": [
        {
          "internalType": "uint256",
          "name": "",
          "type": "uint256"
        }
      ],
      "stateMutability": "view",
      "type": "function"
    },
    {
      "inputs": [
        {
          "internalType": "uint256",
          "name": "tokenId",
          "type": "uint256"
        }
      ],
      "name": "dataURI",
      "outputs": [
        {
          "internalType": "string",
          "name": "",
          "type": "string"
        }
      ],
      "stateMutability": "view",
      "type": "function"
    },
    {
      "inputs": [
        {
          "internalType": "string",
          "name": "name",
          "type": "string"
        },
        {
          "internalType": "string",
          "name": "description",
          "type": "string"
        },
        {
          "internalType": "uint256",
          "name": "tokenId",
          "type": "uint256"
        }
      ],
      "name": "genericDataURI",
      "outputs": [
        {
          "internalType": "string",
          "name": "",
          "type": "string"
        }
      ],
      "stateMutability": "view",
      "type": "function"
    },
    {
      "inputs": [
        {
          "internalType": "uint256",
          "name": "tokenId",
          "type": "uint256"
        }
      ],
      "name": "getApproved",
      "outputs": [
        {
          "internalType": "address",
          "name": "",
          "type": "address"
        }
      ],
      "stateMutability": "view",
      "type": "function"
    },
    {
      "inputs": [
        {
          "internalType": "address",
          "name": "owner",
          "type": "address"
        },
        {
          "internalType": "address",
          "name": "operator",
          "type": "address"
        }
      ],
      "name": "isApprovedForAll",
      "outputs": [
        {
          "internalType": "bool",
          "name": "",
          "type": "bool"
        }
      ],
      "stateMutability": "view",
      "type": "function"
    },
    {
      "inputs": [
        {
          "internalType": "uint256",
          "name": "tokenId",
          "type": "uint256"
        },
        {
          "internalType": "string",
          "name": "name",
          "type": "string"
        },
        {
          "internalType": "bytes",
          "name": "seed",
          "type": "bytes"
        },
        {
          "internalType": "string[]",
          "name": "colors",
          "type": "string[]"
        },
        {
          "internalType": "address",
          "name": "toAddress",
          "type": "address"
        }
      ],
      "name": "mintDrool",
      "outputs": [],
      "stateMutability": "nonpayable",
      "type": "function"
    },
    {
      "inputs": [],
      "name": "name",
      "outputs": [
        {
          "internalType": "string",
          "name": "",
          "type": "string"
        }
      ],
      "stateMutability": "view",
      "type": "function"
    },
    {
      "inputs": [
        {
          "internalType": "uint256",
          "name": "",
          "type": "uint256"
        }
      ],
      "name": "names",
      "outputs": [
        {
          "internalType": "string",
          "name": "",
          "type": "string"
        }
      ],
      "stateMutability": "view",
      "type": "function"
    },
    {
      "inputs": [],
      "name": "owner",
      "outputs": [
        {
          "internalType": "address",
          "name": "",
          "type": "address"
        }
      ],
      "stateMutability": "view",
      "type": "function"
    },
    {
      "inputs": [
        {
          "internalType": "uint256",
          "name": "tokenId",
          "type": "uint256"
        }
      ],
      "name": "ownerOf",
      "outputs": [
        {
          "internalType": "address",
          "name": "",
          "type": "address"
        }
      ],
      "stateMutability": "view",
      "type": "function"
    },
    {
      "inputs": [
        {
          "internalType": "uint256",
          "name": "",
          "type": "uint256"
        },
        {
          "internalType": "uint256",
          "name": "",
          "type": "uint256"
        }
      ],
      "name": "palettes",
      "outputs": [
        {
          "internalType": "string",
          "name": "",
          "type": "string"
        }
      ],
      "stateMutability": "view",
      "type": "function"
    },
    {
      "inputs": [],
      "name": "renounceOwnership",
      "outputs": [],
      "stateMutability": "nonpayable",
      "type": "function"
    },
    {
      "inputs": [
        {
          "internalType": "address",
          "name": "from",
          "type": "address"
        },
        {
          "internalType": "address",
          "name": "to",
          "type": "address"
        },
        {
          "internalType": "uint256",
          "name": "tokenId",
          "type": "uint256"
        }
      ],
      "name": "safeTransferFrom",
      "outputs": [],
      "stateMutability": "nonpayable",
      "type": "function"
    },
    {
      "inputs": [
        {
          "internalType": "address",
          "name": "from",
          "type": "address"
        },
        {
          "internalType": "address",
          "name": "to",
          "type": "address"
        },
        {
          "internalType": "uint256",
          "name": "tokenId",
          "type": "uint256"
        },
        {
          "internalType": "bytes",
          "name": "_data",
          "type": "bytes"
        }
      ],
      "name": "safeTransferFrom",
      "outputs": [],
      "stateMutability": "nonpayable",
      "type": "function"
    },
    {
      "inputs": [
        {
          "internalType": "uint256",
          "name": "",
          "type": "uint256"
        }
      ],
      "name": "seeds",
      "outputs": [
        {
          "internalType": "bytes",
          "name": "",
          "type": "bytes"
        }
      ],
      "stateMutability": "view",
      "type": "function"
    },
    {
      "inputs": [
        {
          "internalType": "address",
          "name": "operator",
          "type": "address"
        },
        {
          "internalType": "bool",
          "name": "approved",
          "type": "bool"
        }
      ],
      "name": "setApprovalForAll",
      "outputs": [],
      "stateMutability": "nonpayable",
      "type": "function"
    },
    {
      "inputs": [
        {
          "internalType": "bytes4",
          "name": "interfaceId",
          "type": "bytes4"
        }
      ],
      "name": "supportsInterface",
      "outputs": [
        {
          "internalType": "bool",
          "name": "",
          "type": "bool"
        }
      ],
      "stateMutability": "view",
      "type": "function"
    },
    {
      "inputs": [],
      "name": "symbol",
      "outputs": [
        {
          "internalType": "string",
          "name": "",
          "type": "string"
        }
      ],
      "stateMutability": "view",
      "type": "function"
    },
    {
      "inputs": [
        {
          "internalType": "uint256",
          "name": "tokenId",
          "type": "uint256"
        }
      ],
      "name": "tokenURI",
      "outputs": [
        {
          "internalType": "string",
          "name": "",
          "type": "string"
        }
      ],
      "stateMutability": "view",
      "type": "function"
    },
    {
      "inputs": [],
      "name": "totalSupply",
      "outputs": [
        {
          "internalType": "uint256",
          "name": "",
          "type": "uint256"
        }
      ],
      "stateMutability": "view",
      "type": "function"
    },
    {
      "inputs": [
        {
          "internalType": "address",
          "name": "from",
          "type": "address"
        },
        {
          "internalType": "address",
          "name": "to",
          "type": "address"
        },
        {
          "internalType": "uint256",
          "name": "tokenId",
          "type": "uint256"
        }
      ],
      "name": "transferFrom",
      "outputs": [],
      "stateMutability": "nonpayable",
      "type": "function"
    },
    {
      "inputs": [
        {
          "internalType": "address",
          "name": "newOwner",
          "type": "address"
        }
      ],
      "name": "transferOwnership",
      "outputs": [],
      "stateMutability": "nonpayable",
      "type": "function"
    }
  ],
  "transactionHash": "0x35803b2cf8441dbfc052deb834d8416e43558db7fe0ecaf92cc8a91588e1a285",
  "args": [
    "PixelsOnchained",
    "POT"
  ],
  "numDeployments": 1,
  "solcInputHash": "72ef18ddab4dc717f48a223819a23207",
  "bytecode": "0x60806040523480156200001157600080fd5b5060405162003dd638038062003dd6833981810160405281019062000037919062000291565b818181600090805190602001906200005192919062000163565b5080600190805190602001906200006a92919062000163565b5050506200008d620000816200009560201b60201c565b6200009d60201b60201c565b50506200049a565b600033905090565b6000600660009054906101000a900473ffffffffffffffffffffffffffffffffffffffff16905081600660006101000a81548173ffffffffffffffffffffffffffffffffffffffff021916908373ffffffffffffffffffffffffffffffffffffffff1602179055508173ffffffffffffffffffffffffffffffffffffffff168173ffffffffffffffffffffffffffffffffffffffff167f8be0079c531659141344cd1fd0a4f28419497f9722a3daafe3b4186f6b6457e060405160405180910390a35050565b8280546200017190620003ab565b90600052602060002090601f016020900481019282620001955760008555620001e1565b82601f10620001b057805160ff1916838001178555620001e1565b82800160010185558215620001e1579182015b82811115620001e0578251825591602001919060010190620001c3565b5b509050620001f09190620001f4565b5090565b5b808211156200020f576000816000905550600101620001f5565b5090565b60006200022a62000224846200033f565b62000316565b9050828152602081018484840111156200024957620002486200047a565b5b6200025684828562000375565b509392505050565b600082601f83011262000276576200027562000475565b5b81516200028884826020860162000213565b91505092915050565b60008060408385031215620002ab57620002aa62000484565b5b600083015167ffffffffffffffff811115620002cc57620002cb6200047f565b5b620002da858286016200025e565b925050602083015167ffffffffffffffff811115620002fe57620002fd6200047f565b5b6200030c858286016200025e565b9150509250929050565b60006200032262000335565b9050620003308282620003e1565b919050565b6000604051905090565b600067ffffffffffffffff8211156200035d576200035c62000446565b5b620003688262000489565b9050602081019050919050565b60005b838110156200039557808201518184015260208101905062000378565b83811115620003a5576000848401525b50505050565b60006002820490506001821680620003c457607f821691505b60208210811415620003db57620003da62000417565b5b50919050565b620003ec8262000489565b810181811067ffffffffffffffff821117156200040e576200040d62000446565b5b80604052505050565b7f4e487b7100000000000000000000000000000000000000000000000000000000600052602260045260246000fd5b7f4e487b7100000000000000000000000000000000000000000000000000000000600052604160045260246000fd5b600080fd5b600080fd5b600080fd5b600080fd5b6000601f19601f8301169050919050565b61392c80620004aa6000396000f3fe608060405234801561001057600080fd5b506004361061014d5760003560e01c806370a08231116100c3578063c87b56dd1161007c578063c87b56dd146103b0578063e985e9c5146103e0578063ea81824d14610410578063f0503e801461042c578063f1dc193a1461045c578063f2fde38b1461048c5761014d565b806370a0823114610302578063715018a6146103325780638da5cb5b1461033c57806395d89b411461035a578063a22cb46514610378578063b88d4fde146103945761014d565b80631958634811610115578063195863481461020a57806323b872dd1461023a57806342842e0e146102565780634622ab03146102725780635ac1e3bb146102a25780636352211e146102d25761014d565b806301ffc9a71461015257806306fdde0314610182578063081812fc146101a0578063095ea7b3146101d057806318160ddd146101ec575b600080fd5b61016c60048036038101906101679190612521565b6104a8565b6040516101799190612c3a565b60405180910390f35b61018a61058a565b6040516101979190612c77565b60405180910390f35b6101ba60048036038101906101b5919061264f565b61061c565b6040516101c79190612bd3565b60405180910390f35b6101ea60048036038101906101e591906124e1565b6106a1565b005b6101f46107b9565b6040516102019190612ee9565b60405180910390f35b610224600480360381019061021f91906125c4565b6107c3565b6040516102319190612c77565b60405180910390f35b610254600480360381019061024f91906123cb565b610929565b005b610270600480360381019061026b91906123cb565b610989565b005b61028c6004803603810190610287919061264f565b6109a9565b6040516102999190612c77565b60405180910390f35b6102bc60048036038101906102b7919061264f565b610a49565b6040516102c99190612c77565b60405180910390f35b6102ec60048036038101906102e7919061264f565b610b31565b6040516102f99190612bd3565b60405180910390f35b61031c6004803603810190610317919061235e565b610be3565b6040516103299190612ee9565b60405180910390f35b61033a610c9b565b005b610344610d23565b6040516103519190612bd3565b60405180910390f35b610362610d4d565b60405161036f9190612c77565b60405180910390f35b610392600480360381019061038d91906124a1565b610ddf565b005b6103ae60048036038101906103a9919061241e565b610df5565b005b6103ca60048036038101906103c5919061264f565b610e57565b6040516103d79190612c77565b60405180910390f35b6103fa60048036038101906103f5919061238b565b610eb1565b6040516104079190612c3a565b60405180910390f35b61042a6004803603810190610425919061267c565b610f45565b005b6104466004803603810190610441919061264f565b611074565b6040516104539190612c55565b60405180910390f35b61047660048036038101906104719190612754565b611114565b6040516104839190612c77565b60405180910390f35b6104a660048036038101906104a1919061235e565b6111cd565b005b60007f80ac58cd000000000000000000000000000000000000000000000000000000007bffffffffffffffffffffffffffffffffffffffffffffffffffffffff1916827bffffffffffffffffffffffffffffffffffffffffffffffffffffffff1916148061057357507f5b5e139f000000000000000000000000000000000000000000000000000000007bffffffffffffffffffffffffffffffffffffffffffffffffffffffff1916827bffffffffffffffffffffffffffffffffffffffffffffffffffffffff1916145b806105835750610582826112c5565b5b9050919050565b606060008054610599906131c4565b80601f01602080910402602001604051908101604052809291908181526020018280546105c5906131c4565b80156106125780601f106105e757610100808354040283529160200191610612565b820191906000526020600020905b8154815290600101906020018083116105f557829003601f168201915b5050505050905090565b60006106278261132f565b610666576040517f08c379a000000000000000000000000000000000000000000000000000000000815260040161065d90612df9565b60405180910390fd5b6004600083815260200190815260200160002060009054906101000a900473ffffffffffffffffffffffffffffffffffffffff169050919050565b60006106ac82610b31565b90508073ffffffffffffffffffffffffffffffffffffffff168373ffffffffffffffffffffffffffffffffffffffff16141561071d576040517f08c379a000000000000000000000000000000000000000000000000000000000815260040161071490612e79565b60405180910390fd5b8073ffffffffffffffffffffffffffffffffffffffff1661073c61139b565b73ffffffffffffffffffffffffffffffffffffffff16148061076b575061076a8161076561139b565b610eb1565b5b6107aa576040517f08c379a00000000000000000000000000000000000000000000000000000000081526004016107a190612d59565b60405180910390fd5b6107b483836113a3565b505050565b6000600a54905090565b6060600060405180606001604052808681526020018581526020016008600086815260200190815260200160002080546107fc906131c4565b80601f0160208091040260200160405190810160405280929190818152602001828054610828906131c4565b80156108755780601f1061084a57610100808354040283529160200191610875565b820191906000526020600020905b81548152906001019060200180831161085857829003601f168201915b505050505081525090507386D613c80Af3078c24F6ba216F5Aa20d4AfB092B636c2a0e3c82600760008781526020019081526020016000206040518363ffffffff1660e01b81526004016108ca929190612eb9565b60006040518083038186803b1580156108e257600080fd5b505af41580156108f6573d6000803e3d6000fd5b505050506040513d6000823e3d601f19601f8201168201806040525081019061091f919061257b565b9150509392505050565b61093a61093461139b565b8261145c565b610979576040517f08c379a000000000000000000000000000000000000000000000000000000000815260040161097090612e99565b60405180910390fd5b61098483838361153a565b505050565b6109a483838360405180602001604052806000815250610df5565b505050565b600960205280600052604060002060009150905080546109c8906131c4565b80601f01602080910402602001604051908101604052809291908181526020018280546109f4906131c4565b8015610a415780601f10610a1657610100808354040283529160200191610a41565b820191906000526020600020905b815481529060010190602001808311610a2457829003601f168201915b505050505081565b60606000610a5683611796565b90506000600960008581526020019081526020016000208054610a78906131c4565b80601f0160208091040260200160405190810160405280929190818152602001828054610aa4906131c4565b8015610af15780601f10610ac657610100808354040283529160200191610af1565b820191906000526020600020905b815481529060010190602001808311610ad457829003601f168201915b50505050509050600082604051602001610b0b9190612bb1565b6040516020818303038152906040529050610b278282876107c3565b9350505050919050565b6000806002600084815260200190815260200160002060009054906101000a900473ffffffffffffffffffffffffffffffffffffffff169050600073ffffffffffffffffffffffffffffffffffffffff168173ffffffffffffffffffffffffffffffffffffffff161415610bda576040517f08c379a0000000000000000000000000000000000000000000000000000000008152600401610bd190612d99565b60405180910390fd5b80915050919050565b60008073ffffffffffffffffffffffffffffffffffffffff168273ffffffffffffffffffffffffffffffffffffffff161415610c54576040517f08c379a0000000000000000000000000000000000000000000000000000000008152600401610c4b90612d79565b60405180910390fd5b600360008373ffffffffffffffffffffffffffffffffffffffff1673ffffffffffffffffffffffffffffffffffffffff168152602001908152602001600020549050919050565b610ca361139b565b73ffffffffffffffffffffffffffffffffffffffff16610cc1610d23565b73ffffffffffffffffffffffffffffffffffffffff1614610d17576040517f08c379a0000000000000000000000000000000000000000000000000000000008152600401610d0e90612e19565b60405180910390fd5b610d2160006118f7565b565b6000600660009054906101000a900473ffffffffffffffffffffffffffffffffffffffff16905090565b606060018054610d5c906131c4565b80601f0160208091040260200160405190810160405280929190818152602001828054610d88906131c4565b8015610dd55780601f10610daa57610100808354040283529160200191610dd5565b820191906000526020600020905b815481529060010190602001808311610db857829003601f168201915b5050505050905090565b610df1610dea61139b565b83836119bd565b5050565b610e06610e0061139b565b8361145c565b610e45576040517f08c379a0000000000000000000000000000000000000000000000000000000008152600401610e3c90612e99565b60405180910390fd5b610e5184848484611b2a565b50505050565b6060610e628261132f565b610ea1576040517f08c379a0000000000000000000000000000000000000000000000000000000008152600401610e9890612db9565b60405180910390fd5b610eaa82610a49565b9050919050565b6000600560008473ffffffffffffffffffffffffffffffffffffffff1673ffffffffffffffffffffffffffffffffffffffff16815260200190815260200160002060008373ffffffffffffffffffffffffffffffffffffffff1673ffffffffffffffffffffffffffffffffffffffff16815260200190815260200160002060009054906101000a900460ff16905092915050565b61010083839050600760008a815260200190815260200160002080549050610f6d9190613053565b1115610fae576040517f08c379a0000000000000000000000000000000000000000000000000000000008152600401610fa590612e59565b60405180910390fd5b60005b83839050811015610ffd57610fea88858584818110610fd357610fd261332e565b5b9050602002810190610fe59190612f04565b611b86565b8080610ff590613227565b915050610fb1565b508585600960008a81526020019081526020016000209190611020929190611fd0565b5083600860008981526020019081526020016000209080519060200190611048929190612056565b50600a600081548092919061105c90613227565b919050555061106b8188611bda565b50505050505050565b60086020528060005260406000206000915090508054611093906131c4565b80601f01602080910402602001604051908101604052809291908181526020018280546110bf906131c4565b801561110c5780601f106110e15761010080835404028352916020019161110c565b820191906000526020600020905b8154815290600101906020018083116110ef57829003601f168201915b505050505081565b6007602052816000526040600020818154811061113057600080fd5b9060005260206000200160009150915050805461114c906131c4565b80601f0160208091040260200160405190810160405280929190818152602001828054611178906131c4565b80156111c55780601f1061119a576101008083540402835291602001916111c5565b820191906000526020600020905b8154815290600101906020018083116111a857829003601f168201915b505050505081565b6111d561139b565b73ffffffffffffffffffffffffffffffffffffffff166111f3610d23565b73ffffffffffffffffffffffffffffffffffffffff1614611249576040517f08c379a000000000000000000000000000000000000000000000000000000000815260040161124090612e19565b60405180910390fd5b600073ffffffffffffffffffffffffffffffffffffffff168173ffffffffffffffffffffffffffffffffffffffff1614156112b9576040517f08c379a00000000000000000000000000000000000000000000000000000000081526004016112b090612cb9565b60405180910390fd5b6112c2816118f7565b50565b60007f01ffc9a7000000000000000000000000000000000000000000000000000000007bffffffffffffffffffffffffffffffffffffffffffffffffffffffff1916827bffffffffffffffffffffffffffffffffffffffffffffffffffffffff1916149050919050565b60008073ffffffffffffffffffffffffffffffffffffffff166002600084815260200190815260200160002060009054906101000a900473ffffffffffffffffffffffffffffffffffffffff1673ffffffffffffffffffffffffffffffffffffffff1614159050919050565b600033905090565b816004600083815260200190815260200160002060006101000a81548173ffffffffffffffffffffffffffffffffffffffff021916908373ffffffffffffffffffffffffffffffffffffffff160217905550808273ffffffffffffffffffffffffffffffffffffffff1661141683610b31565b73ffffffffffffffffffffffffffffffffffffffff167f8c5be1e5ebec7d5bd14f71427d1e84f3dd0314c0f7b2291e5b200ac8c7c3b92560405160405180910390a45050565b60006114678261132f565b6114a6576040517f08c379a000000000000000000000000000000000000000000000000000000000815260040161149d90612d39565b60405180910390fd5b60006114b183610b31565b90508073ffffffffffffffffffffffffffffffffffffffff168473ffffffffffffffffffffffffffffffffffffffff16148061152057508373ffffffffffffffffffffffffffffffffffffffff166115088461061c565b73ffffffffffffffffffffffffffffffffffffffff16145b8061153157506115308185610eb1565b5b91505092915050565b8273ffffffffffffffffffffffffffffffffffffffff1661155a82610b31565b73ffffffffffffffffffffffffffffffffffffffff16146115b0576040517f08c379a00000000000000000000000000000000000000000000000000000000081526004016115a790612e39565b60405180910390fd5b600073ffffffffffffffffffffffffffffffffffffffff168273ffffffffffffffffffffffffffffffffffffffff161415611620576040517f08c379a000000000000000000000000000000000000000000000000000000000815260040161161790612cf9565b60405180910390fd5b61162b838383611bf8565b6116366000826113a3565b6001600360008573ffffffffffffffffffffffffffffffffffffffff1673ffffffffffffffffffffffffffffffffffffffff168152602001908152602001600020600082825461168691906130da565b925050819055506001600360008473ffffffffffffffffffffffffffffffffffffffff1673ffffffffffffffffffffffffffffffffffffffff16815260200190815260200160002060008282546116dd9190613053565b92505081905550816002600083815260200190815260200160002060006101000a81548173ffffffffffffffffffffffffffffffffffffffff021916908373ffffffffffffffffffffffffffffffffffffffff160217905550808273ffffffffffffffffffffffffffffffffffffffff168473ffffffffffffffffffffffffffffffffffffffff167fddf252ad1be2c89b69c2b068fc378daa952ba7f163c4a11628f55a4df523b3ef60405160405180910390a4505050565b606060008214156117de576040518060400160405280600181526020017f300000000000000000000000000000000000000000000000000000000000000081525090506118f2565b600082905060005b600082146118105780806117f990613227565b915050600a8261180991906130a9565b91506117e6565b60008167ffffffffffffffff81111561182c5761182b61335d565b5b6040519080825280601f01601f19166020018201604052801561185e5781602001600182028036833780820191505090505b5090505b600085146118eb5760018261187791906130da565b9150600a856118869190613270565b60306118929190613053565b60f81b8183815181106118a8576118a761332e565b5b60200101907effffffffffffffffffffffffffffffffffffffffffffffffffffffffffffff1916908160001a905350600a856118e491906130a9565b9450611862565b8093505050505b919050565b6000600660009054906101000a900473ffffffffffffffffffffffffffffffffffffffff16905081600660006101000a81548173ffffffffffffffffffffffffffffffffffffffff021916908373ffffffffffffffffffffffffffffffffffffffff1602179055508173ffffffffffffffffffffffffffffffffffffffff168173ffffffffffffffffffffffffffffffffffffffff167f8be0079c531659141344cd1fd0a4f28419497f9722a3daafe3b4186f6b6457e060405160405180910390a35050565b8173ffffffffffffffffffffffffffffffffffffffff168373ffffffffffffffffffffffffffffffffffffffff161415611a2c576040517f08c379a0000000000000000000000000000000000000000000000000000000008152600401611a2390612d19565b60405180910390fd5b80600560008573ffffffffffffffffffffffffffffffffffffffff1673ffffffffffffffffffffffffffffffffffffffff16815260200190815260200160002060008473ffffffffffffffffffffffffffffffffffffffff1673ffffffffffffffffffffffffffffffffffffffff16815260200190815260200160002060006101000a81548160ff0219169083151502179055508173ffffffffffffffffffffffffffffffffffffffff168373ffffffffffffffffffffffffffffffffffffffff167f17307eab39ab6107e8899845ad3d59bd9653f200f220920489ca2b5937696c3183604051611b1d9190612c3a565b60405180910390a3505050565b611b3584848461153a565b611b4184848484611bfd565b611b80576040517f08c379a0000000000000000000000000000000000000000000000000000000008152600401611b7790612c99565b60405180910390fd5b50505050565b60076000848152602001908152602001600020828290918060018154018082558091505060019003906000526020600020016000909192909192909192909192509190611bd4929190611fd0565b50505050565b611bf4828260405180602001604052806000815250611d94565b5050565b505050565b6000611c1e8473ffffffffffffffffffffffffffffffffffffffff16611def565b15611d87578373ffffffffffffffffffffffffffffffffffffffff1663150b7a02611c4761139b565b8786866040518563ffffffff1660e01b8152600401611c699493929190612bee565b602060405180830381600087803b158015611c8357600080fd5b505af1925050508015611cb457506040513d601f19601f82011682018060405250810190611cb1919061254e565b60015b611d37573d8060008114611ce4576040519150601f19603f3d011682016040523d82523d6000602084013e611ce9565b606091505b50600081511415611d2f576040517f08c379a0000000000000000000000000000000000000000000000000000000008152600401611d2690612c99565b60405180910390fd5b805181602001fd5b63150b7a0260e01b7bffffffffffffffffffffffffffffffffffffffffffffffffffffffff1916817bffffffffffffffffffffffffffffffffffffffffffffffffffffffff191614915050611d8c565b600190505b949350505050565b611d9e8383611e02565b611dab6000848484611bfd565b611dea576040517f08c379a0000000000000000000000000000000000000000000000000000000008152600401611de190612c99565b60405180910390fd5b505050565b600080823b905060008111915050919050565b600073ffffffffffffffffffffffffffffffffffffffff168273ffffffffffffffffffffffffffffffffffffffff161415611e72576040517f08c379a0000000000000000000000000000000000000000000000000000000008152600401611e6990612dd9565b60405180910390fd5b611e7b8161132f565b15611ebb576040517f08c379a0000000000000000000000000000000000000000000000000000000008152600401611eb290612cd9565b60405180910390fd5b611ec760008383611bf8565b6001600360008473ffffffffffffffffffffffffffffffffffffffff1673ffffffffffffffffffffffffffffffffffffffff1681526020019081526020016000206000828254611f179190613053565b92505081905550816002600083815260200190815260200160002060006101000a81548173ffffffffffffffffffffffffffffffffffffffff021916908373ffffffffffffffffffffffffffffffffffffffff160217905550808273ffffffffffffffffffffffffffffffffffffffff16600073ffffffffffffffffffffffffffffffffffffffff167fddf252ad1be2c89b69c2b068fc378daa952ba7f163c4a11628f55a4df523b3ef60405160405180910390a45050565b828054611fdc906131c4565b90600052602060002090601f016020900481019282611ffe5760008555612045565b82601f1061201757803560ff1916838001178555612045565b82800160010185558215612045579182015b82811115612044578235825591602001919060010190612029565b5b50905061205291906120dc565b5090565b828054612062906131c4565b90600052602060002090601f01602090048101928261208457600085556120cb565b82601f1061209d57805160ff19168380011785556120cb565b828001600101855582156120cb579182015b828111156120ca5782518255916020019190600101906120af565b5b5090506120d891906120dc565b5090565b5b808211156120f55760008160009055506001016120dd565b5090565b600061210c61210784612f8c565b612f67565b905082815260208101848484011115612128576121276133aa565b5b612133848285613182565b509392505050565b600061214e61214984612fbd565b612f67565b90508281526020810184848401111561216a576121696133aa565b5b612175848285613182565b509392505050565b600061219061218b84612fbd565b612f67565b9050828152602081018484840111156121ac576121ab6133aa565b5b6121b7848285613191565b509392505050565b6000813590506121ce8161389a565b92915050565b60008083601f8401126121ea576121e9613391565b5b8235905067ffffffffffffffff8111156122075761220661338c565b5b602083019150836020820283011115612223576122226133a0565b5b9250929050565b600081359050612239816138b1565b92915050565b60008135905061224e816138c8565b92915050565b600081519050612263816138c8565b92915050565b600082601f83011261227e5761227d613391565b5b813561228e8482602086016120f9565b91505092915050565b60008083601f8401126122ad576122ac613391565b5b8235905067ffffffffffffffff8111156122ca576122c961338c565b5b6020830191508360018202830111156122e6576122e56133a0565b5b9250929050565b600082601f83011261230257612301613391565b5b813561231284826020860161213b565b91505092915050565b600082601f8301126123305761232f613391565b5b815161234084826020860161217d565b91505092915050565b600081359050612358816138df565b92915050565b600060208284031215612374576123736133b4565b5b6000612382848285016121bf565b91505092915050565b600080604083850312156123a2576123a16133b4565b5b60006123b0858286016121bf565b92505060206123c1858286016121bf565b9150509250929050565b6000806000606084860312156123e4576123e36133b4565b5b60006123f2868287016121bf565b9350506020612403868287016121bf565b925050604061241486828701612349565b9150509250925092565b60008060008060808587031215612438576124376133b4565b5b6000612446878288016121bf565b9450506020612457878288016121bf565b935050604061246887828801612349565b925050606085013567ffffffffffffffff811115612489576124886133af565b5b61249587828801612269565b91505092959194509250565b600080604083850312156124b8576124b76133b4565b5b60006124c6858286016121bf565b92505060206124d78582860161222a565b9150509250929050565b600080604083850312156124f8576124f76133b4565b5b6000612506858286016121bf565b925050602061251785828601612349565b9150509250929050565b600060208284031215612537576125366133b4565b5b60006125458482850161223f565b91505092915050565b600060208284031215612564576125636133b4565b5b600061257284828501612254565b91505092915050565b600060208284031215612591576125906133b4565b5b600082015167ffffffffffffffff8111156125af576125ae6133af565b5b6125bb8482850161231b565b91505092915050565b6000806000606084860312156125dd576125dc6133b4565b5b600084013567ffffffffffffffff8111156125fb576125fa6133af565b5b612607868287016122ed565b935050602084013567ffffffffffffffff811115612628576126276133af565b5b612634868287016122ed565b925050604061264586828701612349565b9150509250925092565b600060208284031215612665576126646133b4565b5b600061267384828501612349565b91505092915050565b600080600080600080600060a0888a03121561269b5761269a6133b4565b5b60006126a98a828b01612349565b975050602088013567ffffffffffffffff8111156126ca576126c96133af565b5b6126d68a828b01612297565b9650965050604088013567ffffffffffffffff8111156126f9576126f86133af565b5b6127058a828b01612269565b945050606088013567ffffffffffffffff811115612726576127256133af565b5b6127328a828b016121d4565b935093505060806127458a828b016121bf565b91505092959891949750929550565b6000806040838503121561276b5761276a6133b4565b5b600061277985828601612349565b925050602061278a85828601612349565b9150509250929050565b61279d8161310e565b82525050565b8082525050565b6127b381613120565b82525050565b60006127c482612fee565b6127ce8185613004565b93506127de818560208601613191565b6127e7816133b9565b840191505092915050565b60006127fd82612fee565b6128078185613015565b9350612817818560208601613191565b612820816133b9565b840191505092915050565b600061283682612ff9565b6128408185613026565b9350612850818560208601613191565b612859816133b9565b840191505092915050565b600061286f82612ff9565b6128798185613037565b9350612889818560208601613191565b612892816133b9565b840191505092915050565b60006128a882612ff9565b6128b28185613048565b93506128c2818560208601613191565b80840191505092915050565b60006128db603283613026565b91506128e6826133ca565b604082019050919050565b60006128fe602683613026565b915061290982613419565b604082019050919050565b6000612921601c83613026565b915061292c82613468565b602082019050919050565b6000612944602483613026565b915061294f82613491565b604082019050919050565b6000612967601983613026565b9150612972826134e0565b602082019050919050565b600061298a602c83613026565b915061299582613509565b604082019050919050565b60006129ad603883613026565b91506129b882613558565b604082019050919050565b60006129d0602a83613026565b91506129db826135a7565b604082019050919050565b60006129f3602983613026565b91506129fe826135f6565b604082019050919050565b6000612a16602b83613026565b9150612a2182613645565b604082019050919050565b6000612a39602083613026565b9150612a4482613694565b602082019050919050565b6000612a5c602c83613026565b9150612a67826136bd565b604082019050919050565b6000612a7f602083613026565b9150612a8a8261370c565b602082019050919050565b6000612aa2601283613048565b9150612aad82613735565b601282019050919050565b6000612ac5602983613026565b9150612ad08261375e565b604082019050919050565b6000612ae8602183613026565b9150612af3826137ad565b604082019050919050565b6000612b0b602183613026565b9150612b16826137fc565b604082019050919050565b6000612b2e603183613026565b9150612b398261384b565b604082019050919050565b60006060830160008301518482036000860152612b618282612864565b91505060208301518482036020860152612b7b8282612864565b91505060408301518482036040860152612b9582826127f2565b9150508091505092915050565b612bab81613178565b82525050565b6000612bbc82612a95565b9150612bc8828461289d565b915081905092915050565b6000602082019050612be86000830184612794565b92915050565b6000608082019050612c036000830187612794565b612c106020830186612794565b612c1d6040830185612ba2565b8181036060830152612c2f81846127b9565b905095945050505050565b6000602082019050612c4f60008301846127aa565b92915050565b60006020820190508181036000830152612c6f81846127b9565b905092915050565b60006020820190508181036000830152612c91818461282b565b905092915050565b60006020820190508181036000830152612cb2816128ce565b9050919050565b60006020820190508181036000830152612cd2816128f1565b9050919050565b60006020820190508181036000830152612cf281612914565b9050919050565b60006020820190508181036000830152612d1281612937565b9050919050565b60006020820190508181036000830152612d328161295a565b9050919050565b60006020820190508181036000830152612d528161297d565b9050919050565b60006020820190508181036000830152612d72816129a0565b9050919050565b60006020820190508181036000830152612d92816129c3565b9050919050565b60006020820190508181036000830152612db2816129e6565b9050919050565b60006020820190508181036000830152612dd281612a09565b9050919050565b60006020820190508181036000830152612df281612a2c565b9050919050565b60006020820190508181036000830152612e1281612a4f565b9050919050565b60006020820190508181036000830152612e3281612a72565b9050919050565b60006020820190508181036000830152612e5281612ab8565b9050919050565b60006020820190508181036000830152612e7281612adb565b9050919050565b60006020820190508181036000830152612e9281612afe565b9050919050565b60006020820190508181036000830152612eb281612b21565b9050919050565b60006040820190508181036000830152612ed38185612b44565b9050612ee260208301846127a3565b9392505050565b6000602082019050612efe6000830184612ba2565b92915050565b60008083356001602003843603038112612f2157612f2061339b565b5b80840192508235915067ffffffffffffffff821115612f4357612f42613396565b5b602083019250600182023603831315612f5f57612f5e6133a5565b5b509250929050565b6000612f71612f82565b9050612f7d82826131f6565b919050565b6000604051905090565b600067ffffffffffffffff821115612fa757612fa661335d565b5b612fb0826133b9565b9050602081019050919050565b600067ffffffffffffffff821115612fd857612fd761335d565b5b612fe1826133b9565b9050602081019050919050565b600081519050919050565b600081519050919050565b600082825260208201905092915050565b600082825260208201905092915050565b600082825260208201905092915050565b600082825260208201905092915050565b600081905092915050565b600061305e82613178565b915061306983613178565b9250827fffffffffffffffffffffffffffffffffffffffffffffffffffffffffffffffff0382111561309e5761309d6132a1565b5b828201905092915050565b60006130b482613178565b91506130bf83613178565b9250826130cf576130ce6132d0565b5b828204905092915050565b60006130e582613178565b91506130f083613178565b925082821015613103576131026132a1565b5b828203905092915050565b600061311982613158565b9050919050565b60008115159050919050565b60007fffffffff0000000000000000000000000000000000000000000000000000000082169050919050565b600073ffffffffffffffffffffffffffffffffffffffff82169050919050565b6000819050919050565b82818337600083830152505050565b60005b838110156131af578082015181840152602081019050613194565b838111156131be576000848401525b50505050565b600060028204905060018216806131dc57607f821691505b602082108114156131f0576131ef6132ff565b5b50919050565b6131ff826133b9565b810181811067ffffffffffffffff8211171561321e5761321d61335d565b5b80604052505050565b600061323282613178565b91507fffffffffffffffffffffffffffffffffffffffffffffffffffffffffffffffff821415613265576132646132a1565b5b600182019050919050565b600061327b82613178565b915061328683613178565b925082613296576132956132d0565b5b828206905092915050565b7f4e487b7100000000000000000000000000000000000000000000000000000000600052601160045260246000fd5b7f4e487b7100000000000000000000000000000000000000000000000000000000600052601260045260246000fd5b7f4e487b7100000000000000000000000000000000000000000000000000000000600052602260045260246000fd5b7f4e487b7100000000000000000000000000000000000000000000000000000000600052603260045260246000fd5b7f4e487b7100000000000000000000000000000000000000000000000000000000600052604160045260246000fd5b600080fd5b600080fd5b600080fd5b600080fd5b600080fd5b600080fd5b600080fd5b600080fd5b600080fd5b6000601f19601f8301169050919050565b7f4552433732313a207472616e7366657220746f206e6f6e20455243373231526560008201527f63656976657220696d706c656d656e7465720000000000000000000000000000602082015250565b7f4f776e61626c653a206e6577206f776e657220697320746865207a65726f206160008201527f6464726573730000000000000000000000000000000000000000000000000000602082015250565b7f4552433732313a20746f6b656e20616c7265616479206d696e74656400000000600082015250565b7f4552433732313a207472616e7366657220746f20746865207a65726f2061646460008201527f7265737300000000000000000000000000000000000000000000000000000000602082015250565b7f4552433732313a20617070726f766520746f2063616c6c657200000000000000600082015250565b7f4552433732313a206f70657261746f7220717565727920666f72206e6f6e657860008201527f697374656e7420746f6b656e0000000000000000000000000000000000000000602082015250565b7f4552433732313a20617070726f76652063616c6c6572206973206e6f74206f7760008201527f6e6572206e6f7220617070726f76656420666f7220616c6c0000000000000000602082015250565b7f4552433732313a2062616c616e636520717565727920666f7220746865207a6560008201527f726f206164647265737300000000000000000000000000000000000000000000602082015250565b7f4552433732313a206f776e657220717565727920666f72206e6f6e657869737460008201527f656e7420746f6b656e0000000000000000000000000000000000000000000000602082015250565b7f4e6f756e73546f6b656e3a2055524920717565727920666f72206e6f6e65786960008201527f7374656e7420746f6b656e000000000000000000000000000000000000000000602082015250565b7f4552433732313a206d696e7420746f20746865207a65726f2061646472657373600082015250565b7f4552433732313a20617070726f76656420717565727920666f72206e6f6e657860008201527f697374656e7420746f6b656e0000000000000000000000000000000000000000602082015250565b7f4f776e61626c653a2063616c6c6572206973206e6f7420746865206f776e6572600082015250565b7f506978656c73204f6e636861696e656420230000000000000000000000000000600082015250565b7f4552433732313a207472616e73666572206f6620746f6b656e2074686174206960008201527f73206e6f74206f776e0000000000000000000000000000000000000000000000602082015250565b7f50616c65747465732063616e206f6e6c7920686f6c642032353620636f6c6f7260008201527f7300000000000000000000000000000000000000000000000000000000000000602082015250565b7f4552433732313a20617070726f76616c20746f2063757272656e74206f776e6560008201527f7200000000000000000000000000000000000000000000000000000000000000602082015250565b7f4552433732313a207472616e736665722063616c6c6572206973206e6f74206f60008201527f776e6572206e6f7220617070726f766564000000000000000000000000000000602082015250565b6138a38161310e565b81146138ae57600080fd5b50565b6138ba81613120565b81146138c557600080fd5b50565b6138d18161312c565b81146138dc57600080fd5b50565b6138e881613178565b81146138f357600080fd5b5056fea264697066735822122054f09657533b7b8fd15e4312a167903981d50d58015aaa7e01c42322d64add6164736f6c63430008060033",
  "deployedBytecode": "0x608060405234801561001057600080fd5b506004361061014d5760003560e01c806370a08231116100c3578063c87b56dd1161007c578063c87b56dd146103b0578063e985e9c5146103e0578063ea81824d14610410578063f0503e801461042c578063f1dc193a1461045c578063f2fde38b1461048c5761014d565b806370a0823114610302578063715018a6146103325780638da5cb5b1461033c57806395d89b411461035a578063a22cb46514610378578063b88d4fde146103945761014d565b80631958634811610115578063195863481461020a57806323b872dd1461023a57806342842e0e146102565780634622ab03146102725780635ac1e3bb146102a25780636352211e146102d25761014d565b806301ffc9a71461015257806306fdde0314610182578063081812fc146101a0578063095ea7b3146101d057806318160ddd146101ec575b600080fd5b61016c60048036038101906101679190612521565b6104a8565b6040516101799190612c3a565b60405180910390f35b61018a61058a565b6040516101979190612c77565b60405180910390f35b6101ba60048036038101906101b5919061264f565b61061c565b6040516101c79190612bd3565b60405180910390f35b6101ea60048036038101906101e591906124e1565b6106a1565b005b6101f46107b9565b6040516102019190612ee9565b60405180910390f35b610224600480360381019061021f91906125c4565b6107c3565b6040516102319190612c77565b60405180910390f35b610254600480360381019061024f91906123cb565b610929565b005b610270600480360381019061026b91906123cb565b610989565b005b61028c6004803603810190610287919061264f565b6109a9565b6040516102999190612c77565b60405180910390f35b6102bc60048036038101906102b7919061264f565b610a49565b6040516102c99190612c77565b60405180910390f35b6102ec60048036038101906102e7919061264f565b610b31565b6040516102f99190612bd3565b60405180910390f35b61031c6004803603810190610317919061235e565b610be3565b6040516103299190612ee9565b60405180910390f35b61033a610c9b565b005b610344610d23565b6040516103519190612bd3565b60405180910390f35b610362610d4d565b60405161036f9190612c77565b60405180910390f35b610392600480360381019061038d91906124a1565b610ddf565b005b6103ae60048036038101906103a9919061241e565b610df5565b005b6103ca60048036038101906103c5919061264f565b610e57565b6040516103d79190612c77565b60405180910390f35b6103fa60048036038101906103f5919061238b565b610eb1565b6040516104079190612c3a565b60405180910390f35b61042a6004803603810190610425919061267c565b610f45565b005b6104466004803603810190610441919061264f565b611074565b6040516104539190612c55565b60405180910390f35b61047660048036038101906104719190612754565b611114565b6040516104839190612c77565b60405180910390f35b6104a660048036038101906104a1919061235e565b6111cd565b005b60007f80ac58cd000000000000000000000000000000000000000000000000000000007bffffffffffffffffffffffffffffffffffffffffffffffffffffffff1916827bffffffffffffffffffffffffffffffffffffffffffffffffffffffff1916148061057357507f5b5e139f000000000000000000000000000000000000000000000000000000007bffffffffffffffffffffffffffffffffffffffffffffffffffffffff1916827bffffffffffffffffffffffffffffffffffffffffffffffffffffffff1916145b806105835750610582826112c5565b5b9050919050565b606060008054610599906131c4565b80601f01602080910402602001604051908101604052809291908181526020018280546105c5906131c4565b80156106125780601f106105e757610100808354040283529160200191610612565b820191906000526020600020905b8154815290600101906020018083116105f557829003601f168201915b5050505050905090565b60006106278261132f565b610666576040517f08c379a000000000000000000000000000000000000000000000000000000000815260040161065d90612df9565b60405180910390fd5b6004600083815260200190815260200160002060009054906101000a900473ffffffffffffffffffffffffffffffffffffffff169050919050565b60006106ac82610b31565b90508073ffffffffffffffffffffffffffffffffffffffff168373ffffffffffffffffffffffffffffffffffffffff16141561071d576040517f08c379a000000000000000000000000000000000000000000000000000000000815260040161071490612e79565b60405180910390fd5b8073ffffffffffffffffffffffffffffffffffffffff1661073c61139b565b73ffffffffffffffffffffffffffffffffffffffff16148061076b575061076a8161076561139b565b610eb1565b5b6107aa576040517f08c379a00000000000000000000000000000000000000000000000000000000081526004016107a190612d59565b60405180910390fd5b6107b483836113a3565b505050565b6000600a54905090565b6060600060405180606001604052808681526020018581526020016008600086815260200190815260200160002080546107fc906131c4565b80601f0160208091040260200160405190810160405280929190818152602001828054610828906131c4565b80156108755780601f1061084a57610100808354040283529160200191610875565b820191906000526020600020905b81548152906001019060200180831161085857829003601f168201915b5050505050815250905073__$388d9648e60900c4fa1f8dd42cac8ac1fe$__636c2a0e3c82600760008781526020019081526020016000206040518363ffffffff1660e01b81526004016108ca929190612eb9565b60006040518083038186803b1580156108e257600080fd5b505af41580156108f6573d6000803e3d6000fd5b505050506040513d6000823e3d601f19601f8201168201806040525081019061091f919061257b565b9150509392505050565b61093a61093461139b565b8261145c565b610979576040517f08c379a000000000000000000000000000000000000000000000000000000000815260040161097090612e99565b60405180910390fd5b61098483838361153a565b505050565b6109a483838360405180602001604052806000815250610df5565b505050565b600960205280600052604060002060009150905080546109c8906131c4565b80601f01602080910402602001604051908101604052809291908181526020018280546109f4906131c4565b8015610a415780601f10610a1657610100808354040283529160200191610a41565b820191906000526020600020905b815481529060010190602001808311610a2457829003601f168201915b505050505081565b60606000610a5683611796565b90506000600960008581526020019081526020016000208054610a78906131c4565b80601f0160208091040260200160405190810160405280929190818152602001828054610aa4906131c4565b8015610af15780601f10610ac657610100808354040283529160200191610af1565b820191906000526020600020905b815481529060010190602001808311610ad457829003601f168201915b50505050509050600082604051602001610b0b9190612bb1565b6040516020818303038152906040529050610b278282876107c3565b9350505050919050565b6000806002600084815260200190815260200160002060009054906101000a900473ffffffffffffffffffffffffffffffffffffffff169050600073ffffffffffffffffffffffffffffffffffffffff168173ffffffffffffffffffffffffffffffffffffffff161415610bda576040517f08c379a0000000000000000000000000000000000000000000000000000000008152600401610bd190612d99565b60405180910390fd5b80915050919050565b60008073ffffffffffffffffffffffffffffffffffffffff168273ffffffffffffffffffffffffffffffffffffffff161415610c54576040517f08c379a0000000000000000000000000000000000000000000000000000000008152600401610c4b90612d79565b60405180910390fd5b600360008373ffffffffffffffffffffffffffffffffffffffff1673ffffffffffffffffffffffffffffffffffffffff168152602001908152602001600020549050919050565b610ca361139b565b73ffffffffffffffffffffffffffffffffffffffff16610cc1610d23565b73ffffffffffffffffffffffffffffffffffffffff1614610d17576040517f08c379a0000000000000000000000000000000000000000000000000000000008152600401610d0e90612e19565b60405180910390fd5b610d2160006118f7565b565b6000600660009054906101000a900473ffffffffffffffffffffffffffffffffffffffff16905090565b606060018054610d5c906131c4565b80601f0160208091040260200160405190810160405280929190818152602001828054610d88906131c4565b8015610dd55780601f10610daa57610100808354040283529160200191610dd5565b820191906000526020600020905b815481529060010190602001808311610db857829003601f168201915b5050505050905090565b610df1610dea61139b565b83836119bd565b5050565b610e06610e0061139b565b8361145c565b610e45576040517f08c379a0000000000000000000000000000000000000000000000000000000008152600401610e3c90612e99565b60405180910390fd5b610e5184848484611b2a565b50505050565b6060610e628261132f565b610ea1576040517f08c379a0000000000000000000000000000000000000000000000000000000008152600401610e9890612db9565b60405180910390fd5b610eaa82610a49565b9050919050565b6000600560008473ffffffffffffffffffffffffffffffffffffffff1673ffffffffffffffffffffffffffffffffffffffff16815260200190815260200160002060008373ffffffffffffffffffffffffffffffffffffffff1673ffffffffffffffffffffffffffffffffffffffff16815260200190815260200160002060009054906101000a900460ff16905092915050565b61010083839050600760008a815260200190815260200160002080549050610f6d9190613053565b1115610fae576040517f08c379a0000000000000000000000000000000000000000000000000000000008152600401610fa590612e59565b60405180910390fd5b60005b83839050811015610ffd57610fea88858584818110610fd357610fd261332e565b5b9050602002810190610fe59190612f04565b611b86565b8080610ff590613227565b915050610fb1565b508585600960008a81526020019081526020016000209190611020929190611fd0565b5083600860008981526020019081526020016000209080519060200190611048929190612056565b50600a600081548092919061105c90613227565b919050555061106b8188611bda565b50505050505050565b60086020528060005260406000206000915090508054611093906131c4565b80601f01602080910402602001604051908101604052809291908181526020018280546110bf906131c4565b801561110c5780601f106110e15761010080835404028352916020019161110c565b820191906000526020600020905b8154815290600101906020018083116110ef57829003601f168201915b505050505081565b6007602052816000526040600020818154811061113057600080fd5b9060005260206000200160009150915050805461114c906131c4565b80601f0160208091040260200160405190810160405280929190818152602001828054611178906131c4565b80156111c55780601f1061119a576101008083540402835291602001916111c5565b820191906000526020600020905b8154815290600101906020018083116111a857829003601f168201915b505050505081565b6111d561139b565b73ffffffffffffffffffffffffffffffffffffffff166111f3610d23565b73ffffffffffffffffffffffffffffffffffffffff1614611249576040517f08c379a000000000000000000000000000000000000000000000000000000000815260040161124090612e19565b60405180910390fd5b600073ffffffffffffffffffffffffffffffffffffffff168173ffffffffffffffffffffffffffffffffffffffff1614156112b9576040517f08c379a00000000000000000000000000000000000000000000000000000000081526004016112b090612cb9565b60405180910390fd5b6112c2816118f7565b50565b60007f01ffc9a7000000000000000000000000000000000000000000000000000000007bffffffffffffffffffffffffffffffffffffffffffffffffffffffff1916827bffffffffffffffffffffffffffffffffffffffffffffffffffffffff1916149050919050565b60008073ffffffffffffffffffffffffffffffffffffffff166002600084815260200190815260200160002060009054906101000a900473ffffffffffffffffffffffffffffffffffffffff1673ffffffffffffffffffffffffffffffffffffffff1614159050919050565b600033905090565b816004600083815260200190815260200160002060006101000a81548173ffffffffffffffffffffffffffffffffffffffff021916908373ffffffffffffffffffffffffffffffffffffffff160217905550808273ffffffffffffffffffffffffffffffffffffffff1661141683610b31565b73ffffffffffffffffffffffffffffffffffffffff167f8c5be1e5ebec7d5bd14f71427d1e84f3dd0314c0f7b2291e5b200ac8c7c3b92560405160405180910390a45050565b60006114678261132f565b6114a6576040517f08c379a000000000000000000000000000000000000000000000000000000000815260040161149d90612d39565b60405180910390fd5b60006114b183610b31565b90508073ffffffffffffffffffffffffffffffffffffffff168473ffffffffffffffffffffffffffffffffffffffff16148061152057508373ffffffffffffffffffffffffffffffffffffffff166115088461061c565b73ffffffffffffffffffffffffffffffffffffffff16145b8061153157506115308185610eb1565b5b91505092915050565b8273ffffffffffffffffffffffffffffffffffffffff1661155a82610b31565b73ffffffffffffffffffffffffffffffffffffffff16146115b0576040517f08c379a00000000000000000000000000000000000000000000000000000000081526004016115a790612e39565b60405180910390fd5b600073ffffffffffffffffffffffffffffffffffffffff168273ffffffffffffffffffffffffffffffffffffffff161415611620576040517f08c379a000000000000000000000000000000000000000000000000000000000815260040161161790612cf9565b60405180910390fd5b61162b838383611bf8565b6116366000826113a3565b6001600360008573ffffffffffffffffffffffffffffffffffffffff1673ffffffffffffffffffffffffffffffffffffffff168152602001908152602001600020600082825461168691906130da565b925050819055506001600360008473ffffffffffffffffffffffffffffffffffffffff1673ffffffffffffffffffffffffffffffffffffffff16815260200190815260200160002060008282546116dd9190613053565b92505081905550816002600083815260200190815260200160002060006101000a81548173ffffffffffffffffffffffffffffffffffffffff021916908373ffffffffffffffffffffffffffffffffffffffff160217905550808273ffffffffffffffffffffffffffffffffffffffff168473ffffffffffffffffffffffffffffffffffffffff167fddf252ad1be2c89b69c2b068fc378daa952ba7f163c4a11628f55a4df523b3ef60405160405180910390a4505050565b606060008214156117de576040518060400160405280600181526020017f300000000000000000000000000000000000000000000000000000000000000081525090506118f2565b600082905060005b600082146118105780806117f990613227565b915050600a8261180991906130a9565b91506117e6565b60008167ffffffffffffffff81111561182c5761182b61335d565b5b6040519080825280601f01601f19166020018201604052801561185e5781602001600182028036833780820191505090505b5090505b600085146118eb5760018261187791906130da565b9150600a856118869190613270565b60306118929190613053565b60f81b8183815181106118a8576118a761332e565b5b60200101907effffffffffffffffffffffffffffffffffffffffffffffffffffffffffffff1916908160001a905350600a856118e491906130a9565b9450611862565b8093505050505b919050565b6000600660009054906101000a900473ffffffffffffffffffffffffffffffffffffffff16905081600660006101000a81548173ffffffffffffffffffffffffffffffffffffffff021916908373ffffffffffffffffffffffffffffffffffffffff1602179055508173ffffffffffffffffffffffffffffffffffffffff168173ffffffffffffffffffffffffffffffffffffffff167f8be0079c531659141344cd1fd0a4f28419497f9722a3daafe3b4186f6b6457e060405160405180910390a35050565b8173ffffffffffffffffffffffffffffffffffffffff168373ffffffffffffffffffffffffffffffffffffffff161415611a2c576040517f08c379a0000000000000000000000000000000000000000000000000000000008152600401611a2390612d19565b60405180910390fd5b80600560008573ffffffffffffffffffffffffffffffffffffffff1673ffffffffffffffffffffffffffffffffffffffff16815260200190815260200160002060008473ffffffffffffffffffffffffffffffffffffffff1673ffffffffffffffffffffffffffffffffffffffff16815260200190815260200160002060006101000a81548160ff0219169083151502179055508173ffffffffffffffffffffffffffffffffffffffff168373ffffffffffffffffffffffffffffffffffffffff167f17307eab39ab6107e8899845ad3d59bd9653f200f220920489ca2b5937696c3183604051611b1d9190612c3a565b60405180910390a3505050565b611b3584848461153a565b611b4184848484611bfd565b611b80576040517f08c379a0000000000000000000000000000000000000000000000000000000008152600401611b7790612c99565b60405180910390fd5b50505050565b60076000848152602001908152602001600020828290918060018154018082558091505060019003906000526020600020016000909192909192909192909192509190611bd4929190611fd0565b50505050565b611bf4828260405180602001604052806000815250611d94565b5050565b505050565b6000611c1e8473ffffffffffffffffffffffffffffffffffffffff16611def565b15611d87578373ffffffffffffffffffffffffffffffffffffffff1663150b7a02611c4761139b565b8786866040518563ffffffff1660e01b8152600401611c699493929190612bee565b602060405180830381600087803b158015611c8357600080fd5b505af1925050508015611cb457506040513d601f19601f82011682018060405250810190611cb1919061254e565b60015b611d37573d8060008114611ce4576040519150601f19603f3d011682016040523d82523d6000602084013e611ce9565b606091505b50600081511415611d2f576040517f08c379a0000000000000000000000000000000000000000000000000000000008152600401611d2690612c99565b60405180910390fd5b805181602001fd5b63150b7a0260e01b7bffffffffffffffffffffffffffffffffffffffffffffffffffffffff1916817bffffffffffffffffffffffffffffffffffffffffffffffffffffffff191614915050611d8c565b600190505b949350505050565b611d9e8383611e02565b611dab6000848484611bfd565b611dea576040517f08c379a0000000000000000000000000000000000000000000000000000000008152600401611de190612c99565b60405180910390fd5b505050565b600080823b905060008111915050919050565b600073ffffffffffffffffffffffffffffffffffffffff168273ffffffffffffffffffffffffffffffffffffffff161415611e72576040517f08c379a0000000000000000000000000000000000000000000000000000000008152600401611e6990612dd9565b60405180910390fd5b611e7b8161132f565b15611ebb576040517f08c379a0000000000000000000000000000000000000000000000000000000008152600401611eb290612cd9565b60405180910390fd5b611ec760008383611bf8565b6001600360008473ffffffffffffffffffffffffffffffffffffffff1673ffffffffffffffffffffffffffffffffffffffff1681526020019081526020016000206000828254611f179190613053565b92505081905550816002600083815260200190815260200160002060006101000a81548173ffffffffffffffffffffffffffffffffffffffff021916908373ffffffffffffffffffffffffffffffffffffffff160217905550808273ffffffffffffffffffffffffffffffffffffffff16600073ffffffffffffffffffffffffffffffffffffffff167fddf252ad1be2c89b69c2b068fc378daa952ba7f163c4a11628f55a4df523b3ef60405160405180910390a45050565b828054611fdc906131c4565b90600052602060002090601f016020900481019282611ffe5760008555612045565b82601f1061201757803560ff1916838001178555612045565b82800160010185558215612045579182015b82811115612044578235825591602001919060010190612029565b5b50905061205291906120dc565b5090565b828054612062906131c4565b90600052602060002090601f01602090048101928261208457600085556120cb565b82601f1061209d57805160ff19168380011785556120cb565b828001600101855582156120cb579182015b828111156120ca5782518255916020019190600101906120af565b5b5090506120d891906120dc565b5090565b5b808211156120f55760008160009055506001016120dd565b5090565b600061210c61210784612f8c565b612f67565b905082815260208101848484011115612128576121276133aa565b5b612133848285613182565b509392505050565b600061214e61214984612fbd565b612f67565b90508281526020810184848401111561216a576121696133aa565b5b612175848285613182565b509392505050565b600061219061218b84612fbd565b612f67565b9050828152602081018484840111156121ac576121ab6133aa565b5b6121b7848285613191565b509392505050565b6000813590506121ce8161389a565b92915050565b60008083601f8401126121ea576121e9613391565b5b8235905067ffffffffffffffff8111156122075761220661338c565b5b602083019150836020820283011115612223576122226133a0565b5b9250929050565b600081359050612239816138b1565b92915050565b60008135905061224e816138c8565b92915050565b600081519050612263816138c8565b92915050565b600082601f83011261227e5761227d613391565b5b813561228e8482602086016120f9565b91505092915050565b60008083601f8401126122ad576122ac613391565b5b8235905067ffffffffffffffff8111156122ca576122c961338c565b5b6020830191508360018202830111156122e6576122e56133a0565b5b9250929050565b600082601f83011261230257612301613391565b5b813561231284826020860161213b565b91505092915050565b600082601f8301126123305761232f613391565b5b815161234084826020860161217d565b91505092915050565b600081359050612358816138df565b92915050565b600060208284031215612374576123736133b4565b5b6000612382848285016121bf565b91505092915050565b600080604083850312156123a2576123a16133b4565b5b60006123b0858286016121bf565b92505060206123c1858286016121bf565b9150509250929050565b6000806000606084860312156123e4576123e36133b4565b5b60006123f2868287016121bf565b9350506020612403868287016121bf565b925050604061241486828701612349565b9150509250925092565b60008060008060808587031215612438576124376133b4565b5b6000612446878288016121bf565b9450506020612457878288016121bf565b935050604061246887828801612349565b925050606085013567ffffffffffffffff811115612489576124886133af565b5b61249587828801612269565b91505092959194509250565b600080604083850312156124b8576124b76133b4565b5b60006124c6858286016121bf565b92505060206124d78582860161222a565b9150509250929050565b600080604083850312156124f8576124f76133b4565b5b6000612506858286016121bf565b925050602061251785828601612349565b9150509250929050565b600060208284031215612537576125366133b4565b5b60006125458482850161223f565b91505092915050565b600060208284031215612564576125636133b4565b5b600061257284828501612254565b91505092915050565b600060208284031215612591576125906133b4565b5b600082015167ffffffffffffffff8111156125af576125ae6133af565b5b6125bb8482850161231b565b91505092915050565b6000806000606084860312156125dd576125dc6133b4565b5b600084013567ffffffffffffffff8111156125fb576125fa6133af565b5b612607868287016122ed565b935050602084013567ffffffffffffffff811115612628576126276133af565b5b612634868287016122ed565b925050604061264586828701612349565b9150509250925092565b600060208284031215612665576126646133b4565b5b600061267384828501612349565b91505092915050565b600080600080600080600060a0888a03121561269b5761269a6133b4565b5b60006126a98a828b01612349565b975050602088013567ffffffffffffffff8111156126ca576126c96133af565b5b6126d68a828b01612297565b9650965050604088013567ffffffffffffffff8111156126f9576126f86133af565b5b6127058a828b01612269565b945050606088013567ffffffffffffffff811115612726576127256133af565b5b6127328a828b016121d4565b935093505060806127458a828b016121bf565b91505092959891949750929550565b6000806040838503121561276b5761276a6133b4565b5b600061277985828601612349565b925050602061278a85828601612349565b9150509250929050565b61279d8161310e565b82525050565b8082525050565b6127b381613120565b82525050565b60006127c482612fee565b6127ce8185613004565b93506127de818560208601613191565b6127e7816133b9565b840191505092915050565b60006127fd82612fee565b6128078185613015565b9350612817818560208601613191565b612820816133b9565b840191505092915050565b600061283682612ff9565b6128408185613026565b9350612850818560208601613191565b612859816133b9565b840191505092915050565b600061286f82612ff9565b6128798185613037565b9350612889818560208601613191565b612892816133b9565b840191505092915050565b60006128a882612ff9565b6128b28185613048565b93506128c2818560208601613191565b80840191505092915050565b60006128db603283613026565b91506128e6826133ca565b604082019050919050565b60006128fe602683613026565b915061290982613419565b604082019050919050565b6000612921601c83613026565b915061292c82613468565b602082019050919050565b6000612944602483613026565b915061294f82613491565b604082019050919050565b6000612967601983613026565b9150612972826134e0565b602082019050919050565b600061298a602c83613026565b915061299582613509565b604082019050919050565b60006129ad603883613026565b91506129b882613558565b604082019050919050565b60006129d0602a83613026565b91506129db826135a7565b604082019050919050565b60006129f3602983613026565b91506129fe826135f6565b604082019050919050565b6000612a16602b83613026565b9150612a2182613645565b604082019050919050565b6000612a39602083613026565b9150612a4482613694565b602082019050919050565b6000612a5c602c83613026565b9150612a67826136bd565b604082019050919050565b6000612a7f602083613026565b9150612a8a8261370c565b602082019050919050565b6000612aa2601283613048565b9150612aad82613735565b601282019050919050565b6000612ac5602983613026565b9150612ad08261375e565b604082019050919050565b6000612ae8602183613026565b9150612af3826137ad565b604082019050919050565b6000612b0b602183613026565b9150612b16826137fc565b604082019050919050565b6000612b2e603183613026565b9150612b398261384b565b604082019050919050565b60006060830160008301518482036000860152612b618282612864565b91505060208301518482036020860152612b7b8282612864565b91505060408301518482036040860152612b9582826127f2565b9150508091505092915050565b612bab81613178565b82525050565b6000612bbc82612a95565b9150612bc8828461289d565b915081905092915050565b6000602082019050612be86000830184612794565b92915050565b6000608082019050612c036000830187612794565b612c106020830186612794565b612c1d6040830185612ba2565b8181036060830152612c2f81846127b9565b905095945050505050565b6000602082019050612c4f60008301846127aa565b92915050565b60006020820190508181036000830152612c6f81846127b9565b905092915050565b60006020820190508181036000830152612c91818461282b565b905092915050565b60006020820190508181036000830152612cb2816128ce565b9050919050565b60006020820190508181036000830152612cd2816128f1565b9050919050565b60006020820190508181036000830152612cf281612914565b9050919050565b60006020820190508181036000830152612d1281612937565b9050919050565b60006020820190508181036000830152612d328161295a565b9050919050565b60006020820190508181036000830152612d528161297d565b9050919050565b60006020820190508181036000830152612d72816129a0565b9050919050565b60006020820190508181036000830152612d92816129c3565b9050919050565b60006020820190508181036000830152612db2816129e6565b9050919050565b60006020820190508181036000830152612dd281612a09565b9050919050565b60006020820190508181036000830152612df281612a2c565b9050919050565b60006020820190508181036000830152612e1281612a4f565b9050919050565b60006020820190508181036000830152612e3281612a72565b9050919050565b60006020820190508181036000830152612e5281612ab8565b9050919050565b60006020820190508181036000830152612e7281612adb565b9050919050565b60006020820190508181036000830152612e9281612afe565b9050919050565b60006020820190508181036000830152612eb281612b21565b9050919050565b60006040820190508181036000830152612ed38185612b44565b9050612ee260208301846127a3565b9392505050565b6000602082019050612efe6000830184612ba2565b92915050565b60008083356001602003843603038112612f2157612f2061339b565b5b80840192508235915067ffffffffffffffff821115612f4357612f42613396565b5b602083019250600182023603831315612f5f57612f5e6133a5565b5b509250929050565b6000612f71612f82565b9050612f7d82826131f6565b919050565b6000604051905090565b600067ffffffffffffffff821115612fa757612fa661335d565b5b612fb0826133b9565b9050602081019050919050565b600067ffffffffffffffff821115612fd857612fd761335d565b5b612fe1826133b9565b9050602081019050919050565b600081519050919050565b600081519050919050565b600082825260208201905092915050565b600082825260208201905092915050565b600082825260208201905092915050565b600082825260208201905092915050565b600081905092915050565b600061305e82613178565b915061306983613178565b9250827fffffffffffffffffffffffffffffffffffffffffffffffffffffffffffffffff0382111561309e5761309d6132a1565b5b828201905092915050565b60006130b482613178565b91506130bf83613178565b9250826130cf576130ce6132d0565b5b828204905092915050565b60006130e582613178565b91506130f083613178565b925082821015613103576131026132a1565b5b828203905092915050565b600061311982613158565b9050919050565b60008115159050919050565b60007fffffffff0000000000000000000000000000000000000000000000000000000082169050919050565b600073ffffffffffffffffffffffffffffffffffffffff82169050919050565b6000819050919050565b82818337600083830152505050565b60005b838110156131af578082015181840152602081019050613194565b838111156131be576000848401525b50505050565b600060028204905060018216806131dc57607f821691505b602082108114156131f0576131ef6132ff565b5b50919050565b6131ff826133b9565b810181811067ffffffffffffffff8211171561321e5761321d61335d565b5b80604052505050565b600061323282613178565b91507fffffffffffffffffffffffffffffffffffffffffffffffffffffffffffffffff821415613265576132646132a1565b5b600182019050919050565b600061327b82613178565b915061328683613178565b925082613296576132956132d0565b5b828206905092915050565b7f4e487b7100000000000000000000000000000000000000000000000000000000600052601160045260246000fd5b7f4e487b7100000000000000000000000000000000000000000000000000000000600052601260045260246000fd5b7f4e487b7100000000000000000000000000000000000000000000000000000000600052602260045260246000fd5b7f4e487b7100000000000000000000000000000000000000000000000000000000600052603260045260246000fd5b7f4e487b7100000000000000000000000000000000000000000000000000000000600052604160045260246000fd5b600080fd5b600080fd5b600080fd5b600080fd5b600080fd5b600080fd5b600080fd5b600080fd5b600080fd5b6000601f19601f8301169050919050565b7f4552433732313a207472616e7366657220746f206e6f6e20455243373231526560008201527f63656976657220696d706c656d656e7465720000000000000000000000000000602082015250565b7f4f776e61626c653a206e6577206f776e657220697320746865207a65726f206160008201527f6464726573730000000000000000000000000000000000000000000000000000602082015250565b7f4552433732313a20746f6b656e20616c7265616479206d696e74656400000000600082015250565b7f4552433732313a207472616e7366657220746f20746865207a65726f2061646460008201527f7265737300000000000000000000000000000000000000000000000000000000602082015250565b7f4552433732313a20617070726f766520746f2063616c6c657200000000000000600082015250565b7f4552433732313a206f70657261746f7220717565727920666f72206e6f6e657860008201527f697374656e7420746f6b656e0000000000000000000000000000000000000000602082015250565b7f4552433732313a20617070726f76652063616c6c6572206973206e6f74206f7760008201527f6e6572206e6f7220617070726f76656420666f7220616c6c0000000000000000602082015250565b7f4552433732313a2062616c616e636520717565727920666f7220746865207a6560008201527f726f206164647265737300000000000000000000000000000000000000000000602082015250565b7f4552433732313a206f776e657220717565727920666f72206e6f6e657869737460008201527f656e7420746f6b656e0000000000000000000000000000000000000000000000602082015250565b7f4e6f756e73546f6b656e3a2055524920717565727920666f72206e6f6e65786960008201527f7374656e7420746f6b656e000000000000000000000000000000000000000000602082015250565b7f4552433732313a206d696e7420746f20746865207a65726f2061646472657373600082015250565b7f4552433732313a20617070726f76656420717565727920666f72206e6f6e657860008201527f697374656e7420746f6b656e0000000000000000000000000000000000000000602082015250565b7f4f776e61626c653a2063616c6c6572206973206e6f7420746865206f776e6572600082015250565b7f506978656c73204f6e636861696e656420230000000000000000000000000000600082015250565b7f4552433732313a207472616e73666572206f6620746f6b656e2074686174206960008201527f73206e6f74206f776e0000000000000000000000000000000000000000000000602082015250565b7f50616c65747465732063616e206f6e6c7920686f6c642032353620636f6c6f7260008201527f7300000000000000000000000000000000000000000000000000000000000000602082015250565b7f4552433732313a20617070726f76616c20746f2063757272656e74206f776e6560008201527f7200000000000000000000000000000000000000000000000000000000000000602082015250565b7f4552433732313a207472616e736665722063616c6c6572206973206e6f74206f60008201527f776e6572206e6f7220617070726f766564000000000000000000000000000000602082015250565b6138a38161310e565b81146138ae57600080fd5b50565b6138ba81613120565b81146138c557600080fd5b50565b6138d18161312c565b81146138dc57600080fd5b50565b6138e881613178565b81146138f357600080fd5b5056fea264697066735822122054f09657533b7b8fd15e4312a167903981d50d58015aaa7e01c42322d64add6164736f6c63430008060033",
  "libraries": {
    "NFTDescriptor": "0x86D613c80Af3078c24F6ba216F5Aa20d4AfB092B"
  },
  "devdoc": {
    "kind": "dev",
    "methods": {
      "approve(address,uint256)": {
        "details": "See {IERC721-approve}."
      },
      "balanceOf(address)": {
        "details": "See {IERC721-balanceOf}."
      },
      "getApproved(uint256)": {
        "details": "See {IERC721-getApproved}."
      },
      "isApprovedForAll(address,address)": {
        "details": "See {IERC721-isApprovedForAll}."
      },
      "name()": {
        "details": "See {IERC721Metadata-name}."
      },
      "owner()": {
        "details": "Returns the address of the current owner."
      },
      "ownerOf(uint256)": {
        "details": "See {IERC721-ownerOf}."
      },
      "renounceOwnership()": {
        "details": "Leaves the contract without owner. It will not be possible to call `onlyOwner` functions anymore. Can only be called by the current owner. NOTE: Renouncing ownership will leave the contract without an owner, thereby removing any functionality that is only available to the owner."
      },
      "safeTransferFrom(address,address,uint256)": {
        "details": "See {IERC721-safeTransferFrom}."
      },
      "safeTransferFrom(address,address,uint256,bytes)": {
        "details": "See {IERC721-safeTransferFrom}."
      },
      "setApprovalForAll(address,bool)": {
        "details": "See {IERC721-setApprovalForAll}."
      },
      "supportsInterface(bytes4)": {
        "details": "See {IERC165-supportsInterface}."
      },
      "symbol()": {
        "details": "See {IERC721Metadata-symbol}."
      },
      "tokenURI(uint256)": {
        "details": "See {IERC721Metadata-tokenURI}."
      },
      "transferFrom(address,address,uint256)": {
        "details": "See {IERC721-transferFrom}."
      },
      "transferOwnership(address)": {
        "details": "Transfers ownership of the contract to a new account (`newOwner`). Can only be called by the current owner."
      }
    },
    "version": 1
  },
  "userdoc": {
    "kind": "user",
    "methods": {
      "dataURI(uint256)": {
        "notice": "Given a token ID and seed, construct a base64 encoded data URI for an official Nouns DAO noun."
      },
      "genericDataURI(string,string,uint256)": {
        "notice": "Given a name, description, and seed, construct a base64 encoded data URI."
      }
    },
    "version": 1
  },
  "storageLayout": {
    "storage": [
      {
        "astId": 130,
        "contract": "contracts/PixelsOnchained.sol:PixelsOnchained",
        "label": "_name",
        "offset": 0,
        "slot": "0",
        "type": "t_string_storage"
      },
      {
        "astId": 132,
        "contract": "contracts/PixelsOnchained.sol:PixelsOnchained",
        "label": "_symbol",
        "offset": 0,
        "slot": "1",
        "type": "t_string_storage"
      },
      {
        "astId": 136,
        "contract": "contracts/PixelsOnchained.sol:PixelsOnchained",
        "label": "_owners",
        "offset": 0,
        "slot": "2",
        "type": "t_mapping(t_uint256,t_address)"
      },
      {
        "astId": 140,
        "contract": "contracts/PixelsOnchained.sol:PixelsOnchained",
        "label": "_balances",
        "offset": 0,
        "slot": "3",
        "type": "t_mapping(t_address,t_uint256)"
      },
      {
        "astId": 144,
        "contract": "contracts/PixelsOnchained.sol:PixelsOnchained",
        "label": "_tokenApprovals",
        "offset": 0,
        "slot": "4",
        "type": "t_mapping(t_uint256,t_address)"
      },
      {
        "astId": 150,
        "contract": "contracts/PixelsOnchained.sol:PixelsOnchained",
        "label": "_operatorApprovals",
        "offset": 0,
        "slot": "5",
        "type": "t_mapping(t_address,t_mapping(t_address,t_bool))"
      },
      {
        "astId": 7,
        "contract": "contracts/PixelsOnchained.sol:PixelsOnchained",
        "label": "_owner",
        "offset": 0,
        "slot": "6",
        "type": "t_address"
      },
      {
        "astId": 2548,
        "contract": "contracts/PixelsOnchained.sol:PixelsOnchained",
        "label": "palettes",
        "offset": 0,
        "slot": "7",
        "type": "t_mapping(t_uint256,t_array(t_string_storage)dyn_storage)"
      },
      {
        "astId": 2552,
        "contract": "contracts/PixelsOnchained.sol:PixelsOnchained",
        "label": "seeds",
        "offset": 0,
        "slot": "8",
        "type": "t_mapping(t_uint256,t_bytes_storage)"
      },
      {
        "astId": 2556,
        "contract": "contracts/PixelsOnchained.sol:PixelsOnchained",
        "label": "names",
        "offset": 0,
        "slot": "9",
        "type": "t_mapping(t_uint256,t_string_storage)"
      },
      {
        "astId": 2558,
        "contract": "contracts/PixelsOnchained.sol:PixelsOnchained",
        "label": "_totalSupply",
        "offset": 0,
        "slot": "10",
        "type": "t_uint256"
      }
    ],
    "types": {
      "t_address": {
        "encoding": "inplace",
        "label": "address",
        "numberOfBytes": "20"
      },
      "t_array(t_string_storage)dyn_storage": {
        "base": "t_string_storage",
        "encoding": "dynamic_array",
        "label": "string[]",
        "numberOfBytes": "32"
      },
      "t_bool": {
        "encoding": "inplace",
        "label": "bool",
        "numberOfBytes": "1"
      },
      "t_bytes_storage": {
        "encoding": "bytes",
        "label": "bytes",
        "numberOfBytes": "32"
      },
      "t_mapping(t_address,t_bool)": {
        "encoding": "mapping",
        "key": "t_address",
        "label": "mapping(address => bool)",
        "numberOfBytes": "32",
        "value": "t_bool"
      },
      "t_mapping(t_address,t_mapping(t_address,t_bool))": {
        "encoding": "mapping",
        "key": "t_address",
        "label": "mapping(address => mapping(address => bool))",
        "numberOfBytes": "32",
        "value": "t_mapping(t_address,t_bool)"
      },
      "t_mapping(t_address,t_uint256)": {
        "encoding": "mapping",
        "key": "t_address",
        "label": "mapping(address => uint256)",
        "numberOfBytes": "32",
        "value": "t_uint256"
      },
      "t_mapping(t_uint256,t_address)": {
        "encoding": "mapping",
        "key": "t_uint256",
        "label": "mapping(uint256 => address)",
        "numberOfBytes": "32",
        "value": "t_address"
      },
      "t_mapping(t_uint256,t_array(t_string_storage)dyn_storage)": {
        "encoding": "mapping",
        "key": "t_uint256",
        "label": "mapping(uint256 => string[])",
        "numberOfBytes": "32",
        "value": "t_array(t_string_storage)dyn_storage"
      },
      "t_mapping(t_uint256,t_bytes_storage)": {
        "encoding": "mapping",
        "key": "t_uint256",
        "label": "mapping(uint256 => bytes)",
        "numberOfBytes": "32",
        "value": "t_bytes_storage"
      },
      "t_mapping(t_uint256,t_string_storage)": {
        "encoding": "mapping",
        "key": "t_uint256",
        "label": "mapping(uint256 => string)",
        "numberOfBytes": "32",
        "value": "t_string_storage"
      },
      "t_string_storage": {
        "encoding": "bytes",
        "label": "string",
        "numberOfBytes": "32"
      },
      "t_uint256": {
        "encoding": "inplace",
        "label": "uint256",
        "numberOfBytes": "32"
      }
    }
  }
}