{
  "address": "0x262c4075Bc8dae427b74Db99286ac2811ad995a9",
  "abi": [
    {
      "anonymous": false,
      "inputs": [
        {
          "indexed": true,
          "internalType": "address",
          "name": "owner",
          "type": "address"
        },
        {
          "indexed": true,
          "internalType": "address",
          "name": "approved",
          "type": "address"
        },
        {
          "indexed": true,
          "internalType": "uint256",
          "name": "tokenId",
          "type": "uint256"
        }
      ],
      "name": "Approval",
      "type": "event"
    },
    {
      "anonymous": false,
      "inputs": [
        {
          "indexed": true,
          "internalType": "address",
          "name": "owner",
          "type": "address"
        },
        {
          "indexed": true,
          "internalType": "address",
          "name": "operator",
          "type": "address"
        },
        {
          "indexed": false,
          "internalType": "bool",
          "name": "approved",
          "type": "bool"
        }
      ],
      "name": "ApprovalForAll",
      "type": "event"
    },
    {
      "anonymous": false,
      "inputs": [
        {
          "indexed": true,
          "internalType": "address",
          "name": "previousOwner",
          "type": "address"
        },
        {
          "indexed": true,
          "internalType": "address",
          "name": "newOwner",
          "type": "address"
        }
      ],
      "name": "OwnershipTransferred",
      "type": "event"
    },
    {
      "anonymous": false,
      "inputs": [
        {
          "indexed": true,
          "internalType": "address",
          "name": "from",
          "type": "address"
        },
        {
          "indexed": true,
          "internalType": "address",
          "name": "to",
          "type": "address"
        },
        {
          "indexed": true,
          "internalType": "uint256",
          "name": "tokenId",
          "type": "uint256"
        }
      ],
      "name": "Transfer",
      "type": "event"
    },
    {
      "inputs": [
        {
          "internalType": "address",
          "name": "to",
          "type": "address"
        },
        {
          "internalType": "uint256",
          "name": "tokenId",
          "type": "uint256"
        }
      ],
      "name": "approve",
      "outputs": [],
      "stateMutability": "nonpayable",
      "type": "function"
    },
    {
      "inputs": [
        {
          "internalType": "address",
          "name": "owner",
          "type": "address"
        }
      ],
      "name": "balanceOf",
      "outputs": [
        {
          "internalType": "uint256",
          "name": "",
          "type": "uint256"
        }
      ],
      "stateMutability": "view",
      "type": "function"
    },
    {
      "inputs": [],
      "name": "contractName",
      "outputs": [
        {
          "internalType": "string",
          "name": "",
          "type": "string"
        }
      ],
      "stateMutability": "view",
      "type": "function"
    },
    {
      "inputs": [
        {
          "internalType": "uint256",
          "name": "tokenId",
          "type": "uint256"
        }
      ],
      "name": "dataURI",
      "outputs": [
        {
          "internalType": "string",
          "name": "",
          "type": "string"
        }
      ],
      "stateMutability": "view",
      "type": "function"
    },
    {
      "inputs": [
        {
          "internalType": "string",
          "name": "name",
          "type": "string"
        },
        {
          "internalType": "string",
          "name": "description",
          "type": "string"
        },
        {
          "internalType": "uint256",
          "name": "tokenId",
          "type": "uint256"
        }
      ],
      "name": "genericDataURI",
      "outputs": [
        {
          "internalType": "string",
          "name": "",
          "type": "string"
        }
      ],
      "stateMutability": "view",
      "type": "function"
    },
    {
      "inputs": [
        {
          "internalType": "uint256",
          "name": "tokenId",
          "type": "uint256"
        }
      ],
      "name": "getApproved",
      "outputs": [
        {
          "internalType": "address",
          "name": "",
          "type": "address"
        }
      ],
      "stateMutability": "view",
      "type": "function"
    },
    {
      "inputs": [
        {
          "internalType": "address",
          "name": "_owner",
          "type": "address"
        },
        {
          "internalType": "string",
          "name": "_name",
          "type": "string"
        },
        {
          "internalType": "string",
          "name": "_symbol",
          "type": "string"
        }
      ],
      "name": "initialize",
      "outputs": [],
      "stateMutability": "nonpayable",
      "type": "function"
    },
    {
      "inputs": [
        {
          "internalType": "address",
          "name": "owner",
          "type": "address"
        },
        {
          "internalType": "address",
          "name": "operator",
          "type": "address"
        }
      ],
      "name": "isApprovedForAll",
      "outputs": [
        {
          "internalType": "bool",
          "name": "",
          "type": "bool"
        }
      ],
      "stateMutability": "view",
      "type": "function"
    },
    {
      "inputs": [
        {
          "internalType": "string",
          "name": "name",
          "type": "string"
        },
        {
          "internalType": "bytes",
          "name": "seed",
          "type": "bytes"
        },
        {
          "internalType": "string[]",
          "name": "colors",
          "type": "string[]"
        },
        {
          "internalType": "address",
          "name": "toAddress",
          "type": "address"
        }
      ],
      "name": "mintNFT",
      "outputs": [],
      "stateMutability": "nonpayable",
      "type": "function"
    },
    {
      "inputs": [],
      "name": "name",
      "outputs": [
        {
          "internalType": "string",
          "name": "",
          "type": "string"
        }
      ],
      "stateMutability": "view",
      "type": "function"
    },
    {
      "inputs": [
        {
          "internalType": "uint256",
          "name": "",
          "type": "uint256"
        }
      ],
      "name": "names",
      "outputs": [
        {
          "internalType": "string",
          "name": "",
          "type": "string"
        }
      ],
      "stateMutability": "view",
      "type": "function"
    },
    {
      "inputs": [],
      "name": "owner",
      "outputs": [
        {
          "internalType": "address",
          "name": "",
          "type": "address"
        }
      ],
      "stateMutability": "view",
      "type": "function"
    },
    {
      "inputs": [
        {
          "internalType": "uint256",
          "name": "tokenId",
          "type": "uint256"
        }
      ],
      "name": "ownerOf",
      "outputs": [
        {
          "internalType": "address",
          "name": "",
          "type": "address"
        }
      ],
      "stateMutability": "view",
      "type": "function"
    },
    {
      "inputs": [
        {
          "internalType": "uint256",
          "name": "",
          "type": "uint256"
        },
        {
          "internalType": "uint256",
          "name": "",
          "type": "uint256"
        }
      ],
      "name": "palettes",
      "outputs": [
        {
          "internalType": "string",
          "name": "",
          "type": "string"
        }
      ],
      "stateMutability": "view",
      "type": "function"
    },
    {
      "inputs": [],
      "name": "renounceOwnership",
      "outputs": [],
      "stateMutability": "nonpayable",
      "type": "function"
    },
    {
      "inputs": [
        {
          "internalType": "address",
          "name": "from",
          "type": "address"
        },
        {
          "internalType": "address",
          "name": "to",
          "type": "address"
        },
        {
          "internalType": "uint256",
          "name": "tokenId",
          "type": "uint256"
        }
      ],
      "name": "safeTransferFrom",
      "outputs": [],
      "stateMutability": "nonpayable",
      "type": "function"
    },
    {
      "inputs": [
        {
          "internalType": "address",
          "name": "from",
          "type": "address"
        },
        {
          "internalType": "address",
          "name": "to",
          "type": "address"
        },
        {
          "internalType": "uint256",
          "name": "tokenId",
          "type": "uint256"
        },
        {
          "internalType": "bytes",
          "name": "_data",
          "type": "bytes"
        }
      ],
      "name": "safeTransferFrom",
      "outputs": [],
      "stateMutability": "nonpayable",
      "type": "function"
    },
    {
      "inputs": [
        {
          "internalType": "uint256",
          "name": "",
          "type": "uint256"
        }
      ],
      "name": "seeds",
      "outputs": [
        {
          "internalType": "bytes",
          "name": "",
          "type": "bytes"
        }
      ],
      "stateMutability": "view",
      "type": "function"
    },
    {
      "inputs": [
        {
          "internalType": "address",
          "name": "operator",
          "type": "address"
        },
        {
          "internalType": "bool",
          "name": "approved",
          "type": "bool"
        }
      ],
      "name": "setApprovalForAll",
      "outputs": [],
      "stateMutability": "nonpayable",
      "type": "function"
    },
    {
      "inputs": [
        {
          "internalType": "bytes4",
          "name": "_interfaceId",
          "type": "bytes4"
        }
      ],
      "name": "supportsInterface",
      "outputs": [
        {
          "internalType": "bool",
          "name": "",
          "type": "bool"
        }
      ],
      "stateMutability": "view",
      "type": "function"
    },
    {
      "inputs": [],
      "name": "symbol",
      "outputs": [
        {
          "internalType": "string",
          "name": "",
          "type": "string"
        }
      ],
      "stateMutability": "view",
      "type": "function"
    },
    {
      "inputs": [
        {
          "internalType": "uint256",
          "name": "tokenId",
          "type": "uint256"
        }
      ],
      "name": "tokenURI",
      "outputs": [
        {
          "internalType": "string",
          "name": "",
          "type": "string"
        }
      ],
      "stateMutability": "view",
      "type": "function"
    },
    {
      "inputs": [],
      "name": "totalSupply",
      "outputs": [
        {
          "internalType": "uint256",
          "name": "",
          "type": "uint256"
        }
      ],
      "stateMutability": "view",
      "type": "function"
    },
    {
      "inputs": [
        {
          "internalType": "address",
          "name": "from",
          "type": "address"
        },
        {
          "internalType": "address",
          "name": "to",
          "type": "address"
        },
        {
          "internalType": "uint256",
          "name": "tokenId",
          "type": "uint256"
        }
      ],
      "name": "transferFrom",
      "outputs": [],
      "stateMutability": "nonpayable",
      "type": "function"
    },
    {
      "inputs": [
        {
          "internalType": "address",
          "name": "newOwner",
          "type": "address"
        }
      ],
      "name": "transferOwnership",
      "outputs": [],
      "stateMutability": "nonpayable",
      "type": "function"
    }
  ],
  "transactionHash": "0x129f45a7e1231aab61cc5b8f3866239683e3c4929c8e0a2d03fc60e391346671",
  "args": [],
  "numDeployments": 1,
  "solcInputHash": "fcd7d2c402248922dc875bdb1ca95d98",
  "bytecode": "0x608060405234801561001057600080fd5b50613f8b806100206000396000f3fe608060405234801561001057600080fd5b50600436106101735760003560e01c8063715018a6116100de578063a22cb46511610097578063e985e9c511610071578063e985e9c51461045c578063f0503e801461048c578063f1dc193a146104bc578063f2fde38b146104ec57610173565b8063a22cb465146103f4578063b88d4fde14610410578063c87b56dd1461042c57610173565b8063715018a61461035857806375d0c0dc146103625780638a704d75146103805780638da5cb5b1461039c57806390657147146103ba57806395d89b41146103d657610173565b806323b872dd1161013057806323b872dd1461026057806342842e0e1461027c5780634622ab03146102985780635ac1e3bb146102c85780636352211e146102f857806370a082311461032857610173565b806301ffc9a71461017857806306fdde03146101a8578063081812fc146101c6578063095ea7b3146101f657806318160ddd146102125780631958634814610230575b600080fd5b610192600480360381019061018d91906129f6565b610508565b60405161019f91906131cc565b60405180910390f35b6101b061051a565b6040516101bd9190613209565b60405180910390f35b6101e060048036038101906101db9190612be7565b6105ac565b6040516101ed9190613165565b60405180910390f35b610210600480360381019061020b91906129b6565b610631565b005b61021a610749565b60405161022791906134bb565b60405180910390f35b61024a60048036038101906102459190612b5c565b610753565b6040516102579190613209565b60405180910390f35b61027a60048036038101906102759190612815565b6108b9565b005b61029660048036038101906102919190612815565b610919565b005b6102b260048036038101906102ad9190612be7565b610939565b6040516102bf9190613209565b60405180910390f35b6102e260048036038101906102dd9190612be7565b6109d9565b6040516102ef9190613209565b60405180910390f35b610312600480360381019061030d9190612be7565b610abe565b60405161031f9190613165565b60405180910390f35b610342600480360381019061033d91906127a8565b610b70565b60405161034f91906134bb565b60405180910390f35b610360610c28565b005b61036a610cb0565b6040516103779190613209565b60405180910390f35b61039a60048036038101906103959190612a50565b610d3e565b005b6103a4610efc565b6040516103b19190613165565b60405180910390f35b6103d460048036038101906103cf919061292b565b610f26565b005b6103de61103f565b6040516103eb9190613209565b60405180910390f35b61040e600480360381019061040991906128eb565b6110d1565b005b61042a60048036038101906104259190612868565b6110e7565b005b61044660048036038101906104419190612be7565b611149565b6040516104539190613209565b60405180910390f35b610476600480360381019061047191906127d5565b6111a3565b60405161048391906131cc565b60405180910390f35b6104a660048036038101906104a19190612be7565b611237565b6040516104b391906131e7565b60405180910390f35b6104d660048036038101906104d19190612c14565b6112d7565b6040516104e39190613209565b60405180910390f35b610506600480360381019061050191906127a8565b611390565b005b600061051382611488565b9050919050565b606060658054610529906137ab565b80601f0160208091040260200160405190810160405280929190818152602001828054610555906137ab565b80156105a25780601f10610577576101008083540402835291602001916105a2565b820191906000526020600020905b81548152906001019060200180831161058557829003601f168201915b5050505050905090565b60006105b78261156a565b6105f6576040517f08c379a00000000000000000000000000000000000000000000000000000000081526004016105ed906133cb565b60405180910390fd5b6069600083815260200190815260200160002060009054906101000a900473ffffffffffffffffffffffffffffffffffffffff169050919050565b600061063c82610abe565b90508073ffffffffffffffffffffffffffffffffffffffff168373ffffffffffffffffffffffffffffffffffffffff1614156106ad576040517f08c379a00000000000000000000000000000000000000000000000000000000081526004016106a49061342b565b60405180910390fd5b8073ffffffffffffffffffffffffffffffffffffffff166106cc6115d6565b73ffffffffffffffffffffffffffffffffffffffff1614806106fb57506106fa816106f56115d6565b6111a3565b5b61073a576040517f08c379a00000000000000000000000000000000000000000000000000000000081526004016107319061332b565b60405180910390fd5b61074483836115de565b505050565b600060cc54905090565b60606000604051806060016040528086815260200185815260200160ca6000868152602001908152602001600020805461078c906137ab565b80601f01602080910402602001604051908101604052809291908181526020018280546107b8906137ab565b80156108055780601f106107da57610100808354040283529160200191610805565b820191906000526020600020905b8154815290600101906020018083116107e857829003601f168201915b50505050508152509050737f7175b177FD915f731316dA0Cbba62F62971135636c2a0e3c8260c960008781526020019081526020016000206040518363ffffffff1660e01b815260040161085a92919061348b565b60006040518083038186803b15801561087257600080fd5b505af4158015610886573d6000803e3d6000fd5b505050506040513d6000823e3d601f19601f820116820180604052508101906108af9190612b13565b9150509392505050565b6108ca6108c46115d6565b82611697565b610909576040517f08c379a00000000000000000000000000000000000000000000000000000000081526004016109009061344b565b60405180910390fd5b610914838383611775565b505050565b610934838383604051806020016040528060008152506110e7565b505050565b60cb6020528060005260406000206000915090508054610958906137ab565b80601f0160208091040260200160405190810160405280929190818152602001828054610984906137ab565b80156109d15780601f106109a6576101008083540402835291602001916109d1565b820191906000526020600020905b8154815290600101906020018083116109b457829003601f168201915b505050505081565b6060600060cb600084815260200190815260200160002080546109fb906137ab565b80601f0160208091040260200160405190810160405280929190818152602001828054610a27906137ab565b8015610a745780601f10610a4957610100808354040283529160200191610a74565b820191906000526020600020905b815481529060010190602001808311610a5757829003601f168201915b50505050509050600060cd610a88856119dc565b604051602001610a99929190613136565b6040516020818303038152906040529050610ab5828286610753565b92505050919050565b6000806067600084815260200190815260200160002060009054906101000a900473ffffffffffffffffffffffffffffffffffffffff169050600073ffffffffffffffffffffffffffffffffffffffff168173ffffffffffffffffffffffffffffffffffffffff161415610b67576040517f08c379a0000000000000000000000000000000000000000000000000000000008152600401610b5e9061336b565b60405180910390fd5b80915050919050565b60008073ffffffffffffffffffffffffffffffffffffffff168273ffffffffffffffffffffffffffffffffffffffff161415610be1576040517f08c379a0000000000000000000000000000000000000000000000000000000008152600401610bd89061334b565b60405180910390fd5b606860008373ffffffffffffffffffffffffffffffffffffffff1673ffffffffffffffffffffffffffffffffffffffff168152602001908152602001600020549050919050565b610c306115d6565b73ffffffffffffffffffffffffffffffffffffffff16610c4e610efc565b73ffffffffffffffffffffffffffffffffffffffff1614610ca4576040517f08c379a0000000000000000000000000000000000000000000000000000000008152600401610c9b906133eb565b60405180910390fd5b610cae6000611b3d565b565b60cd8054610cbd906137ab565b80601f0160208091040260200160405190810160405280929190818152602001828054610ce9906137ab565b8015610d365780601f10610d0b57610100808354040283529160200191610d36565b820191906000526020600020905b815481529060010190602001808311610d1957829003601f168201915b505050505081565b610d466115d6565b73ffffffffffffffffffffffffffffffffffffffff16610d64610efc565b73ffffffffffffffffffffffffffffffffffffffff1614610dba576040517f08c379a0000000000000000000000000000000000000000000000000000000008152600401610db1906133eb565b60405180910390fd5b6000600160cc54610dcb919061363a565b90506101008484905060c9600084815260200190815260200160002080549050610df5919061363a565b1115610e36576040517f08c379a0000000000000000000000000000000000000000000000000000000008152600401610e2d9061340b565b60405180910390fd5b60005b84849050811015610e8557610e7282868684818110610e5b57610e5a613915565b5b9050602002810190610e6d91906134d6565b611c03565b8080610e7d9061380e565b915050610e39565b50868660cb60008481526020019081526020016000209190610ea8929190612394565b508460ca60008381526020019081526020016000209080519060200190610ed092919061241a565b5060cc6000815480929190610ee49061380e565b9190505550610ef38282611c57565b50505050505050565b6000609760009054906101000a900473ffffffffffffffffffffffffffffffffffffffff16905090565b600060019054906101000a900460ff16610f4e5760008054906101000a900460ff1615610f57565b610f56611c75565b5b610f96576040517f08c379a0000000000000000000000000000000000000000000000000000000008152600401610f8d9061338b565b60405180910390fd5b60008060019054906101000a900460ff161590508015610fe6576001600060016101000a81548160ff02191690831515021790555060016000806101000a81548160ff0219169083151502179055505b610fee611c86565b610ff784611390565b6110018383611ce7565b8260cd90805190602001906110179291906124a0565b5080156110395760008060016101000a81548160ff0219169083151502179055505b50505050565b60606066805461104e906137ab565b80601f016020809104026020016040519081016040528092919081815260200182805461107a906137ab565b80156110c75780601f1061109c576101008083540402835291602001916110c7565b820191906000526020600020905b8154815290600101906020018083116110aa57829003601f168201915b5050505050905090565b6110e36110dc6115d6565b8383611d68565b5050565b6110f86110f26115d6565b83611697565b611137576040517f08c379a000000000000000000000000000000000000000000000000000000000815260040161112e9061344b565b60405180910390fd5b61114384848484611ed5565b50505050565b60606111548261156a565b611193576040517f08c379a000000000000000000000000000000000000000000000000000000000815260040161118a9061322b565b60405180910390fd5b61119c826109d9565b9050919050565b6000606a60008473ffffffffffffffffffffffffffffffffffffffff1673ffffffffffffffffffffffffffffffffffffffff16815260200190815260200160002060008373ffffffffffffffffffffffffffffffffffffffff1673ffffffffffffffffffffffffffffffffffffffff16815260200190815260200160002060009054906101000a900460ff16905092915050565b60ca6020528060005260406000206000915090508054611256906137ab565b80601f0160208091040260200160405190810160405280929190818152602001828054611282906137ab565b80156112cf5780601f106112a4576101008083540402835291602001916112cf565b820191906000526020600020905b8154815290600101906020018083116112b257829003601f168201915b505050505081565b60c960205281600052604060002081815481106112f357600080fd5b9060005260206000200160009150915050805461130f906137ab565b80601f016020809104026020016040519081016040528092919081815260200182805461133b906137ab565b80156113885780601f1061135d57610100808354040283529160200191611388565b820191906000526020600020905b81548152906001019060200180831161136b57829003601f168201915b505050505081565b6113986115d6565b73ffffffffffffffffffffffffffffffffffffffff166113b6610efc565b73ffffffffffffffffffffffffffffffffffffffff161461140c576040517f08c379a0000000000000000000000000000000000000000000000000000000008152600401611403906133eb565b60405180910390fd5b600073ffffffffffffffffffffffffffffffffffffffff168173ffffffffffffffffffffffffffffffffffffffff16141561147c576040517f08c379a00000000000000000000000000000000000000000000000000000000081526004016114739061326b565b60405180910390fd5b61148581611b3d565b50565b60007f80ac58cd000000000000000000000000000000000000000000000000000000007bffffffffffffffffffffffffffffffffffffffffffffffffffffffff1916827bffffffffffffffffffffffffffffffffffffffffffffffffffffffff1916148061155357507f5b5e139f000000000000000000000000000000000000000000000000000000007bffffffffffffffffffffffffffffffffffffffffffffffffffffffff1916827bffffffffffffffffffffffffffffffffffffffffffffffffffffffff1916145b80611563575061156282611f31565b5b9050919050565b60008073ffffffffffffffffffffffffffffffffffffffff166067600084815260200190815260200160002060009054906101000a900473ffffffffffffffffffffffffffffffffffffffff1673ffffffffffffffffffffffffffffffffffffffff1614159050919050565b600033905090565b816069600083815260200190815260200160002060006101000a81548173ffffffffffffffffffffffffffffffffffffffff021916908373ffffffffffffffffffffffffffffffffffffffff160217905550808273ffffffffffffffffffffffffffffffffffffffff1661165183610abe565b73ffffffffffffffffffffffffffffffffffffffff167f8c5be1e5ebec7d5bd14f71427d1e84f3dd0314c0f7b2291e5b200ac8c7c3b92560405160405180910390a45050565b60006116a28261156a565b6116e1576040517f08c379a00000000000000000000000000000000000000000000000000000000081526004016116d89061330b565b60405180910390fd5b60006116ec83610abe565b90508073ffffffffffffffffffffffffffffffffffffffff168473ffffffffffffffffffffffffffffffffffffffff16148061175b57508373ffffffffffffffffffffffffffffffffffffffff16611743846105ac565b73ffffffffffffffffffffffffffffffffffffffff16145b8061176c575061176b81856111a3565b5b91505092915050565b8273ffffffffffffffffffffffffffffffffffffffff1661179582610abe565b73ffffffffffffffffffffffffffffffffffffffff16146117eb576040517f08c379a00000000000000000000000000000000000000000000000000000000081526004016117e29061328b565b60405180910390fd5b600073ffffffffffffffffffffffffffffffffffffffff168273ffffffffffffffffffffffffffffffffffffffff16141561185b576040517f08c379a0000000000000000000000000000000000000000000000000000000008152600401611852906132cb565b60405180910390fd5b611866838383611f9b565b6118716000826115de565b6001606860008573ffffffffffffffffffffffffffffffffffffffff1673ffffffffffffffffffffffffffffffffffffffff16815260200190815260200160002060008282546118c191906136c1565b925050819055506001606860008473ffffffffffffffffffffffffffffffffffffffff1673ffffffffffffffffffffffffffffffffffffffff1681526020019081526020016000206000828254611918919061363a565b92505081905550816067600083815260200190815260200160002060006101000a81548173ffffffffffffffffffffffffffffffffffffffff021916908373ffffffffffffffffffffffffffffffffffffffff160217905550808273ffffffffffffffffffffffffffffffffffffffff168473ffffffffffffffffffffffffffffffffffffffff167fddf252ad1be2c89b69c2b068fc378daa952ba7f163c4a11628f55a4df523b3ef60405160405180910390a46119d7838383611fa0565b505050565b60606000821415611a24576040518060400160405280600181526020017f30000000000000000000000000000000000000000000000000000000000000008152509050611b38565b600082905060005b60008214611a56578080611a3f9061380e565b915050600a82611a4f9190613690565b9150611a2c565b60008167ffffffffffffffff811115611a7257611a71613944565b5b6040519080825280601f01601f191660200182016040528015611aa45781602001600182028036833780820191505090505b5090505b60008514611b3157600182611abd91906136c1565b9150600a85611acc9190613857565b6030611ad8919061363a565b60f81b818381518110611aee57611aed613915565b5b60200101907effffffffffffffffffffffffffffffffffffffffffffffffffffffffffffff1916908160001a905350600a85611b2a9190613690565b9450611aa8565b8093505050505b919050565b6000609760009054906101000a900473ffffffffffffffffffffffffffffffffffffffff16905081609760006101000a81548173ffffffffffffffffffffffffffffffffffffffff021916908373ffffffffffffffffffffffffffffffffffffffff1602179055508173ffffffffffffffffffffffffffffffffffffffff168173ffffffffffffffffffffffffffffffffffffffff167f8be0079c531659141344cd1fd0a4f28419497f9722a3daafe3b4186f6b6457e060405160405180910390a35050565b60c96000848152602001908152602001600020828290918060018154018082558091505060019003906000526020600020016000909192909192909192909192509190611c51929190612394565b50505050565b611c71828260405180602001604052806000815250611fa5565b5050565b6000611c8030612000565b15905090565b600060019054906101000a900460ff16611cd5576040517f08c379a0000000000000000000000000000000000000000000000000000000008152600401611ccc9061346b565b60405180910390fd5b611ce5611ce06115d6565b611b3d565b565b600060019054906101000a900460ff16611d36576040517f08c379a0000000000000000000000000000000000000000000000000000000008152600401611d2d9061346b565b60405180910390fd5b8160659080519060200190611d4c9291906124a0565b508060669080519060200190611d639291906124a0565b505050565b8173ffffffffffffffffffffffffffffffffffffffff168373ffffffffffffffffffffffffffffffffffffffff161415611dd7576040517f08c379a0000000000000000000000000000000000000000000000000000000008152600401611dce906132eb565b60405180910390fd5b80606a60008573ffffffffffffffffffffffffffffffffffffffff1673ffffffffffffffffffffffffffffffffffffffff16815260200190815260200160002060008473ffffffffffffffffffffffffffffffffffffffff1673ffffffffffffffffffffffffffffffffffffffff16815260200190815260200160002060006101000a81548160ff0219169083151502179055508173ffffffffffffffffffffffffffffffffffffffff168373ffffffffffffffffffffffffffffffffffffffff167f17307eab39ab6107e8899845ad3d59bd9653f200f220920489ca2b5937696c3183604051611ec891906131cc565b60405180910390a3505050565b611ee0848484611775565b611eec84848484612023565b611f2b576040517f08c379a0000000000000000000000000000000000000000000000000000000008152600401611f229061324b565b60405180910390fd5b50505050565b60007f01ffc9a7000000000000000000000000000000000000000000000000000000007bffffffffffffffffffffffffffffffffffffffffffffffffffffffff1916827bffffffffffffffffffffffffffffffffffffffffffffffffffffffff1916149050919050565b505050565b505050565b611faf83836121ba565b611fbc6000848484612023565b611ffb576040517f08c379a0000000000000000000000000000000000000000000000000000000008152600401611ff29061324b565b60405180910390fd5b505050565b6000808273ffffffffffffffffffffffffffffffffffffffff163b119050919050565b60006120448473ffffffffffffffffffffffffffffffffffffffff16612000565b156121ad578373ffffffffffffffffffffffffffffffffffffffff1663150b7a0261206d6115d6565b8786866040518563ffffffff1660e01b815260040161208f9493929190613180565b602060405180830381600087803b1580156120a957600080fd5b505af19250505080156120da57506040513d601f19601f820116820180604052508101906120d79190612a23565b60015b61215d573d806000811461210a576040519150601f19603f3d011682016040523d82523d6000602084013e61210f565b606091505b50600081511415612155576040517f08c379a000000000000000000000000000000000000000000000000000000000815260040161214c9061324b565b60405180910390fd5b805181602001fd5b63150b7a0260e01b7bffffffffffffffffffffffffffffffffffffffffffffffffffffffff1916817bffffffffffffffffffffffffffffffffffffffffffffffffffffffff1916149150506121b2565b600190505b949350505050565b600073ffffffffffffffffffffffffffffffffffffffff168273ffffffffffffffffffffffffffffffffffffffff16141561222a576040517f08c379a0000000000000000000000000000000000000000000000000000000008152600401612221906133ab565b60405180910390fd5b6122338161156a565b15612273576040517f08c379a000000000000000000000000000000000000000000000000000000000815260040161226a906132ab565b60405180910390fd5b61227f60008383611f9b565b6001606860008473ffffffffffffffffffffffffffffffffffffffff1673ffffffffffffffffffffffffffffffffffffffff16815260200190815260200160002060008282546122cf919061363a565b92505081905550816067600083815260200190815260200160002060006101000a81548173ffffffffffffffffffffffffffffffffffffffff021916908373ffffffffffffffffffffffffffffffffffffffff160217905550808273ffffffffffffffffffffffffffffffffffffffff16600073ffffffffffffffffffffffffffffffffffffffff167fddf252ad1be2c89b69c2b068fc378daa952ba7f163c4a11628f55a4df523b3ef60405160405180910390a461239060008383611fa0565b5050565b8280546123a0906137ab565b90600052602060002090601f0160209004810192826123c25760008555612409565b82601f106123db57803560ff1916838001178555612409565b82800160010185558215612409579182015b828111156124085782358255916020019190600101906123ed565b5b5090506124169190612526565b5090565b828054612426906137ab565b90600052602060002090601f016020900481019282612448576000855561248f565b82601f1061246157805160ff191683800117855561248f565b8280016001018555821561248f579182015b8281111561248e578251825591602001919060010190612473565b5b50905061249c9190612526565b5090565b8280546124ac906137ab565b90600052602060002090601f0160209004810192826124ce5760008555612515565b82601f106124e757805160ff1916838001178555612515565b82800160010185558215612515579182015b828111156125145782518255916020019190600101906124f9565b5b5090506125229190612526565b5090565b5b8082111561253f576000816000905550600101612527565b5090565b60006125566125518461355e565b613539565b90508281526020810184848401111561257257612571613991565b5b61257d848285613769565b509392505050565b60006125986125938461358f565b613539565b9050828152602081018484840111156125b4576125b3613991565b5b6125bf848285613769565b509392505050565b60006125da6125d58461358f565b613539565b9050828152602081018484840111156125f6576125f5613991565b5b612601848285613778565b509392505050565b60008135905061261881613ef9565b92915050565b60008083601f84011261263457612633613978565b5b8235905067ffffffffffffffff81111561265157612650613973565b5b60208301915083602082028301111561266d5761266c613987565b5b9250929050565b60008135905061268381613f10565b92915050565b60008135905061269881613f27565b92915050565b6000815190506126ad81613f27565b92915050565b600082601f8301126126c8576126c7613978565b5b81356126d8848260208601612543565b91505092915050565b60008083601f8401126126f7576126f6613978565b5b8235905067ffffffffffffffff81111561271457612713613973565b5b6020830191508360018202830111156127305761272f613987565b5b9250929050565b600082601f83011261274c5761274b613978565b5b813561275c848260208601612585565b91505092915050565b600082601f83011261277a57612779613978565b5b815161278a8482602086016125c7565b91505092915050565b6000813590506127a281613f3e565b92915050565b6000602082840312156127be576127bd61399b565b5b60006127cc84828501612609565b91505092915050565b600080604083850312156127ec576127eb61399b565b5b60006127fa85828601612609565b925050602061280b85828601612609565b9150509250929050565b60008060006060848603121561282e5761282d61399b565b5b600061283c86828701612609565b935050602061284d86828701612609565b925050604061285e86828701612793565b9150509250925092565b600080600080608085870312156128825761288161399b565b5b600061289087828801612609565b94505060206128a187828801612609565b93505060406128b287828801612793565b925050606085013567ffffffffffffffff8111156128d3576128d2613996565b5b6128df878288016126b3565b91505092959194509250565b600080604083850312156129025761290161399b565b5b600061291085828601612609565b925050602061292185828601612674565b9150509250929050565b6000806000606084860312156129445761294361399b565b5b600061295286828701612609565b935050602084013567ffffffffffffffff81111561297357612972613996565b5b61297f86828701612737565b925050604084013567ffffffffffffffff8111156129a05761299f613996565b5b6129ac86828701612737565b9150509250925092565b600080604083850312156129cd576129cc61399b565b5b60006129db85828601612609565b92505060206129ec85828601612793565b9150509250929050565b600060208284031215612a0c57612a0b61399b565b5b6000612a1a84828501612689565b91505092915050565b600060208284031215612a3957612a3861399b565b5b6000612a478482850161269e565b91505092915050565b60008060008060008060808789031215612a6d57612a6c61399b565b5b600087013567ffffffffffffffff811115612a8b57612a8a613996565b5b612a9789828a016126e1565b9650965050602087013567ffffffffffffffff811115612aba57612ab9613996565b5b612ac689828a016126b3565b945050604087013567ffffffffffffffff811115612ae757612ae6613996565b5b612af389828a0161261e565b93509350506060612b0689828a01612609565b9150509295509295509295565b600060208284031215612b2957612b2861399b565b5b600082015167ffffffffffffffff811115612b4757612b46613996565b5b612b5384828501612765565b91505092915050565b600080600060608486031215612b7557612b7461399b565b5b600084013567ffffffffffffffff811115612b9357612b92613996565b5b612b9f86828701612737565b935050602084013567ffffffffffffffff811115612bc057612bbf613996565b5b612bcc86828701612737565b9250506040612bdd86828701612793565b9150509250925092565b600060208284031215612bfd57612bfc61399b565b5b6000612c0b84828501612793565b91505092915050565b60008060408385031215612c2b57612c2a61399b565b5b6000612c3985828601612793565b9250506020612c4a85828601612793565b9150509250929050565b612c5d816136f5565b82525050565b8082525050565b612c7381613707565b82525050565b6000612c84826135d5565b612c8e81856135eb565b9350612c9e818560208601613778565b612ca7816139a0565b840191505092915050565b6000612cbd826135d5565b612cc781856135fc565b9350612cd7818560208601613778565b612ce0816139a0565b840191505092915050565b6000612cf6826135e0565b612d00818561360d565b9350612d10818560208601613778565b612d19816139a0565b840191505092915050565b6000612d2f826135e0565b612d39818561361e565b9350612d49818560208601613778565b612d52816139a0565b840191505092915050565b6000612d68826135e0565b612d72818561362f565b9350612d82818560208601613778565b80840191505092915050565b60008154612d9b816137ab565b612da5818661362f565b94506001821660008114612dc05760018114612dd157612e04565b60ff19831686528186019350612e04565b612dda856135c0565b60005b83811015612dfc57815481890152600182019150602081019050612ddd565b838801955050505b50505092915050565b6000612e1a601f8361360d565b9150612e25826139b1565b602082019050919050565b6000612e3d60328361360d565b9150612e48826139da565b604082019050919050565b6000612e6060028361362f565b9150612e6b82613a29565b600282019050919050565b6000612e8360268361360d565b9150612e8e82613a52565b604082019050919050565b6000612ea660258361360d565b9150612eb182613aa1565b604082019050919050565b6000612ec9601c8361360d565b9150612ed482613af0565b602082019050919050565b6000612eec60248361360d565b9150612ef782613b19565b604082019050919050565b6000612f0f60198361360d565b9150612f1a82613b68565b602082019050919050565b6000612f32602c8361360d565b9150612f3d82613b91565b604082019050919050565b6000612f5560388361360d565b9150612f6082613be0565b604082019050919050565b6000612f78602a8361360d565b9150612f8382613c2f565b604082019050919050565b6000612f9b60298361360d565b9150612fa682613c7e565b604082019050919050565b6000612fbe602e8361360d565b9150612fc982613ccd565b604082019050919050565b6000612fe160208361360d565b9150612fec82613d1c565b602082019050919050565b6000613004602c8361360d565b915061300f82613d45565b604082019050919050565b600061302760208361360d565b915061303282613d94565b602082019050919050565b600061304a60218361360d565b915061305582613dbd565b604082019050919050565b600061306d60218361360d565b915061307882613e0c565b604082019050919050565b600061309060318361360d565b915061309b82613e5b565b604082019050919050565b60006130b3602b8361360d565b91506130be82613eaa565b604082019050919050565b600060608301600083015184820360008601526130e68282612d24565b915050602083015184820360208601526131008282612d24565b9150506040830151848203604086015261311a8282612cb2565b9150508091505092915050565b6131308161375f565b82525050565b60006131428285612d8e565b915061314d82612e53565b91506131598284612d5d565b91508190509392505050565b600060208201905061317a6000830184612c54565b92915050565b60006080820190506131956000830187612c54565b6131a26020830186612c54565b6131af6040830185613127565b81810360608301526131c18184612c79565b905095945050505050565b60006020820190506131e16000830184612c6a565b92915050565b600060208201905081810360008301526132018184612c79565b905092915050565b600060208201905081810360008301526132238184612ceb565b905092915050565b6000602082019050818103600083015261324481612e0d565b9050919050565b6000602082019050818103600083015261326481612e30565b9050919050565b6000602082019050818103600083015261328481612e76565b9050919050565b600060208201905081810360008301526132a481612e99565b9050919050565b600060208201905081810360008301526132c481612ebc565b9050919050565b600060208201905081810360008301526132e481612edf565b9050919050565b6000602082019050818103600083015261330481612f02565b9050919050565b6000602082019050818103600083015261332481612f25565b9050919050565b6000602082019050818103600083015261334481612f48565b9050919050565b6000602082019050818103600083015261336481612f6b565b9050919050565b6000602082019050818103600083015261338481612f8e565b9050919050565b600060208201905081810360008301526133a481612fb1565b9050919050565b600060208201905081810360008301526133c481612fd4565b9050919050565b600060208201905081810360008301526133e481612ff7565b9050919050565b600060208201905081810360008301526134048161301a565b9050919050565b600060208201905081810360008301526134248161303d565b9050919050565b6000602082019050818103600083015261344481613060565b9050919050565b6000602082019050818103600083015261346481613083565b9050919050565b60006020820190508181036000830152613484816130a6565b9050919050565b600060408201905081810360008301526134a581856130c9565b90506134b46020830184612c63565b9392505050565b60006020820190506134d06000830184613127565b92915050565b600080833560016020038436030381126134f3576134f2613982565b5b80840192508235915067ffffffffffffffff8211156135155761351461397d565b5b6020830192506001820236038313156135315761353061398c565b5b509250929050565b6000613543613554565b905061354f82826137dd565b919050565b6000604051905090565b600067ffffffffffffffff82111561357957613578613944565b5b613582826139a0565b9050602081019050919050565b600067ffffffffffffffff8211156135aa576135a9613944565b5b6135b3826139a0565b9050602081019050919050565b60008190508160005260206000209050919050565b600081519050919050565b600081519050919050565b600082825260208201905092915050565b600082825260208201905092915050565b600082825260208201905092915050565b600082825260208201905092915050565b600081905092915050565b60006136458261375f565b91506136508361375f565b9250827fffffffffffffffffffffffffffffffffffffffffffffffffffffffffffffffff0382111561368557613684613888565b5b828201905092915050565b600061369b8261375f565b91506136a68361375f565b9250826136b6576136b56138b7565b5b828204905092915050565b60006136cc8261375f565b91506136d78361375f565b9250828210156136ea576136e9613888565b5b828203905092915050565b60006137008261373f565b9050919050565b60008115159050919050565b60007fffffffff0000000000000000000000000000000000000000000000000000000082169050919050565b600073ffffffffffffffffffffffffffffffffffffffff82169050919050565b6000819050919050565b82818337600083830152505050565b60005b8381101561379657808201518184015260208101905061377b565b838111156137a5576000848401525b50505050565b600060028204905060018216806137c357607f821691505b602082108114156137d7576137d66138e6565b5b50919050565b6137e6826139a0565b810181811067ffffffffffffffff8211171561380557613804613944565b5b80604052505050565b60006138198261375f565b91507fffffffffffffffffffffffffffffffffffffffffffffffffffffffffffffffff82141561384c5761384b613888565b5b600182019050919050565b60006138628261375f565b915061386d8361375f565b92508261387d5761387c6138b7565b5b828206905092915050565b7f4e487b7100000000000000000000000000000000000000000000000000000000600052601160045260246000fd5b7f4e487b7100000000000000000000000000000000000000000000000000000000600052601260045260246000fd5b7f4e487b7100000000000000000000000000000000000000000000000000000000600052602260045260246000fd5b7f4e487b7100000000000000000000000000000000000000000000000000000000600052603260045260246000fd5b7f4e487b7100000000000000000000000000000000000000000000000000000000600052604160045260246000fd5b600080fd5b600080fd5b600080fd5b600080fd5b600080fd5b600080fd5b600080fd5b600080fd5b600080fd5b6000601f19601f8301169050919050565b7f55524920717565727920666f72206e6f6e6578697374656e7420746f6b656e00600082015250565b7f4552433732313a207472616e7366657220746f206e6f6e20455243373231526560008201527f63656976657220696d706c656d656e7465720000000000000000000000000000602082015250565b7f2023000000000000000000000000000000000000000000000000000000000000600082015250565b7f4f776e61626c653a206e6577206f776e657220697320746865207a65726f206160008201527f6464726573730000000000000000000000000000000000000000000000000000602082015250565b7f4552433732313a207472616e736665722066726f6d20696e636f72726563742060008201527f6f776e6572000000000000000000000000000000000000000000000000000000602082015250565b7f4552433732313a20746f6b656e20616c7265616479206d696e74656400000000600082015250565b7f4552433732313a207472616e7366657220746f20746865207a65726f2061646460008201527f7265737300000000000000000000000000000000000000000000000000000000602082015250565b7f4552433732313a20617070726f766520746f2063616c6c657200000000000000600082015250565b7f4552433732313a206f70657261746f7220717565727920666f72206e6f6e657860008201527f697374656e7420746f6b656e0000000000000000000000000000000000000000602082015250565b7f4552433732313a20617070726f76652063616c6c6572206973206e6f74206f7760008201527f6e6572206e6f7220617070726f76656420666f7220616c6c0000000000000000602082015250565b7f4552433732313a2062616c616e636520717565727920666f7220746865207a6560008201527f726f206164647265737300000000000000000000000000000000000000000000602082015250565b7f4552433732313a206f776e657220717565727920666f72206e6f6e657869737460008201527f656e7420746f6b656e0000000000000000000000000000000000000000000000602082015250565b7f496e697469616c697a61626c653a20636f6e747261637420697320616c72656160008201527f647920696e697469616c697a6564000000000000000000000000000000000000602082015250565b7f4552433732313a206d696e7420746f20746865207a65726f2061646472657373600082015250565b7f4552433732313a20617070726f76656420717565727920666f72206e6f6e657860008201527f697374656e7420746f6b656e0000000000000000000000000000000000000000602082015250565b7f4f776e61626c653a2063616c6c6572206973206e6f7420746865206f776e6572600082015250565b7f50616c65747465732063616e206f6e6c7920686f6c642032353620636f6c6f7260008201527f7300000000000000000000000000000000000000000000000000000000000000602082015250565b7f4552433732313a20617070726f76616c20746f2063757272656e74206f776e6560008201527f7200000000000000000000000000000000000000000000000000000000000000602082015250565b7f4552433732313a207472616e736665722063616c6c6572206973206e6f74206f60008201527f776e6572206e6f7220617070726f766564000000000000000000000000000000602082015250565b7f496e697469616c697a61626c653a20636f6e7472616374206973206e6f74206960008201527f6e697469616c697a696e67000000000000000000000000000000000000000000602082015250565b613f02816136f5565b8114613f0d57600080fd5b50565b613f1981613707565b8114613f2457600080fd5b50565b613f3081613713565b8114613f3b57600080fd5b50565b613f478161375f565b8114613f5257600080fd5b5056fea2646970667358221220ac11638f68d8c83e0fa0b5a19f5768c8e1cc8ad3db740cc204734a76b3cbec2b64736f6c63430008060033",
  "deployedBytecode": "0x608060405234801561001057600080fd5b50600436106101735760003560e01c8063715018a6116100de578063a22cb46511610097578063e985e9c511610071578063e985e9c51461045c578063f0503e801461048c578063f1dc193a146104bc578063f2fde38b146104ec57610173565b8063a22cb465146103f4578063b88d4fde14610410578063c87b56dd1461042c57610173565b8063715018a61461035857806375d0c0dc146103625780638a704d75146103805780638da5cb5b1461039c57806390657147146103ba57806395d89b41146103d657610173565b806323b872dd1161013057806323b872dd1461026057806342842e0e1461027c5780634622ab03146102985780635ac1e3bb146102c85780636352211e146102f857806370a082311461032857610173565b806301ffc9a71461017857806306fdde03146101a8578063081812fc146101c6578063095ea7b3146101f657806318160ddd146102125780631958634814610230575b600080fd5b610192600480360381019061018d91906129f6565b610508565b60405161019f91906131cc565b60405180910390f35b6101b061051a565b6040516101bd9190613209565b60405180910390f35b6101e060048036038101906101db9190612be7565b6105ac565b6040516101ed9190613165565b60405180910390f35b610210600480360381019061020b91906129b6565b610631565b005b61021a610749565b60405161022791906134bb565b60405180910390f35b61024a60048036038101906102459190612b5c565b610753565b6040516102579190613209565b60405180910390f35b61027a60048036038101906102759190612815565b6108b9565b005b61029660048036038101906102919190612815565b610919565b005b6102b260048036038101906102ad9190612be7565b610939565b6040516102bf9190613209565b60405180910390f35b6102e260048036038101906102dd9190612be7565b6109d9565b6040516102ef9190613209565b60405180910390f35b610312600480360381019061030d9190612be7565b610abe565b60405161031f9190613165565b60405180910390f35b610342600480360381019061033d91906127a8565b610b70565b60405161034f91906134bb565b60405180910390f35b610360610c28565b005b61036a610cb0565b6040516103779190613209565b60405180910390f35b61039a60048036038101906103959190612a50565b610d3e565b005b6103a4610efc565b6040516103b19190613165565b60405180910390f35b6103d460048036038101906103cf919061292b565b610f26565b005b6103de61103f565b6040516103eb9190613209565b60405180910390f35b61040e600480360381019061040991906128eb565b6110d1565b005b61042a60048036038101906104259190612868565b6110e7565b005b61044660048036038101906104419190612be7565b611149565b6040516104539190613209565b60405180910390f35b610476600480360381019061047191906127d5565b6111a3565b60405161048391906131cc565b60405180910390f35b6104a660048036038101906104a19190612be7565b611237565b6040516104b391906131e7565b60405180910390f35b6104d660048036038101906104d19190612c14565b6112d7565b6040516104e39190613209565b60405180910390f35b610506600480360381019061050191906127a8565b611390565b005b600061051382611488565b9050919050565b606060658054610529906137ab565b80601f0160208091040260200160405190810160405280929190818152602001828054610555906137ab565b80156105a25780601f10610577576101008083540402835291602001916105a2565b820191906000526020600020905b81548152906001019060200180831161058557829003601f168201915b5050505050905090565b60006105b78261156a565b6105f6576040517f08c379a00000000000000000000000000000000000000000000000000000000081526004016105ed906133cb565b60405180910390fd5b6069600083815260200190815260200160002060009054906101000a900473ffffffffffffffffffffffffffffffffffffffff169050919050565b600061063c82610abe565b90508073ffffffffffffffffffffffffffffffffffffffff168373ffffffffffffffffffffffffffffffffffffffff1614156106ad576040517f08c379a00000000000000000000000000000000000000000000000000000000081526004016106a49061342b565b60405180910390fd5b8073ffffffffffffffffffffffffffffffffffffffff166106cc6115d6565b73ffffffffffffffffffffffffffffffffffffffff1614806106fb57506106fa816106f56115d6565b6111a3565b5b61073a576040517f08c379a00000000000000000000000000000000000000000000000000000000081526004016107319061332b565b60405180910390fd5b61074483836115de565b505050565b600060cc54905090565b60606000604051806060016040528086815260200185815260200160ca6000868152602001908152602001600020805461078c906137ab565b80601f01602080910402602001604051908101604052809291908181526020018280546107b8906137ab565b80156108055780601f106107da57610100808354040283529160200191610805565b820191906000526020600020905b8154815290600101906020018083116107e857829003601f168201915b5050505050815250905073__$388d9648e60900c4fa1f8dd42cac8ac1fe$__636c2a0e3c8260c960008781526020019081526020016000206040518363ffffffff1660e01b815260040161085a92919061348b565b60006040518083038186803b15801561087257600080fd5b505af4158015610886573d6000803e3d6000fd5b505050506040513d6000823e3d601f19601f820116820180604052508101906108af9190612b13565b9150509392505050565b6108ca6108c46115d6565b82611697565b610909576040517f08c379a00000000000000000000000000000000000000000000000000000000081526004016109009061344b565b60405180910390fd5b610914838383611775565b505050565b610934838383604051806020016040528060008152506110e7565b505050565b60cb6020528060005260406000206000915090508054610958906137ab565b80601f0160208091040260200160405190810160405280929190818152602001828054610984906137ab565b80156109d15780601f106109a6576101008083540402835291602001916109d1565b820191906000526020600020905b8154815290600101906020018083116109b457829003601f168201915b505050505081565b6060600060cb600084815260200190815260200160002080546109fb906137ab565b80601f0160208091040260200160405190810160405280929190818152602001828054610a27906137ab565b8015610a745780601f10610a4957610100808354040283529160200191610a74565b820191906000526020600020905b815481529060010190602001808311610a5757829003601f168201915b50505050509050600060cd610a88856119dc565b604051602001610a99929190613136565b6040516020818303038152906040529050610ab5828286610753565b92505050919050565b6000806067600084815260200190815260200160002060009054906101000a900473ffffffffffffffffffffffffffffffffffffffff169050600073ffffffffffffffffffffffffffffffffffffffff168173ffffffffffffffffffffffffffffffffffffffff161415610b67576040517f08c379a0000000000000000000000000000000000000000000000000000000008152600401610b5e9061336b565b60405180910390fd5b80915050919050565b60008073ffffffffffffffffffffffffffffffffffffffff168273ffffffffffffffffffffffffffffffffffffffff161415610be1576040517f08c379a0000000000000000000000000000000000000000000000000000000008152600401610bd89061334b565b60405180910390fd5b606860008373ffffffffffffffffffffffffffffffffffffffff1673ffffffffffffffffffffffffffffffffffffffff168152602001908152602001600020549050919050565b610c306115d6565b73ffffffffffffffffffffffffffffffffffffffff16610c4e610efc565b73ffffffffffffffffffffffffffffffffffffffff1614610ca4576040517f08c379a0000000000000000000000000000000000000000000000000000000008152600401610c9b906133eb565b60405180910390fd5b610cae6000611b3d565b565b60cd8054610cbd906137ab565b80601f0160208091040260200160405190810160405280929190818152602001828054610ce9906137ab565b8015610d365780601f10610d0b57610100808354040283529160200191610d36565b820191906000526020600020905b815481529060010190602001808311610d1957829003601f168201915b505050505081565b610d466115d6565b73ffffffffffffffffffffffffffffffffffffffff16610d64610efc565b73ffffffffffffffffffffffffffffffffffffffff1614610dba576040517f08c379a0000000000000000000000000000000000000000000000000000000008152600401610db1906133eb565b60405180910390fd5b6000600160cc54610dcb919061363a565b90506101008484905060c9600084815260200190815260200160002080549050610df5919061363a565b1115610e36576040517f08c379a0000000000000000000000000000000000000000000000000000000008152600401610e2d9061340b565b60405180910390fd5b60005b84849050811015610e8557610e7282868684818110610e5b57610e5a613915565b5b9050602002810190610e6d91906134d6565b611c03565b8080610e7d9061380e565b915050610e39565b50868660cb60008481526020019081526020016000209190610ea8929190612394565b508460ca60008381526020019081526020016000209080519060200190610ed092919061241a565b5060cc6000815480929190610ee49061380e565b9190505550610ef38282611c57565b50505050505050565b6000609760009054906101000a900473ffffffffffffffffffffffffffffffffffffffff16905090565b600060019054906101000a900460ff16610f4e5760008054906101000a900460ff1615610f57565b610f56611c75565b5b610f96576040517f08c379a0000000000000000000000000000000000000000000000000000000008152600401610f8d9061338b565b60405180910390fd5b60008060019054906101000a900460ff161590508015610fe6576001600060016101000a81548160ff02191690831515021790555060016000806101000a81548160ff0219169083151502179055505b610fee611c86565b610ff784611390565b6110018383611ce7565b8260cd90805190602001906110179291906124a0565b5080156110395760008060016101000a81548160ff0219169083151502179055505b50505050565b60606066805461104e906137ab565b80601f016020809104026020016040519081016040528092919081815260200182805461107a906137ab565b80156110c75780601f1061109c576101008083540402835291602001916110c7565b820191906000526020600020905b8154815290600101906020018083116110aa57829003601f168201915b5050505050905090565b6110e36110dc6115d6565b8383611d68565b5050565b6110f86110f26115d6565b83611697565b611137576040517f08c379a000000000000000000000000000000000000000000000000000000000815260040161112e9061344b565b60405180910390fd5b61114384848484611ed5565b50505050565b60606111548261156a565b611193576040517f08c379a000000000000000000000000000000000000000000000000000000000815260040161118a9061322b565b60405180910390fd5b61119c826109d9565b9050919050565b6000606a60008473ffffffffffffffffffffffffffffffffffffffff1673ffffffffffffffffffffffffffffffffffffffff16815260200190815260200160002060008373ffffffffffffffffffffffffffffffffffffffff1673ffffffffffffffffffffffffffffffffffffffff16815260200190815260200160002060009054906101000a900460ff16905092915050565b60ca6020528060005260406000206000915090508054611256906137ab565b80601f0160208091040260200160405190810160405280929190818152602001828054611282906137ab565b80156112cf5780601f106112a4576101008083540402835291602001916112cf565b820191906000526020600020905b8154815290600101906020018083116112b257829003601f168201915b505050505081565b60c960205281600052604060002081815481106112f357600080fd5b9060005260206000200160009150915050805461130f906137ab565b80601f016020809104026020016040519081016040528092919081815260200182805461133b906137ab565b80156113885780601f1061135d57610100808354040283529160200191611388565b820191906000526020600020905b81548152906001019060200180831161136b57829003601f168201915b505050505081565b6113986115d6565b73ffffffffffffffffffffffffffffffffffffffff166113b6610efc565b73ffffffffffffffffffffffffffffffffffffffff161461140c576040517f08c379a0000000000000000000000000000000000000000000000000000000008152600401611403906133eb565b60405180910390fd5b600073ffffffffffffffffffffffffffffffffffffffff168173ffffffffffffffffffffffffffffffffffffffff16141561147c576040517f08c379a00000000000000000000000000000000000000000000000000000000081526004016114739061326b565b60405180910390fd5b61148581611b3d565b50565b60007f80ac58cd000000000000000000000000000000000000000000000000000000007bffffffffffffffffffffffffffffffffffffffffffffffffffffffff1916827bffffffffffffffffffffffffffffffffffffffffffffffffffffffff1916148061155357507f5b5e139f000000000000000000000000000000000000000000000000000000007bffffffffffffffffffffffffffffffffffffffffffffffffffffffff1916827bffffffffffffffffffffffffffffffffffffffffffffffffffffffff1916145b80611563575061156282611f31565b5b9050919050565b60008073ffffffffffffffffffffffffffffffffffffffff166067600084815260200190815260200160002060009054906101000a900473ffffffffffffffffffffffffffffffffffffffff1673ffffffffffffffffffffffffffffffffffffffff1614159050919050565b600033905090565b816069600083815260200190815260200160002060006101000a81548173ffffffffffffffffffffffffffffffffffffffff021916908373ffffffffffffffffffffffffffffffffffffffff160217905550808273ffffffffffffffffffffffffffffffffffffffff1661165183610abe565b73ffffffffffffffffffffffffffffffffffffffff167f8c5be1e5ebec7d5bd14f71427d1e84f3dd0314c0f7b2291e5b200ac8c7c3b92560405160405180910390a45050565b60006116a28261156a565b6116e1576040517f08c379a00000000000000000000000000000000000000000000000000000000081526004016116d89061330b565b60405180910390fd5b60006116ec83610abe565b90508073ffffffffffffffffffffffffffffffffffffffff168473ffffffffffffffffffffffffffffffffffffffff16148061175b57508373ffffffffffffffffffffffffffffffffffffffff16611743846105ac565b73ffffffffffffffffffffffffffffffffffffffff16145b8061176c575061176b81856111a3565b5b91505092915050565b8273ffffffffffffffffffffffffffffffffffffffff1661179582610abe565b73ffffffffffffffffffffffffffffffffffffffff16146117eb576040517f08c379a00000000000000000000000000000000000000000000000000000000081526004016117e29061328b565b60405180910390fd5b600073ffffffffffffffffffffffffffffffffffffffff168273ffffffffffffffffffffffffffffffffffffffff16141561185b576040517f08c379a0000000000000000000000000000000000000000000000000000000008152600401611852906132cb565b60405180910390fd5b611866838383611f9b565b6118716000826115de565b6001606860008573ffffffffffffffffffffffffffffffffffffffff1673ffffffffffffffffffffffffffffffffffffffff16815260200190815260200160002060008282546118c191906136c1565b925050819055506001606860008473ffffffffffffffffffffffffffffffffffffffff1673ffffffffffffffffffffffffffffffffffffffff1681526020019081526020016000206000828254611918919061363a565b92505081905550816067600083815260200190815260200160002060006101000a81548173ffffffffffffffffffffffffffffffffffffffff021916908373ffffffffffffffffffffffffffffffffffffffff160217905550808273ffffffffffffffffffffffffffffffffffffffff168473ffffffffffffffffffffffffffffffffffffffff167fddf252ad1be2c89b69c2b068fc378daa952ba7f163c4a11628f55a4df523b3ef60405160405180910390a46119d7838383611fa0565b505050565b60606000821415611a24576040518060400160405280600181526020017f30000000000000000000000000000000000000000000000000000000000000008152509050611b38565b600082905060005b60008214611a56578080611a3f9061380e565b915050600a82611a4f9190613690565b9150611a2c565b60008167ffffffffffffffff811115611a7257611a71613944565b5b6040519080825280601f01601f191660200182016040528015611aa45781602001600182028036833780820191505090505b5090505b60008514611b3157600182611abd91906136c1565b9150600a85611acc9190613857565b6030611ad8919061363a565b60f81b818381518110611aee57611aed613915565b5b60200101907effffffffffffffffffffffffffffffffffffffffffffffffffffffffffffff1916908160001a905350600a85611b2a9190613690565b9450611aa8565b8093505050505b919050565b6000609760009054906101000a900473ffffffffffffffffffffffffffffffffffffffff16905081609760006101000a81548173ffffffffffffffffffffffffffffffffffffffff021916908373ffffffffffffffffffffffffffffffffffffffff1602179055508173ffffffffffffffffffffffffffffffffffffffff168173ffffffffffffffffffffffffffffffffffffffff167f8be0079c531659141344cd1fd0a4f28419497f9722a3daafe3b4186f6b6457e060405160405180910390a35050565b60c96000848152602001908152602001600020828290918060018154018082558091505060019003906000526020600020016000909192909192909192909192509190611c51929190612394565b50505050565b611c71828260405180602001604052806000815250611fa5565b5050565b6000611c8030612000565b15905090565b600060019054906101000a900460ff16611cd5576040517f08c379a0000000000000000000000000000000000000000000000000000000008152600401611ccc9061346b565b60405180910390fd5b611ce5611ce06115d6565b611b3d565b565b600060019054906101000a900460ff16611d36576040517f08c379a0000000000000000000000000000000000000000000000000000000008152600401611d2d9061346b565b60405180910390fd5b8160659080519060200190611d4c9291906124a0565b508060669080519060200190611d639291906124a0565b505050565b8173ffffffffffffffffffffffffffffffffffffffff168373ffffffffffffffffffffffffffffffffffffffff161415611dd7576040517f08c379a0000000000000000000000000000000000000000000000000000000008152600401611dce906132eb565b60405180910390fd5b80606a60008573ffffffffffffffffffffffffffffffffffffffff1673ffffffffffffffffffffffffffffffffffffffff16815260200190815260200160002060008473ffffffffffffffffffffffffffffffffffffffff1673ffffffffffffffffffffffffffffffffffffffff16815260200190815260200160002060006101000a81548160ff0219169083151502179055508173ffffffffffffffffffffffffffffffffffffffff168373ffffffffffffffffffffffffffffffffffffffff167f17307eab39ab6107e8899845ad3d59bd9653f200f220920489ca2b5937696c3183604051611ec891906131cc565b60405180910390a3505050565b611ee0848484611775565b611eec84848484612023565b611f2b576040517f08c379a0000000000000000000000000000000000000000000000000000000008152600401611f229061324b565b60405180910390fd5b50505050565b60007f01ffc9a7000000000000000000000000000000000000000000000000000000007bffffffffffffffffffffffffffffffffffffffffffffffffffffffff1916827bffffffffffffffffffffffffffffffffffffffffffffffffffffffff1916149050919050565b505050565b505050565b611faf83836121ba565b611fbc6000848484612023565b611ffb576040517f08c379a0000000000000000000000000000000000000000000000000000000008152600401611ff29061324b565b60405180910390fd5b505050565b6000808273ffffffffffffffffffffffffffffffffffffffff163b119050919050565b60006120448473ffffffffffffffffffffffffffffffffffffffff16612000565b156121ad578373ffffffffffffffffffffffffffffffffffffffff1663150b7a0261206d6115d6565b8786866040518563ffffffff1660e01b815260040161208f9493929190613180565b602060405180830381600087803b1580156120a957600080fd5b505af19250505080156120da57506040513d601f19601f820116820180604052508101906120d79190612a23565b60015b61215d573d806000811461210a576040519150601f19603f3d011682016040523d82523d6000602084013e61210f565b606091505b50600081511415612155576040517f08c379a000000000000000000000000000000000000000000000000000000000815260040161214c9061324b565b60405180910390fd5b805181602001fd5b63150b7a0260e01b7bffffffffffffffffffffffffffffffffffffffffffffffffffffffff1916817bffffffffffffffffffffffffffffffffffffffffffffffffffffffff1916149150506121b2565b600190505b949350505050565b600073ffffffffffffffffffffffffffffffffffffffff168273ffffffffffffffffffffffffffffffffffffffff16141561222a576040517f08c379a0000000000000000000000000000000000000000000000000000000008152600401612221906133ab565b60405180910390fd5b6122338161156a565b15612273576040517f08c379a000000000000000000000000000000000000000000000000000000000815260040161226a906132ab565b60405180910390fd5b61227f60008383611f9b565b6001606860008473ffffffffffffffffffffffffffffffffffffffff1673ffffffffffffffffffffffffffffffffffffffff16815260200190815260200160002060008282546122cf919061363a565b92505081905550816067600083815260200190815260200160002060006101000a81548173ffffffffffffffffffffffffffffffffffffffff021916908373ffffffffffffffffffffffffffffffffffffffff160217905550808273ffffffffffffffffffffffffffffffffffffffff16600073ffffffffffffffffffffffffffffffffffffffff167fddf252ad1be2c89b69c2b068fc378daa952ba7f163c4a11628f55a4df523b3ef60405160405180910390a461239060008383611fa0565b5050565b8280546123a0906137ab565b90600052602060002090601f0160209004810192826123c25760008555612409565b82601f106123db57803560ff1916838001178555612409565b82800160010185558215612409579182015b828111156124085782358255916020019190600101906123ed565b5b5090506124169190612526565b5090565b828054612426906137ab565b90600052602060002090601f016020900481019282612448576000855561248f565b82601f1061246157805160ff191683800117855561248f565b8280016001018555821561248f579182015b8281111561248e578251825591602001919060010190612473565b5b50905061249c9190612526565b5090565b8280546124ac906137ab565b90600052602060002090601f0160209004810192826124ce5760008555612515565b82601f106124e757805160ff1916838001178555612515565b82800160010185558215612515579182015b828111156125145782518255916020019190600101906124f9565b5b5090506125229190612526565b5090565b5b8082111561253f576000816000905550600101612527565b5090565b60006125566125518461355e565b613539565b90508281526020810184848401111561257257612571613991565b5b61257d848285613769565b509392505050565b60006125986125938461358f565b613539565b9050828152602081018484840111156125b4576125b3613991565b5b6125bf848285613769565b509392505050565b60006125da6125d58461358f565b613539565b9050828152602081018484840111156125f6576125f5613991565b5b612601848285613778565b509392505050565b60008135905061261881613ef9565b92915050565b60008083601f84011261263457612633613978565b5b8235905067ffffffffffffffff81111561265157612650613973565b5b60208301915083602082028301111561266d5761266c613987565b5b9250929050565b60008135905061268381613f10565b92915050565b60008135905061269881613f27565b92915050565b6000815190506126ad81613f27565b92915050565b600082601f8301126126c8576126c7613978565b5b81356126d8848260208601612543565b91505092915050565b60008083601f8401126126f7576126f6613978565b5b8235905067ffffffffffffffff81111561271457612713613973565b5b6020830191508360018202830111156127305761272f613987565b5b9250929050565b600082601f83011261274c5761274b613978565b5b813561275c848260208601612585565b91505092915050565b600082601f83011261277a57612779613978565b5b815161278a8482602086016125c7565b91505092915050565b6000813590506127a281613f3e565b92915050565b6000602082840312156127be576127bd61399b565b5b60006127cc84828501612609565b91505092915050565b600080604083850312156127ec576127eb61399b565b5b60006127fa85828601612609565b925050602061280b85828601612609565b9150509250929050565b60008060006060848603121561282e5761282d61399b565b5b600061283c86828701612609565b935050602061284d86828701612609565b925050604061285e86828701612793565b9150509250925092565b600080600080608085870312156128825761288161399b565b5b600061289087828801612609565b94505060206128a187828801612609565b93505060406128b287828801612793565b925050606085013567ffffffffffffffff8111156128d3576128d2613996565b5b6128df878288016126b3565b91505092959194509250565b600080604083850312156129025761290161399b565b5b600061291085828601612609565b925050602061292185828601612674565b9150509250929050565b6000806000606084860312156129445761294361399b565b5b600061295286828701612609565b935050602084013567ffffffffffffffff81111561297357612972613996565b5b61297f86828701612737565b925050604084013567ffffffffffffffff8111156129a05761299f613996565b5b6129ac86828701612737565b9150509250925092565b600080604083850312156129cd576129cc61399b565b5b60006129db85828601612609565b92505060206129ec85828601612793565b9150509250929050565b600060208284031215612a0c57612a0b61399b565b5b6000612a1a84828501612689565b91505092915050565b600060208284031215612a3957612a3861399b565b5b6000612a478482850161269e565b91505092915050565b60008060008060008060808789031215612a6d57612a6c61399b565b5b600087013567ffffffffffffffff811115612a8b57612a8a613996565b5b612a9789828a016126e1565b9650965050602087013567ffffffffffffffff811115612aba57612ab9613996565b5b612ac689828a016126b3565b945050604087013567ffffffffffffffff811115612ae757612ae6613996565b5b612af389828a0161261e565b93509350506060612b0689828a01612609565b9150509295509295509295565b600060208284031215612b2957612b2861399b565b5b600082015167ffffffffffffffff811115612b4757612b46613996565b5b612b5384828501612765565b91505092915050565b600080600060608486031215612b7557612b7461399b565b5b600084013567ffffffffffffffff811115612b9357612b92613996565b5b612b9f86828701612737565b935050602084013567ffffffffffffffff811115612bc057612bbf613996565b5b612bcc86828701612737565b9250506040612bdd86828701612793565b9150509250925092565b600060208284031215612bfd57612bfc61399b565b5b6000612c0b84828501612793565b91505092915050565b60008060408385031215612c2b57612c2a61399b565b5b6000612c3985828601612793565b9250506020612c4a85828601612793565b9150509250929050565b612c5d816136f5565b82525050565b8082525050565b612c7381613707565b82525050565b6000612c84826135d5565b612c8e81856135eb565b9350612c9e818560208601613778565b612ca7816139a0565b840191505092915050565b6000612cbd826135d5565b612cc781856135fc565b9350612cd7818560208601613778565b612ce0816139a0565b840191505092915050565b6000612cf6826135e0565b612d00818561360d565b9350612d10818560208601613778565b612d19816139a0565b840191505092915050565b6000612d2f826135e0565b612d39818561361e565b9350612d49818560208601613778565b612d52816139a0565b840191505092915050565b6000612d68826135e0565b612d72818561362f565b9350612d82818560208601613778565b80840191505092915050565b60008154612d9b816137ab565b612da5818661362f565b94506001821660008114612dc05760018114612dd157612e04565b60ff19831686528186019350612e04565b612dda856135c0565b60005b83811015612dfc57815481890152600182019150602081019050612ddd565b838801955050505b50505092915050565b6000612e1a601f8361360d565b9150612e25826139b1565b602082019050919050565b6000612e3d60328361360d565b9150612e48826139da565b604082019050919050565b6000612e6060028361362f565b9150612e6b82613a29565b600282019050919050565b6000612e8360268361360d565b9150612e8e82613a52565b604082019050919050565b6000612ea660258361360d565b9150612eb182613aa1565b604082019050919050565b6000612ec9601c8361360d565b9150612ed482613af0565b602082019050919050565b6000612eec60248361360d565b9150612ef782613b19565b604082019050919050565b6000612f0f60198361360d565b9150612f1a82613b68565b602082019050919050565b6000612f32602c8361360d565b9150612f3d82613b91565b604082019050919050565b6000612f5560388361360d565b9150612f6082613be0565b604082019050919050565b6000612f78602a8361360d565b9150612f8382613c2f565b604082019050919050565b6000612f9b60298361360d565b9150612fa682613c7e565b604082019050919050565b6000612fbe602e8361360d565b9150612fc982613ccd565b604082019050919050565b6000612fe160208361360d565b9150612fec82613d1c565b602082019050919050565b6000613004602c8361360d565b915061300f82613d45565b604082019050919050565b600061302760208361360d565b915061303282613d94565b602082019050919050565b600061304a60218361360d565b915061305582613dbd565b604082019050919050565b600061306d60218361360d565b915061307882613e0c565b604082019050919050565b600061309060318361360d565b915061309b82613e5b565b604082019050919050565b60006130b3602b8361360d565b91506130be82613eaa565b604082019050919050565b600060608301600083015184820360008601526130e68282612d24565b915050602083015184820360208601526131008282612d24565b9150506040830151848203604086015261311a8282612cb2565b9150508091505092915050565b6131308161375f565b82525050565b60006131428285612d8e565b915061314d82612e53565b91506131598284612d5d565b91508190509392505050565b600060208201905061317a6000830184612c54565b92915050565b60006080820190506131956000830187612c54565b6131a26020830186612c54565b6131af6040830185613127565b81810360608301526131c18184612c79565b905095945050505050565b60006020820190506131e16000830184612c6a565b92915050565b600060208201905081810360008301526132018184612c79565b905092915050565b600060208201905081810360008301526132238184612ceb565b905092915050565b6000602082019050818103600083015261324481612e0d565b9050919050565b6000602082019050818103600083015261326481612e30565b9050919050565b6000602082019050818103600083015261328481612e76565b9050919050565b600060208201905081810360008301526132a481612e99565b9050919050565b600060208201905081810360008301526132c481612ebc565b9050919050565b600060208201905081810360008301526132e481612edf565b9050919050565b6000602082019050818103600083015261330481612f02565b9050919050565b6000602082019050818103600083015261332481612f25565b9050919050565b6000602082019050818103600083015261334481612f48565b9050919050565b6000602082019050818103600083015261336481612f6b565b9050919050565b6000602082019050818103600083015261338481612f8e565b9050919050565b600060208201905081810360008301526133a481612fb1565b9050919050565b600060208201905081810360008301526133c481612fd4565b9050919050565b600060208201905081810360008301526133e481612ff7565b9050919050565b600060208201905081810360008301526134048161301a565b9050919050565b600060208201905081810360008301526134248161303d565b9050919050565b6000602082019050818103600083015261344481613060565b9050919050565b6000602082019050818103600083015261346481613083565b9050919050565b60006020820190508181036000830152613484816130a6565b9050919050565b600060408201905081810360008301526134a581856130c9565b90506134b46020830184612c63565b9392505050565b60006020820190506134d06000830184613127565b92915050565b600080833560016020038436030381126134f3576134f2613982565b5b80840192508235915067ffffffffffffffff8211156135155761351461397d565b5b6020830192506001820236038313156135315761353061398c565b5b509250929050565b6000613543613554565b905061354f82826137dd565b919050565b6000604051905090565b600067ffffffffffffffff82111561357957613578613944565b5b613582826139a0565b9050602081019050919050565b600067ffffffffffffffff8211156135aa576135a9613944565b5b6135b3826139a0565b9050602081019050919050565b60008190508160005260206000209050919050565b600081519050919050565b600081519050919050565b600082825260208201905092915050565b600082825260208201905092915050565b600082825260208201905092915050565b600082825260208201905092915050565b600081905092915050565b60006136458261375f565b91506136508361375f565b9250827fffffffffffffffffffffffffffffffffffffffffffffffffffffffffffffffff0382111561368557613684613888565b5b828201905092915050565b600061369b8261375f565b91506136a68361375f565b9250826136b6576136b56138b7565b5b828204905092915050565b60006136cc8261375f565b91506136d78361375f565b9250828210156136ea576136e9613888565b5b828203905092915050565b60006137008261373f565b9050919050565b60008115159050919050565b60007fffffffff0000000000000000000000000000000000000000000000000000000082169050919050565b600073ffffffffffffffffffffffffffffffffffffffff82169050919050565b6000819050919050565b82818337600083830152505050565b60005b8381101561379657808201518184015260208101905061377b565b838111156137a5576000848401525b50505050565b600060028204905060018216806137c357607f821691505b602082108114156137d7576137d66138e6565b5b50919050565b6137e6826139a0565b810181811067ffffffffffffffff8211171561380557613804613944565b5b80604052505050565b60006138198261375f565b91507fffffffffffffffffffffffffffffffffffffffffffffffffffffffffffffffff82141561384c5761384b613888565b5b600182019050919050565b60006138628261375f565b915061386d8361375f565b92508261387d5761387c6138b7565b5b828206905092915050565b7f4e487b7100000000000000000000000000000000000000000000000000000000600052601160045260246000fd5b7f4e487b7100000000000000000000000000000000000000000000000000000000600052601260045260246000fd5b7f4e487b7100000000000000000000000000000000000000000000000000000000600052602260045260246000fd5b7f4e487b7100000000000000000000000000000000000000000000000000000000600052603260045260246000fd5b7f4e487b7100000000000000000000000000000000000000000000000000000000600052604160045260246000fd5b600080fd5b600080fd5b600080fd5b600080fd5b600080fd5b600080fd5b600080fd5b600080fd5b600080fd5b6000601f19601f8301169050919050565b7f55524920717565727920666f72206e6f6e6578697374656e7420746f6b656e00600082015250565b7f4552433732313a207472616e7366657220746f206e6f6e20455243373231526560008201527f63656976657220696d706c656d656e7465720000000000000000000000000000602082015250565b7f2023000000000000000000000000000000000000000000000000000000000000600082015250565b7f4f776e61626c653a206e6577206f776e657220697320746865207a65726f206160008201527f6464726573730000000000000000000000000000000000000000000000000000602082015250565b7f4552433732313a207472616e736665722066726f6d20696e636f72726563742060008201527f6f776e6572000000000000000000000000000000000000000000000000000000602082015250565b7f4552433732313a20746f6b656e20616c7265616479206d696e74656400000000600082015250565b7f4552433732313a207472616e7366657220746f20746865207a65726f2061646460008201527f7265737300000000000000000000000000000000000000000000000000000000602082015250565b7f4552433732313a20617070726f766520746f2063616c6c657200000000000000600082015250565b7f4552433732313a206f70657261746f7220717565727920666f72206e6f6e657860008201527f697374656e7420746f6b656e0000000000000000000000000000000000000000602082015250565b7f4552433732313a20617070726f76652063616c6c6572206973206e6f74206f7760008201527f6e6572206e6f7220617070726f76656420666f7220616c6c0000000000000000602082015250565b7f4552433732313a2062616c616e636520717565727920666f7220746865207a6560008201527f726f206164647265737300000000000000000000000000000000000000000000602082015250565b7f4552433732313a206f776e657220717565727920666f72206e6f6e657869737460008201527f656e7420746f6b656e0000000000000000000000000000000000000000000000602082015250565b7f496e697469616c697a61626c653a20636f6e747261637420697320616c72656160008201527f647920696e697469616c697a6564000000000000000000000000000000000000602082015250565b7f4552433732313a206d696e7420746f20746865207a65726f2061646472657373600082015250565b7f4552433732313a20617070726f76656420717565727920666f72206e6f6e657860008201527f697374656e7420746f6b656e0000000000000000000000000000000000000000602082015250565b7f4f776e61626c653a2063616c6c6572206973206e6f7420746865206f776e6572600082015250565b7f50616c65747465732063616e206f6e6c7920686f6c642032353620636f6c6f7260008201527f7300000000000000000000000000000000000000000000000000000000000000602082015250565b7f4552433732313a20617070726f76616c20746f2063757272656e74206f776e6560008201527f7200000000000000000000000000000000000000000000000000000000000000602082015250565b7f4552433732313a207472616e736665722063616c6c6572206973206e6f74206f60008201527f776e6572206e6f7220617070726f766564000000000000000000000000000000602082015250565b7f496e697469616c697a61626c653a20636f6e7472616374206973206e6f74206960008201527f6e697469616c697a696e67000000000000000000000000000000000000000000602082015250565b613f02816136f5565b8114613f0d57600080fd5b50565b613f1981613707565b8114613f2457600080fd5b50565b613f3081613713565b8114613f3b57600080fd5b50565b613f478161375f565b8114613f5257600080fd5b5056fea2646970667358221220ac11638f68d8c83e0fa0b5a19f5768c8e1cc8ad3db740cc204734a76b3cbec2b64736f6c63430008060033",
  "libraries": {
    "NFTDescriptor": "0x7f7175b177FD915f731316dA0Cbba62F62971135"
  },
  "devdoc": {
    "kind": "dev",
    "methods": {
      "approve(address,uint256)": {
        "details": "See {IERC721-approve}."
      },
      "balanceOf(address)": {
        "details": "See {IERC721-balanceOf}."
      },
      "getApproved(uint256)": {
        "details": "See {IERC721-getApproved}."
      },
      "isApprovedForAll(address,address)": {
        "details": "See {IERC721-isApprovedForAll}."
      },
      "name()": {
        "details": "See {IERC721Metadata-name}."
      },
      "owner()": {
        "details": "Returns the address of the current owner."
      },
      "ownerOf(uint256)": {
        "details": "See {IERC721-ownerOf}."
      },
      "renounceOwnership()": {
        "details": "Leaves the contract without owner. It will not be possible to call `onlyOwner` functions anymore. Can only be called by the current owner. NOTE: Renouncing ownership will leave the contract without an owner, thereby removing any functionality that is only available to the owner."
      },
      "safeTransferFrom(address,address,uint256)": {
        "details": "See {IERC721-safeTransferFrom}."
      },
      "safeTransferFrom(address,address,uint256,bytes)": {
        "details": "See {IERC721-safeTransferFrom}."
      },
      "setApprovalForAll(address,bool)": {
        "details": "See {IERC721-setApprovalForAll}."
      },
      "symbol()": {
        "details": "See {IERC721Metadata-symbol}."
      },
      "tokenURI(uint256)": {
        "details": "See {IERC721Metadata-tokenURI}."
      },
      "transferFrom(address,address,uint256)": {
        "details": "See {IERC721-transferFrom}."
      },
      "transferOwnership(address)": {
        "details": "Transfers ownership of the contract to a new account (`newOwner`). Can only be called by the current owner."
      }
    },
    "version": 1
  },
  "userdoc": {
    "kind": "user",
    "methods": {
      "dataURI(uint256)": {
        "notice": "Given a token ID and seed, construct a base64 encoded data URI for an official Nouns DAO noun."
      },
      "genericDataURI(string,string,uint256)": {
        "notice": "Given a name, description, and seed, construct a base64 encoded data URI."
      }
    },
    "version": 1
  },
  "storageLayout": {
    "storage": [
      {
        "astId": 130,
        "contract": "contracts/FllnchnMold.sol:FllnchnMold",
        "label": "_initialized",
        "offset": 0,
        "slot": "0",
        "type": "t_bool"
      },
      {
        "astId": 133,
        "contract": "contracts/FllnchnMold.sol:FllnchnMold",
        "label": "_initializing",
        "offset": 1,
        "slot": "0",
        "type": "t_bool"
      },
      {
        "astId": 1533,
        "contract": "contracts/FllnchnMold.sol:FllnchnMold",
        "label": "__gap",
        "offset": 0,
        "slot": "1",
        "type": "t_array(t_uint256)50_storage"
      },
      {
        "astId": 1780,
        "contract": "contracts/FllnchnMold.sol:FllnchnMold",
        "label": "__gap",
        "offset": 0,
        "slot": "51",
        "type": "t_array(t_uint256)50_storage"
      },
      {
        "astId": 226,
        "contract": "contracts/FllnchnMold.sol:FllnchnMold",
        "label": "_name",
        "offset": 0,
        "slot": "101",
        "type": "t_string_storage"
      },
      {
        "astId": 228,
        "contract": "contracts/FllnchnMold.sol:FllnchnMold",
        "label": "_symbol",
        "offset": 0,
        "slot": "102",
        "type": "t_string_storage"
      },
      {
        "astId": 232,
        "contract": "contracts/FllnchnMold.sol:FllnchnMold",
        "label": "_owners",
        "offset": 0,
        "slot": "103",
        "type": "t_mapping(t_uint256,t_address)"
      },
      {
        "astId": 236,
        "contract": "contracts/FllnchnMold.sol:FllnchnMold",
        "label": "_balances",
        "offset": 0,
        "slot": "104",
        "type": "t_mapping(t_address,t_uint256)"
      },
      {
        "astId": 240,
        "contract": "contracts/FllnchnMold.sol:FllnchnMold",
        "label": "_tokenApprovals",
        "offset": 0,
        "slot": "105",
        "type": "t_mapping(t_uint256,t_address)"
      },
      {
        "astId": 246,
        "contract": "contracts/FllnchnMold.sol:FllnchnMold",
        "label": "_operatorApprovals",
        "offset": 0,
        "slot": "106",
        "type": "t_mapping(t_address,t_mapping(t_address,t_bool))"
      },
      {
        "astId": 1087,
        "contract": "contracts/FllnchnMold.sol:FllnchnMold",
        "label": "__gap",
        "offset": 0,
        "slot": "107",
        "type": "t_array(t_uint256)44_storage"
      },
      {
        "astId": 10,
        "contract": "contracts/FllnchnMold.sol:FllnchnMold",
        "label": "_owner",
        "offset": 0,
        "slot": "151",
        "type": "t_address"
      },
      {
        "astId": 122,
        "contract": "contracts/FllnchnMold.sol:FllnchnMold",
        "label": "__gap",
        "offset": 0,
        "slot": "152",
        "type": "t_array(t_uint256)49_storage"
      },
      {
        "astId": 2385,
        "contract": "contracts/FllnchnMold.sol:FllnchnMold",
        "label": "palettes",
        "offset": 0,
        "slot": "201",
        "type": "t_mapping(t_uint256,t_array(t_string_storage)dyn_storage)"
      },
      {
        "astId": 2389,
        "contract": "contracts/FllnchnMold.sol:FllnchnMold",
        "label": "seeds",
        "offset": 0,
        "slot": "202",
        "type": "t_mapping(t_uint256,t_bytes_storage)"
      },
      {
        "astId": 2393,
        "contract": "contracts/FllnchnMold.sol:FllnchnMold",
        "label": "names",
        "offset": 0,
        "slot": "203",
        "type": "t_mapping(t_uint256,t_string_storage)"
      },
      {
        "astId": 2395,
        "contract": "contracts/FllnchnMold.sol:FllnchnMold",
        "label": "_totalSupply",
        "offset": 0,
        "slot": "204",
        "type": "t_uint256"
      },
      {
        "astId": 2397,
        "contract": "contracts/FllnchnMold.sol:FllnchnMold",
        "label": "contractName",
        "offset": 0,
        "slot": "205",
        "type": "t_string_storage"
      }
    ],
    "types": {
      "t_address": {
        "encoding": "inplace",
        "label": "address",
        "numberOfBytes": "20"
      },
      "t_array(t_string_storage)dyn_storage": {
        "base": "t_string_storage",
        "encoding": "dynamic_array",
        "label": "string[]",
        "numberOfBytes": "32"
      },
      "t_array(t_uint256)44_storage": {
        "base": "t_uint256",
        "encoding": "inplace",
        "label": "uint256[44]",
        "numberOfBytes": "1408"
      },
      "t_array(t_uint256)49_storage": {
        "base": "t_uint256",
        "encoding": "inplace",
        "label": "uint256[49]",
        "numberOfBytes": "1568"
      },
      "t_array(t_uint256)50_storage": {
        "base": "t_uint256",
        "encoding": "inplace",
        "label": "uint256[50]",
        "numberOfBytes": "1600"
      },
      "t_bool": {
        "encoding": "inplace",
        "label": "bool",
        "numberOfBytes": "1"
      },
      "t_bytes_storage": {
        "encoding": "bytes",
        "label": "bytes",
        "numberOfBytes": "32"
      },
      "t_mapping(t_address,t_bool)": {
        "encoding": "mapping",
        "key": "t_address",
        "label": "mapping(address => bool)",
        "numberOfBytes": "32",
        "value": "t_bool"
      },
      "t_mapping(t_address,t_mapping(t_address,t_bool))": {
        "encoding": "mapping",
        "key": "t_address",
        "label": "mapping(address => mapping(address => bool))",
        "numberOfBytes": "32",
        "value": "t_mapping(t_address,t_bool)"
      },
      "t_mapping(t_address,t_uint256)": {
        "encoding": "mapping",
        "key": "t_address",
        "label": "mapping(address => uint256)",
        "numberOfBytes": "32",
        "value": "t_uint256"
      },
      "t_mapping(t_uint256,t_address)": {
        "encoding": "mapping",
        "key": "t_uint256",
        "label": "mapping(uint256 => address)",
        "numberOfBytes": "32",
        "value": "t_address"
      },
      "t_mapping(t_uint256,t_array(t_string_storage)dyn_storage)": {
        "encoding": "mapping",
        "key": "t_uint256",
        "label": "mapping(uint256 => string[])",
        "numberOfBytes": "32",
        "value": "t_array(t_string_storage)dyn_storage"
      },
      "t_mapping(t_uint256,t_bytes_storage)": {
        "encoding": "mapping",
        "key": "t_uint256",
        "label": "mapping(uint256 => bytes)",
        "numberOfBytes": "32",
        "value": "t_bytes_storage"
      },
      "t_mapping(t_uint256,t_string_storage)": {
        "encoding": "mapping",
        "key": "t_uint256",
        "label": "mapping(uint256 => string)",
        "numberOfBytes": "32",
        "value": "t_string_storage"
      },
      "t_string_storage": {
        "encoding": "bytes",
        "label": "string",
        "numberOfBytes": "32"
      },
      "t_uint256": {
        "encoding": "inplace",
        "label": "uint256",
        "numberOfBytes": "32"
      }
    }
  }
}